{
	"VOTACIONES/votaciones.sol": {
		"votacion": {
			"abi": [
				{
					"inputs": [],
					"name": "owner",
					"outputs": [
						{
							"internalType": "address",
							"name": "",
							"type": "address"
						}
					],
					"stateMutability": "view",
					"type": "function"
				},
				{
					"inputs": [
						{
							"internalType": "string",
							"name": "_nombre",
							"type": "string"
						},
						{
							"internalType": "uint256",
							"name": "_edad",
							"type": "uint256"
						},
						{
							"internalType": "string",
							"name": "_id",
							"type": "string"
						}
					],
					"name": "representar",
					"outputs": [],
					"stateMutability": "nonpayable",
					"type": "function"
				},
				{
					"inputs": [],
					"name": "varCandidatos",
					"outputs": [
						{
							"internalType": "string[]",
							"name": "",
							"type": "string[]"
						}
					],
					"stateMutability": "view",
					"type": "function"
				}
			],
			"devdoc": {
				"kind": "dev",
				"methods": {},
				"version": 1
			},
			"evm": {
				"assembly": "    /* \"VOTACIONES/votaciones.sol\":102:1452  contract votacion {\r... */\n  mstore(0x40, 0x80)\n    /* \"VOTACIONES/votaciones.sol\":199:209  msg.sender */\n  caller\n    /* \"VOTACIONES/votaciones.sol\":176:209  address public owner = msg.sender */\n  0x00\n  dup1\n  0x0100\n  exp\n  dup2\n  sload\n  dup2\n  0xffffffffffffffffffffffffffffffffffffffff\n  mul\n  not\n  and\n  swap1\n  dup4\n  0xffffffffffffffffffffffffffffffffffffffff\n  and\n  mul\n  or\n  swap1\n  sstore\n  pop\n    /* \"VOTACIONES/votaciones.sol\":102:1452  contract votacion {\r... */\n  callvalue\n  dup1\n  iszero\n  tag_1\n  jumpi\n  0x00\n  dup1\n  revert\ntag_1:\n  pop\n  dataSize(sub_0)\n  dup1\n  dataOffset(sub_0)\n  0x00\n  codecopy\n  0x00\n  return\nstop\n\nsub_0: assembly {\n        /* \"VOTACIONES/votaciones.sol\":102:1452  contract votacion {\r... */\n      mstore(0x40, 0x80)\n      callvalue\n      dup1\n      iszero\n      tag_1\n      jumpi\n      0x00\n      dup1\n      revert\n    tag_1:\n      pop\n      jumpi(tag_2, lt(calldatasize, 0x04))\n      shr(0xe0, calldataload(0x00))\n      dup1\n      0x2e9452bc\n      eq\n      tag_3\n      jumpi\n      dup1\n      0x7e4a58e6\n      eq\n      tag_4\n      jumpi\n      dup1\n      0x8da5cb5b\n      eq\n      tag_5\n      jumpi\n    tag_2:\n      0x00\n      dup1\n      revert\n        /* \"VOTACIONES/votaciones.sol\":654:1084  function representar(string memory _nombre, uint _edad, string memory _id) public {\r... */\n    tag_3:\n      tag_6\n      0x04\n      dup1\n      calldatasize\n      sub\n      dup2\n      add\n      swap1\n      tag_7\n      swap2\n      swap1\n      tag_8\n      jump\t// in\n    tag_7:\n      tag_9\n      jump\t// in\n    tag_6:\n      stop\n        /* \"VOTACIONES/votaciones.sol\":1136:1238  function varCandidatos() public view returns(string[] memory){\r... */\n    tag_4:\n      tag_10\n      tag_11\n      jump\t// in\n    tag_10:\n      mload(0x40)\n      tag_12\n      swap2\n      swap1\n      tag_13\n      jump\t// in\n    tag_12:\n      mload(0x40)\n      dup1\n      swap2\n      sub\n      swap1\n      return\n        /* \"VOTACIONES/votaciones.sol\":176:209  address public owner = msg.sender */\n    tag_5:\n      tag_14\n      tag_15\n      jump\t// in\n    tag_14:\n      mload(0x40)\n      tag_16\n      swap2\n      swap1\n      tag_17\n      jump\t// in\n    tag_16:\n      mload(0x40)\n      dup1\n      swap2\n      sub\n      swap1\n      return\n        /* \"VOTACIONES/votaciones.sol\":654:1084  function representar(string memory _nombre, uint _edad, string memory _id) public {\r... */\n    tag_9:\n        /* \"VOTACIONES/votaciones.sol\":789:810  bytes32 hashCandidato */\n      0x00\n        /* \"VOTACIONES/votaciones.sol\":840:847  _nombre */\n      dup4\n        /* \"VOTACIONES/votaciones.sol\":849:854  _edad */\n      dup4\n        /* \"VOTACIONES/votaciones.sol\":856:859  _id */\n      dup4\n        /* \"VOTACIONES/votaciones.sol\":823:860  abi.encodePacked(_nombre, _edad, _id) */\n      add(0x20, mload(0x40))\n      tag_19\n      swap4\n      swap3\n      swap2\n      swap1\n      tag_20\n      jump\t// in\n    tag_19:\n      mload(0x40)\n      0x20\n      dup2\n      dup4\n      sub\n      sub\n      dup2\n      mstore\n      swap1\n      0x40\n      mstore\n        /* \"VOTACIONES/votaciones.sol\":813:861  keccak256(abi.encodePacked(_nombre, _edad, _id)) */\n      dup1\n      mload\n      swap1\n      0x20\n      add\n      keccak256\n        /* \"VOTACIONES/votaciones.sol\":789:861  bytes32 hashCandidato = keccak256(abi.encodePacked(_nombre, _edad, _id)) */\n      swap1\n      pop\n        /* \"VOTACIONES/votaciones.sol\":974:987  hashCandidato */\n      dup1\n        /* \"VOTACIONES/votaciones.sol\":950:962  ID_Candidato */\n      0x01\n        /* \"VOTACIONES/votaciones.sol\":963:970  _nombre */\n      dup6\n        /* \"VOTACIONES/votaciones.sol\":950:971  ID_Candidato[_nombre] */\n      mload(0x40)\n      tag_21\n      swap2\n      swap1\n      tag_22\n      jump\t// in\n    tag_21:\n      swap1\n      dup2\n      mstore\n      0x20\n      add\n      mload(0x40)\n      dup1\n      swap2\n      sub\n      swap1\n      keccak256\n        /* \"VOTACIONES/votaciones.sol\":950:987  ID_Candidato[_nombre] = hashCandidato */\n      dup2\n      swap1\n      sstore\n      pop\n        /* \"VOTACIONES/votaciones.sol\":1047:1062  listaCandidatos */\n      0x03\n        /* \"VOTACIONES/votaciones.sol\":1068:1075  _nombre */\n      dup5\n        /* \"VOTACIONES/votaciones.sol\":1047:1076  listaCandidatos.push(_nombre) */\n      swap1\n      dup1\n      0x01\n      dup2\n      sload\n      add\n      dup1\n      dup3\n      sstore\n      dup1\n      swap2\n      pop\n      pop\n      0x01\n      swap1\n      sub\n      swap1\n      0x00\n      mstore\n      keccak256(0x00, 0x20)\n      add\n      0x00\n      swap1\n      swap2\n      swap1\n      swap2\n      swap1\n      swap2\n      pop\n      swap1\n      dup1\n      mload\n      swap1\n      0x20\n      add\n      swap1\n      tag_24\n      swap3\n      swap2\n      swap1\n      tag_25\n      jump\t// in\n    tag_24:\n      pop\n        /* \"VOTACIONES/votaciones.sol\":736:1084  {\r... */\n      pop\n        /* \"VOTACIONES/votaciones.sol\":654:1084  function representar(string memory _nombre, uint _edad, string memory _id) public {\r... */\n      pop\n      pop\n      pop\n      jump\t// out\n        /* \"VOTACIONES/votaciones.sol\":1136:1238  function varCandidatos() public view returns(string[] memory){\r... */\n    tag_11:\n        /* \"VOTACIONES/votaciones.sol\":1181:1196  string[] memory */\n      0x60\n        /* \"VOTACIONES/votaciones.sol\":1215:1230  listaCandidatos */\n      0x03\n        /* \"VOTACIONES/votaciones.sol\":1208:1230  return listaCandidatos */\n      dup1\n      sload\n      dup1\n      0x20\n      mul\n      0x20\n      add\n      mload(0x40)\n      swap1\n      dup2\n      add\n      0x40\n      mstore\n      dup1\n      swap3\n      swap2\n      swap1\n      dup2\n      dup2\n      mstore\n      0x20\n      add\n      0x00\n      swap1\n    tag_27:\n      dup3\n      dup3\n      lt\n      iszero\n      tag_28\n      jumpi\n      dup4\n      dup3\n      swap1\n      0x00\n      mstore\n      keccak256(0x00, 0x20)\n      add\n      dup1\n      sload\n      tag_30\n      swap1\n      tag_31\n      jump\t// in\n    tag_30:\n      dup1\n      0x1f\n      add\n      0x20\n      dup1\n      swap2\n      div\n      mul\n      0x20\n      add\n      mload(0x40)\n      swap1\n      dup2\n      add\n      0x40\n      mstore\n      dup1\n      swap3\n      swap2\n      swap1\n      dup2\n      dup2\n      mstore\n      0x20\n      add\n      dup3\n      dup1\n      sload\n      tag_32\n      swap1\n      tag_31\n      jump\t// in\n    tag_32:\n      dup1\n      iszero\n      tag_33\n      jumpi\n      dup1\n      0x1f\n      lt\n      tag_34\n      jumpi\n      0x0100\n      dup1\n      dup4\n      sload\n      div\n      mul\n      dup4\n      mstore\n      swap2\n      0x20\n      add\n      swap2\n      jump(tag_33)\n    tag_34:\n      dup3\n      add\n      swap2\n      swap1\n      0x00\n      mstore\n      keccak256(0x00, 0x20)\n      swap1\n    tag_35:\n      dup2\n      sload\n      dup2\n      mstore\n      swap1\n      0x01\n      add\n      swap1\n      0x20\n      add\n      dup1\n      dup4\n      gt\n      tag_35\n      jumpi\n      dup3\n      swap1\n      sub\n      0x1f\n      and\n      dup3\n      add\n      swap2\n    tag_33:\n      pop\n      pop\n      pop\n      pop\n      pop\n      dup2\n      mstore\n      0x20\n      add\n      swap1\n      0x01\n      add\n      swap1\n      jump(tag_27)\n    tag_28:\n      pop\n      pop\n      pop\n      pop\n      swap1\n      pop\n        /* \"VOTACIONES/votaciones.sol\":1136:1238  function varCandidatos() public view returns(string[] memory){\r... */\n      swap1\n      jump\t// out\n        /* \"VOTACIONES/votaciones.sol\":176:209  address public owner = msg.sender */\n    tag_15:\n      0x00\n      dup1\n      sload\n      swap1\n      0x0100\n      exp\n      swap1\n      div\n      0xffffffffffffffffffffffffffffffffffffffff\n      and\n      dup2\n      jump\t// out\n    tag_25:\n      dup3\n      dup1\n      sload\n      tag_36\n      swap1\n      tag_31\n      jump\t// in\n    tag_36:\n      swap1\n      0x00\n      mstore\n      keccak256(0x00, 0x20)\n      swap1\n      0x1f\n      add\n      0x20\n      swap1\n      div\n      dup2\n      add\n      swap3\n      dup3\n      tag_38\n      jumpi\n      0x00\n      dup6\n      sstore\n      jump(tag_37)\n    tag_38:\n      dup3\n      0x1f\n      lt\n      tag_39\n      jumpi\n      dup1\n      mload\n      not(0xff)\n      and\n      dup4\n      dup1\n      add\n      or\n      dup6\n      sstore\n      jump(tag_37)\n    tag_39:\n      dup3\n      dup1\n      add\n      0x01\n      add\n      dup6\n      sstore\n      dup3\n      iszero\n      tag_37\n      jumpi\n      swap2\n      dup3\n      add\n    tag_40:\n      dup3\n      dup2\n      gt\n      iszero\n      tag_41\n      jumpi\n      dup3\n      mload\n      dup3\n      sstore\n      swap2\n      0x20\n      add\n      swap2\n      swap1\n      0x01\n      add\n      swap1\n      jump(tag_40)\n    tag_41:\n    tag_37:\n      pop\n      swap1\n      pop\n      tag_42\n      swap2\n      swap1\n      tag_43\n      jump\t// in\n    tag_42:\n      pop\n      swap1\n      jump\t// out\n    tag_43:\n    tag_44:\n      dup1\n      dup3\n      gt\n      iszero\n      tag_45\n      jumpi\n      0x00\n      dup2\n      0x00\n      swap1\n      sstore\n      pop\n      0x01\n      add\n      jump(tag_44)\n    tag_45:\n      pop\n      swap1\n      jump\t// out\n        /* \"#utility.yul\":7:419   */\n    tag_47:\n        /* \"#utility.yul\":85:90   */\n      0x00\n        /* \"#utility.yul\":110:176   */\n      tag_49\n        /* \"#utility.yul\":126:175   */\n      tag_50\n        /* \"#utility.yul\":168:174   */\n      dup5\n        /* \"#utility.yul\":126:175   */\n      tag_51\n      jump\t// in\n    tag_50:\n        /* \"#utility.yul\":110:176   */\n      tag_52\n      jump\t// in\n    tag_49:\n        /* \"#utility.yul\":101:176   */\n      swap1\n      pop\n        /* \"#utility.yul\":199:205   */\n      dup3\n        /* \"#utility.yul\":192:197   */\n      dup2\n        /* \"#utility.yul\":185:206   */\n      mstore\n        /* \"#utility.yul\":237:241   */\n      0x20\n        /* \"#utility.yul\":230:235   */\n      dup2\n        /* \"#utility.yul\":226:242   */\n      add\n        /* \"#utility.yul\":275:278   */\n      dup5\n        /* \"#utility.yul\":266:272   */\n      dup5\n        /* \"#utility.yul\":261:264   */\n      dup5\n        /* \"#utility.yul\":257:273   */\n      add\n        /* \"#utility.yul\":254:279   */\n      gt\n        /* \"#utility.yul\":251:363   */\n      iszero\n      tag_53\n      jumpi\n        /* \"#utility.yul\":282:361   */\n      tag_54\n      tag_55\n      jump\t// in\n    tag_54:\n        /* \"#utility.yul\":251:363   */\n    tag_53:\n        /* \"#utility.yul\":372:413   */\n      tag_56\n        /* \"#utility.yul\":406:412   */\n      dup5\n        /* \"#utility.yul\":401:404   */\n      dup3\n        /* \"#utility.yul\":396:399   */\n      dup6\n        /* \"#utility.yul\":372:413   */\n      tag_57\n      jump\t// in\n    tag_56:\n        /* \"#utility.yul\":91:419   */\n      pop\n        /* \"#utility.yul\":7:419   */\n      swap4\n      swap3\n      pop\n      pop\n      pop\n      jump\t// out\n        /* \"#utility.yul\":439:779   */\n    tag_58:\n        /* \"#utility.yul\":495:500   */\n      0x00\n        /* \"#utility.yul\":544:547   */\n      dup3\n        /* \"#utility.yul\":537:541   */\n      0x1f\n        /* \"#utility.yul\":529:535   */\n      dup4\n        /* \"#utility.yul\":525:542   */\n      add\n        /* \"#utility.yul\":521:548   */\n      slt\n        /* \"#utility.yul\":511:633   */\n      tag_60\n      jumpi\n        /* \"#utility.yul\":552:631   */\n      tag_61\n      tag_62\n      jump\t// in\n    tag_61:\n        /* \"#utility.yul\":511:633   */\n    tag_60:\n        /* \"#utility.yul\":669:675   */\n      dup2\n        /* \"#utility.yul\":656:676   */\n      calldataload\n        /* \"#utility.yul\":694:773   */\n      tag_63\n        /* \"#utility.yul\":769:772   */\n      dup5\n        /* \"#utility.yul\":761:767   */\n      dup3\n        /* \"#utility.yul\":754:758   */\n      0x20\n        /* \"#utility.yul\":746:752   */\n      dup7\n        /* \"#utility.yul\":742:759   */\n      add\n        /* \"#utility.yul\":694:773   */\n      tag_47\n      jump\t// in\n    tag_63:\n        /* \"#utility.yul\":685:773   */\n      swap2\n      pop\n        /* \"#utility.yul\":501:779   */\n      pop\n        /* \"#utility.yul\":439:779   */\n      swap3\n      swap2\n      pop\n      pop\n      jump\t// out\n        /* \"#utility.yul\":785:924   */\n    tag_64:\n        /* \"#utility.yul\":831:836   */\n      0x00\n        /* \"#utility.yul\":869:875   */\n      dup2\n        /* \"#utility.yul\":856:876   */\n      calldataload\n        /* \"#utility.yul\":847:876   */\n      swap1\n      pop\n        /* \"#utility.yul\":885:918   */\n      tag_66\n        /* \"#utility.yul\":912:917   */\n      dup2\n        /* \"#utility.yul\":885:918   */\n      tag_67\n      jump\t// in\n    tag_66:\n        /* \"#utility.yul\":785:924   */\n      swap3\n      swap2\n      pop\n      pop\n      jump\t// out\n        /* \"#utility.yul\":930:1909   */\n    tag_8:\n        /* \"#utility.yul\":1027:1033   */\n      0x00\n        /* \"#utility.yul\":1035:1041   */\n      dup1\n        /* \"#utility.yul\":1043:1049   */\n      0x00\n        /* \"#utility.yul\":1092:1094   */\n      0x60\n        /* \"#utility.yul\":1080:1089   */\n      dup5\n        /* \"#utility.yul\":1071:1078   */\n      dup7\n        /* \"#utility.yul\":1067:1090   */\n      sub\n        /* \"#utility.yul\":1063:1095   */\n      slt\n        /* \"#utility.yul\":1060:1179   */\n      iszero\n      tag_69\n      jumpi\n        /* \"#utility.yul\":1098:1177   */\n      tag_70\n      tag_71\n      jump\t// in\n    tag_70:\n        /* \"#utility.yul\":1060:1179   */\n    tag_69:\n        /* \"#utility.yul\":1246:1247   */\n      0x00\n        /* \"#utility.yul\":1235:1244   */\n      dup5\n        /* \"#utility.yul\":1231:1248   */\n      add\n        /* \"#utility.yul\":1218:1249   */\n      calldataload\n        /* \"#utility.yul\":1276:1294   */\n      0xffffffffffffffff\n        /* \"#utility.yul\":1268:1274   */\n      dup2\n        /* \"#utility.yul\":1265:1295   */\n      gt\n        /* \"#utility.yul\":1262:1379   */\n      iszero\n      tag_72\n      jumpi\n        /* \"#utility.yul\":1298:1377   */\n      tag_73\n      tag_74\n      jump\t// in\n    tag_73:\n        /* \"#utility.yul\":1262:1379   */\n    tag_72:\n        /* \"#utility.yul\":1403:1466   */\n      tag_75\n        /* \"#utility.yul\":1458:1465   */\n      dup7\n        /* \"#utility.yul\":1449:1455   */\n      dup3\n        /* \"#utility.yul\":1438:1447   */\n      dup8\n        /* \"#utility.yul\":1434:1456   */\n      add\n        /* \"#utility.yul\":1403:1466   */\n      tag_58\n      jump\t// in\n    tag_75:\n        /* \"#utility.yul\":1393:1466   */\n      swap4\n      pop\n        /* \"#utility.yul\":1189:1476   */\n      pop\n        /* \"#utility.yul\":1515:1517   */\n      0x20\n        /* \"#utility.yul\":1541:1594   */\n      tag_76\n        /* \"#utility.yul\":1586:1593   */\n      dup7\n        /* \"#utility.yul\":1577:1583   */\n      dup3\n        /* \"#utility.yul\":1566:1575   */\n      dup8\n        /* \"#utility.yul\":1562:1584   */\n      add\n        /* \"#utility.yul\":1541:1594   */\n      tag_64\n      jump\t// in\n    tag_76:\n        /* \"#utility.yul\":1531:1594   */\n      swap3\n      pop\n        /* \"#utility.yul\":1486:1604   */\n      pop\n        /* \"#utility.yul\":1671:1673   */\n      0x40\n        /* \"#utility.yul\":1660:1669   */\n      dup5\n        /* \"#utility.yul\":1656:1674   */\n      add\n        /* \"#utility.yul\":1643:1675   */\n      calldataload\n        /* \"#utility.yul\":1702:1720   */\n      0xffffffffffffffff\n        /* \"#utility.yul\":1694:1700   */\n      dup2\n        /* \"#utility.yul\":1691:1721   */\n      gt\n        /* \"#utility.yul\":1688:1805   */\n      iszero\n      tag_77\n      jumpi\n        /* \"#utility.yul\":1724:1803   */\n      tag_78\n      tag_74\n      jump\t// in\n    tag_78:\n        /* \"#utility.yul\":1688:1805   */\n    tag_77:\n        /* \"#utility.yul\":1829:1892   */\n      tag_79\n        /* \"#utility.yul\":1884:1891   */\n      dup7\n        /* \"#utility.yul\":1875:1881   */\n      dup3\n        /* \"#utility.yul\":1864:1873   */\n      dup8\n        /* \"#utility.yul\":1860:1882   */\n      add\n        /* \"#utility.yul\":1829:1892   */\n      tag_58\n      jump\t// in\n    tag_79:\n        /* \"#utility.yul\":1819:1892   */\n      swap2\n      pop\n        /* \"#utility.yul\":1614:1902   */\n      pop\n        /* \"#utility.yul\":930:1909   */\n      swap3\n      pop\n      swap3\n      pop\n      swap3\n      jump\t// out\n        /* \"#utility.yul\":1915:2111   */\n    tag_80:\n        /* \"#utility.yul\":2004:2014   */\n      0x00\n        /* \"#utility.yul\":2039:2105   */\n      tag_82\n        /* \"#utility.yul\":2101:2104   */\n      dup4\n        /* \"#utility.yul\":2093:2099   */\n      dup4\n        /* \"#utility.yul\":2039:2105   */\n      tag_83\n      jump\t// in\n    tag_82:\n        /* \"#utility.yul\":2025:2105   */\n      swap1\n      pop\n        /* \"#utility.yul\":1915:2111   */\n      swap3\n      swap2\n      pop\n      pop\n      jump\t// out\n        /* \"#utility.yul\":2117:2235   */\n    tag_84:\n        /* \"#utility.yul\":2204:2228   */\n      tag_86\n        /* \"#utility.yul\":2222:2227   */\n      dup2\n        /* \"#utility.yul\":2204:2228   */\n      tag_87\n      jump\t// in\n    tag_86:\n        /* \"#utility.yul\":2199:2202   */\n      dup3\n        /* \"#utility.yul\":2192:2229   */\n      mstore\n        /* \"#utility.yul\":2117:2235   */\n      pop\n      pop\n      jump\t// out\n        /* \"#utility.yul\":2269:3260   */\n    tag_88:\n        /* \"#utility.yul\":2408:2411   */\n      0x00\n        /* \"#utility.yul\":2437:2501   */\n      tag_90\n        /* \"#utility.yul\":2495:2500   */\n      dup3\n        /* \"#utility.yul\":2437:2501   */\n      tag_91\n      jump\t// in\n    tag_90:\n        /* \"#utility.yul\":2517:2613   */\n      tag_92\n        /* \"#utility.yul\":2606:2612   */\n      dup2\n        /* \"#utility.yul\":2601:2604   */\n      dup6\n        /* \"#utility.yul\":2517:2613   */\n      tag_93\n      jump\t// in\n    tag_92:\n        /* \"#utility.yul\":2510:2613   */\n      swap4\n      pop\n        /* \"#utility.yul\":2639:2642   */\n      dup4\n        /* \"#utility.yul\":2684:2688   */\n      0x20\n        /* \"#utility.yul\":2676:2682   */\n      dup3\n        /* \"#utility.yul\":2672:2689   */\n      mul\n        /* \"#utility.yul\":2667:2670   */\n      dup6\n        /* \"#utility.yul\":2663:2690   */\n      add\n        /* \"#utility.yul\":2714:2780   */\n      tag_94\n        /* \"#utility.yul\":2774:2779   */\n      dup6\n        /* \"#utility.yul\":2714:2780   */\n      tag_95\n      jump\t// in\n    tag_94:\n        /* \"#utility.yul\":2803:2810   */\n      dup1\n        /* \"#utility.yul\":2834:2835   */\n      0x00\n        /* \"#utility.yul\":2819:3215   */\n    tag_96:\n        /* \"#utility.yul\":2844:2850   */\n      dup6\n        /* \"#utility.yul\":2841:2842   */\n      dup2\n        /* \"#utility.yul\":2838:2851   */\n      lt\n        /* \"#utility.yul\":2819:3215   */\n      iszero\n      tag_98\n      jumpi\n        /* \"#utility.yul\":2915:2924   */\n      dup5\n        /* \"#utility.yul\":2909:2913   */\n      dup5\n        /* \"#utility.yul\":2905:2925   */\n      sub\n        /* \"#utility.yul\":2900:2903   */\n      dup10\n        /* \"#utility.yul\":2893:2926   */\n      mstore\n        /* \"#utility.yul\":2966:2972   */\n      dup2\n        /* \"#utility.yul\":2960:2973   */\n      mload\n        /* \"#utility.yul\":2994:3078   */\n      tag_99\n        /* \"#utility.yul\":3073:3077   */\n      dup6\n        /* \"#utility.yul\":3058:3071   */\n      dup3\n        /* \"#utility.yul\":2994:3078   */\n      tag_80\n      jump\t// in\n    tag_99:\n        /* \"#utility.yul\":2986:3078   */\n      swap5\n      pop\n        /* \"#utility.yul\":3101:3171   */\n      tag_100\n        /* \"#utility.yul\":3164:3170   */\n      dup4\n        /* \"#utility.yul\":3101:3171   */\n      tag_101\n      jump\t// in\n    tag_100:\n        /* \"#utility.yul\":3091:3171   */\n      swap3\n      pop\n        /* \"#utility.yul\":3200:3204   */\n      0x20\n        /* \"#utility.yul\":3195:3198   */\n      dup11\n        /* \"#utility.yul\":3191:3205   */\n      add\n        /* \"#utility.yul\":3184:3205   */\n      swap10\n      pop\n        /* \"#utility.yul\":2879:3215   */\n      pop\n        /* \"#utility.yul\":2866:2867   */\n      0x01\n        /* \"#utility.yul\":2863:2864   */\n      dup2\n        /* \"#utility.yul\":2859:2868   */\n      add\n        /* \"#utility.yul\":2854:2868   */\n      swap1\n      pop\n        /* \"#utility.yul\":2819:3215   */\n      jump(tag_96)\n    tag_98:\n        /* \"#utility.yul\":2823:2837   */\n      pop\n        /* \"#utility.yul\":3231:3235   */\n      dup3\n        /* \"#utility.yul\":3224:3235   */\n      swap8\n      pop\n        /* \"#utility.yul\":3251:3254   */\n      dup8\n        /* \"#utility.yul\":3244:3254   */\n      swap6\n      pop\n        /* \"#utility.yul\":2413:3260   */\n      pop\n      pop\n      pop\n      pop\n      pop\n        /* \"#utility.yul\":2269:3260   */\n      swap3\n      swap2\n      pop\n      pop\n      jump\t// out\n        /* \"#utility.yul\":3266:3610   */\n    tag_83:\n        /* \"#utility.yul\":3344:3347   */\n      0x00\n        /* \"#utility.yul\":3372:3411   */\n      tag_103\n        /* \"#utility.yul\":3405:3410   */\n      dup3\n        /* \"#utility.yul\":3372:3411   */\n      tag_104\n      jump\t// in\n    tag_103:\n        /* \"#utility.yul\":3427:3488   */\n      tag_105\n        /* \"#utility.yul\":3481:3487   */\n      dup2\n        /* \"#utility.yul\":3476:3479   */\n      dup6\n        /* \"#utility.yul\":3427:3488   */\n      tag_106\n      jump\t// in\n    tag_105:\n        /* \"#utility.yul\":3420:3488   */\n      swap4\n      pop\n        /* \"#utility.yul\":3497:3549   */\n      tag_107\n        /* \"#utility.yul\":3542:3548   */\n      dup2\n        /* \"#utility.yul\":3537:3540   */\n      dup6\n        /* \"#utility.yul\":3530:3534   */\n      0x20\n        /* \"#utility.yul\":3523:3528   */\n      dup7\n        /* \"#utility.yul\":3519:3535   */\n      add\n        /* \"#utility.yul\":3497:3549   */\n      tag_108\n      jump\t// in\n    tag_107:\n        /* \"#utility.yul\":3574:3603   */\n      tag_109\n        /* \"#utility.yul\":3596:3602   */\n      dup2\n        /* \"#utility.yul\":3574:3603   */\n      tag_110\n      jump\t// in\n    tag_109:\n        /* \"#utility.yul\":3569:3572   */\n      dup5\n        /* \"#utility.yul\":3565:3604   */\n      add\n        /* \"#utility.yul\":3558:3604   */\n      swap2\n      pop\n        /* \"#utility.yul\":3348:3610   */\n      pop\n        /* \"#utility.yul\":3266:3610   */\n      swap3\n      swap2\n      pop\n      pop\n      jump\t// out\n        /* \"#utility.yul\":3616:3993   */\n    tag_111:\n        /* \"#utility.yul\":3722:3725   */\n      0x00\n        /* \"#utility.yul\":3750:3789   */\n      tag_113\n        /* \"#utility.yul\":3783:3788   */\n      dup3\n        /* \"#utility.yul\":3750:3789   */\n      tag_104\n      jump\t// in\n    tag_113:\n        /* \"#utility.yul\":3805:3894   */\n      tag_114\n        /* \"#utility.yul\":3887:3893   */\n      dup2\n        /* \"#utility.yul\":3882:3885   */\n      dup6\n        /* \"#utility.yul\":3805:3894   */\n      tag_115\n      jump\t// in\n    tag_114:\n        /* \"#utility.yul\":3798:3894   */\n      swap4\n      pop\n        /* \"#utility.yul\":3903:3955   */\n      tag_116\n        /* \"#utility.yul\":3948:3954   */\n      dup2\n        /* \"#utility.yul\":3943:3946   */\n      dup6\n        /* \"#utility.yul\":3936:3940   */\n      0x20\n        /* \"#utility.yul\":3929:3934   */\n      dup7\n        /* \"#utility.yul\":3925:3941   */\n      add\n        /* \"#utility.yul\":3903:3955   */\n      tag_108\n      jump\t// in\n    tag_116:\n        /* \"#utility.yul\":3980:3986   */\n      dup1\n        /* \"#utility.yul\":3975:3978   */\n      dup5\n        /* \"#utility.yul\":3971:3987   */\n      add\n        /* \"#utility.yul\":3964:3987   */\n      swap2\n      pop\n        /* \"#utility.yul\":3726:3993   */\n      pop\n        /* \"#utility.yul\":3616:3993   */\n      swap3\n      swap2\n      pop\n      pop\n      jump\t// out\n        /* \"#utility.yul\":3999:4156   */\n    tag_117:\n        /* \"#utility.yul\":4104:4149   */\n      tag_119\n        /* \"#utility.yul\":4124:4148   */\n      tag_120\n        /* \"#utility.yul\":4142:4147   */\n      dup3\n        /* \"#utility.yul\":4124:4148   */\n      tag_121\n      jump\t// in\n    tag_120:\n        /* \"#utility.yul\":4104:4149   */\n      tag_122\n      jump\t// in\n    tag_119:\n        /* \"#utility.yul\":4099:4102   */\n      dup3\n        /* \"#utility.yul\":4092:4150   */\n      mstore\n        /* \"#utility.yul\":3999:4156   */\n      pop\n      pop\n      jump\t// out\n        /* \"#utility.yul\":4162:4437   */\n    tag_22:\n        /* \"#utility.yul\":4294:4297   */\n      0x00\n        /* \"#utility.yul\":4316:4411   */\n      tag_124\n        /* \"#utility.yul\":4407:4410   */\n      dup3\n        /* \"#utility.yul\":4398:4404   */\n      dup5\n        /* \"#utility.yul\":4316:4411   */\n      tag_111\n      jump\t// in\n    tag_124:\n        /* \"#utility.yul\":4309:4411   */\n      swap2\n      pop\n        /* \"#utility.yul\":4428:4431   */\n      dup2\n        /* \"#utility.yul\":4421:4431   */\n      swap1\n      pop\n        /* \"#utility.yul\":4162:4437   */\n      swap3\n      swap2\n      pop\n      pop\n      jump\t// out\n        /* \"#utility.yul\":4443:5019   */\n    tag_20:\n        /* \"#utility.yul\":4651:4654   */\n      0x00\n        /* \"#utility.yul\":4673:4768   */\n      tag_126\n        /* \"#utility.yul\":4764:4767   */\n      dup3\n        /* \"#utility.yul\":4755:4761   */\n      dup7\n        /* \"#utility.yul\":4673:4768   */\n      tag_111\n      jump\t// in\n    tag_126:\n        /* \"#utility.yul\":4666:4768   */\n      swap2\n      pop\n        /* \"#utility.yul\":4778:4853   */\n      tag_127\n        /* \"#utility.yul\":4849:4852   */\n      dup3\n        /* \"#utility.yul\":4840:4846   */\n      dup6\n        /* \"#utility.yul\":4778:4853   */\n      tag_117\n      jump\t// in\n    tag_127:\n        /* \"#utility.yul\":4878:4880   */\n      0x20\n        /* \"#utility.yul\":4873:4876   */\n      dup3\n        /* \"#utility.yul\":4869:4881   */\n      add\n        /* \"#utility.yul\":4862:4881   */\n      swap2\n      pop\n        /* \"#utility.yul\":4898:4993   */\n      tag_128\n        /* \"#utility.yul\":4989:4992   */\n      dup3\n        /* \"#utility.yul\":4980:4986   */\n      dup5\n        /* \"#utility.yul\":4898:4993   */\n      tag_111\n      jump\t// in\n    tag_128:\n        /* \"#utility.yul\":4891:4993   */\n      swap2\n      pop\n        /* \"#utility.yul\":5010:5013   */\n      dup2\n        /* \"#utility.yul\":5003:5013   */\n      swap1\n      pop\n        /* \"#utility.yul\":4443:5019   */\n      swap5\n      swap4\n      pop\n      pop\n      pop\n      pop\n      jump\t// out\n        /* \"#utility.yul\":5025:5247   */\n    tag_17:\n        /* \"#utility.yul\":5118:5122   */\n      0x00\n        /* \"#utility.yul\":5156:5158   */\n      0x20\n        /* \"#utility.yul\":5145:5154   */\n      dup3\n        /* \"#utility.yul\":5141:5159   */\n      add\n        /* \"#utility.yul\":5133:5159   */\n      swap1\n      pop\n        /* \"#utility.yul\":5169:5240   */\n      tag_130\n        /* \"#utility.yul\":5237:5238   */\n      0x00\n        /* \"#utility.yul\":5226:5235   */\n      dup4\n        /* \"#utility.yul\":5222:5239   */\n      add\n        /* \"#utility.yul\":5213:5219   */\n      dup5\n        /* \"#utility.yul\":5169:5240   */\n      tag_84\n      jump\t// in\n    tag_130:\n        /* \"#utility.yul\":5025:5247   */\n      swap3\n      swap2\n      pop\n      pop\n      jump\t// out\n        /* \"#utility.yul\":5253:5666   */\n    tag_13:\n        /* \"#utility.yul\":5416:5420   */\n      0x00\n        /* \"#utility.yul\":5454:5456   */\n      0x20\n        /* \"#utility.yul\":5443:5452   */\n      dup3\n        /* \"#utility.yul\":5439:5457   */\n      add\n        /* \"#utility.yul\":5431:5457   */\n      swap1\n      pop\n        /* \"#utility.yul\":5503:5512   */\n      dup2\n        /* \"#utility.yul\":5497:5501   */\n      dup2\n        /* \"#utility.yul\":5493:5513   */\n      sub\n        /* \"#utility.yul\":5489:5490   */\n      0x00\n        /* \"#utility.yul\":5478:5487   */\n      dup4\n        /* \"#utility.yul\":5474:5491   */\n      add\n        /* \"#utility.yul\":5467:5514   */\n      mstore\n        /* \"#utility.yul\":5531:5659   */\n      tag_132\n        /* \"#utility.yul\":5654:5658   */\n      dup2\n        /* \"#utility.yul\":5645:5651   */\n      dup5\n        /* \"#utility.yul\":5531:5659   */\n      tag_88\n      jump\t// in\n    tag_132:\n        /* \"#utility.yul\":5523:5659   */\n      swap1\n      pop\n        /* \"#utility.yul\":5253:5666   */\n      swap3\n      swap2\n      pop\n      pop\n      jump\t// out\n        /* \"#utility.yul\":5672:5801   */\n    tag_52:\n        /* \"#utility.yul\":5706:5712   */\n      0x00\n        /* \"#utility.yul\":5733:5753   */\n      tag_134\n      tag_135\n      jump\t// in\n    tag_134:\n        /* \"#utility.yul\":5723:5753   */\n      swap1\n      pop\n        /* \"#utility.yul\":5762:5795   */\n      tag_136\n        /* \"#utility.yul\":5790:5794   */\n      dup3\n        /* \"#utility.yul\":5782:5788   */\n      dup3\n        /* \"#utility.yul\":5762:5795   */\n      tag_137\n      jump\t// in\n    tag_136:\n        /* \"#utility.yul\":5672:5801   */\n      swap2\n      swap1\n      pop\n      jump\t// out\n        /* \"#utility.yul\":5807:5882   */\n    tag_135:\n        /* \"#utility.yul\":5840:5846   */\n      0x00\n        /* \"#utility.yul\":5873:5875   */\n      0x40\n        /* \"#utility.yul\":5867:5876   */\n      mload\n        /* \"#utility.yul\":5857:5876   */\n      swap1\n      pop\n        /* \"#utility.yul\":5807:5882   */\n      swap1\n      jump\t// out\n        /* \"#utility.yul\":5888:6196   */\n    tag_51:\n        /* \"#utility.yul\":5950:5954   */\n      0x00\n        /* \"#utility.yul\":6040:6058   */\n      0xffffffffffffffff\n        /* \"#utility.yul\":6032:6038   */\n      dup3\n        /* \"#utility.yul\":6029:6059   */\n      gt\n        /* \"#utility.yul\":6026:6082   */\n      iszero\n      tag_140\n      jumpi\n        /* \"#utility.yul\":6062:6080   */\n      tag_141\n      tag_142\n      jump\t// in\n    tag_141:\n        /* \"#utility.yul\":6026:6082   */\n    tag_140:\n        /* \"#utility.yul\":6100:6129   */\n      tag_143\n        /* \"#utility.yul\":6122:6128   */\n      dup3\n        /* \"#utility.yul\":6100:6129   */\n      tag_110\n      jump\t// in\n    tag_143:\n        /* \"#utility.yul\":6092:6129   */\n      swap1\n      pop\n        /* \"#utility.yul\":6184:6188   */\n      0x20\n        /* \"#utility.yul\":6178:6182   */\n      dup2\n        /* \"#utility.yul\":6174:6189   */\n      add\n        /* \"#utility.yul\":6166:6189   */\n      swap1\n      pop\n        /* \"#utility.yul\":5888:6196   */\n      swap2\n      swap1\n      pop\n      jump\t// out\n        /* \"#utility.yul\":6202:6344   */\n    tag_95:\n        /* \"#utility.yul\":6279:6283   */\n      0x00\n        /* \"#utility.yul\":6302:6305   */\n      dup2\n        /* \"#utility.yul\":6294:6305   */\n      swap1\n      pop\n        /* \"#utility.yul\":6332:6336   */\n      0x20\n        /* \"#utility.yul\":6327:6330   */\n      dup3\n        /* \"#utility.yul\":6323:6337   */\n      add\n        /* \"#utility.yul\":6315:6337   */\n      swap1\n      pop\n        /* \"#utility.yul\":6202:6344   */\n      swap2\n      swap1\n      pop\n      jump\t// out\n        /* \"#utility.yul\":6350:6474   */\n    tag_91:\n        /* \"#utility.yul\":6427:6433   */\n      0x00\n        /* \"#utility.yul\":6461:6466   */\n      dup2\n        /* \"#utility.yul\":6455:6467   */\n      mload\n        /* \"#utility.yul\":6445:6467   */\n      swap1\n      pop\n        /* \"#utility.yul\":6350:6474   */\n      swap2\n      swap1\n      pop\n      jump\t// out\n        /* \"#utility.yul\":6480:6579   */\n    tag_104:\n        /* \"#utility.yul\":6532:6538   */\n      0x00\n        /* \"#utility.yul\":6566:6571   */\n      dup2\n        /* \"#utility.yul\":6560:6572   */\n      mload\n        /* \"#utility.yul\":6550:6572   */\n      swap1\n      pop\n        /* \"#utility.yul\":6480:6579   */\n      swap2\n      swap1\n      pop\n      jump\t// out\n        /* \"#utility.yul\":6585:6708   */\n    tag_101:\n        /* \"#utility.yul\":6665:6669   */\n      0x00\n        /* \"#utility.yul\":6697:6701   */\n      0x20\n        /* \"#utility.yul\":6692:6695   */\n      dup3\n        /* \"#utility.yul\":6688:6702   */\n      add\n        /* \"#utility.yul\":6680:6702   */\n      swap1\n      pop\n        /* \"#utility.yul\":6585:6708   */\n      swap2\n      swap1\n      pop\n      jump\t// out\n        /* \"#utility.yul\":6714:6908   */\n    tag_93:\n        /* \"#utility.yul\":6823:6834   */\n      0x00\n        /* \"#utility.yul\":6857:6863   */\n      dup3\n        /* \"#utility.yul\":6852:6855   */\n      dup3\n        /* \"#utility.yul\":6845:6864   */\n      mstore\n        /* \"#utility.yul\":6897:6901   */\n      0x20\n        /* \"#utility.yul\":6892:6895   */\n      dup3\n        /* \"#utility.yul\":6888:6902   */\n      add\n        /* \"#utility.yul\":6873:6902   */\n      swap1\n      pop\n        /* \"#utility.yul\":6714:6908   */\n      swap3\n      swap2\n      pop\n      pop\n      jump\t// out\n        /* \"#utility.yul\":6914:7073   */\n    tag_106:\n        /* \"#utility.yul\":6988:6999   */\n      0x00\n        /* \"#utility.yul\":7022:7028   */\n      dup3\n        /* \"#utility.yul\":7017:7020   */\n      dup3\n        /* \"#utility.yul\":7010:7029   */\n      mstore\n        /* \"#utility.yul\":7062:7066   */\n      0x20\n        /* \"#utility.yul\":7057:7060   */\n      dup3\n        /* \"#utility.yul\":7053:7067   */\n      add\n        /* \"#utility.yul\":7038:7067   */\n      swap1\n      pop\n        /* \"#utility.yul\":6914:7073   */\n      swap3\n      swap2\n      pop\n      pop\n      jump\t// out\n        /* \"#utility.yul\":7079:7227   */\n    tag_115:\n        /* \"#utility.yul\":7181:7192   */\n      0x00\n        /* \"#utility.yul\":7218:7221   */\n      dup2\n        /* \"#utility.yul\":7203:7221   */\n      swap1\n      pop\n        /* \"#utility.yul\":7079:7227   */\n      swap3\n      swap2\n      pop\n      pop\n      jump\t// out\n        /* \"#utility.yul\":7233:7329   */\n    tag_87:\n        /* \"#utility.yul\":7270:7277   */\n      0x00\n        /* \"#utility.yul\":7299:7323   */\n      tag_152\n        /* \"#utility.yul\":7317:7322   */\n      dup3\n        /* \"#utility.yul\":7299:7323   */\n      tag_153\n      jump\t// in\n    tag_152:\n        /* \"#utility.yul\":7288:7323   */\n      swap1\n      pop\n        /* \"#utility.yul\":7233:7329   */\n      swap2\n      swap1\n      pop\n      jump\t// out\n        /* \"#utility.yul\":7335:7461   */\n    tag_153:\n        /* \"#utility.yul\":7372:7379   */\n      0x00\n        /* \"#utility.yul\":7412:7454   */\n      0xffffffffffffffffffffffffffffffffffffffff\n        /* \"#utility.yul\":7405:7410   */\n      dup3\n        /* \"#utility.yul\":7401:7455   */\n      and\n        /* \"#utility.yul\":7390:7455   */\n      swap1\n      pop\n        /* \"#utility.yul\":7335:7461   */\n      swap2\n      swap1\n      pop\n      jump\t// out\n        /* \"#utility.yul\":7467:7544   */\n    tag_121:\n        /* \"#utility.yul\":7504:7511   */\n      0x00\n        /* \"#utility.yul\":7533:7538   */\n      dup2\n        /* \"#utility.yul\":7522:7538   */\n      swap1\n      pop\n        /* \"#utility.yul\":7467:7544   */\n      swap2\n      swap1\n      pop\n      jump\t// out\n        /* \"#utility.yul\":7550:7704   */\n    tag_57:\n        /* \"#utility.yul\":7634:7640   */\n      dup3\n        /* \"#utility.yul\":7629:7632   */\n      dup2\n        /* \"#utility.yul\":7624:7627   */\n      dup4\n        /* \"#utility.yul\":7611:7641   */\n      calldatacopy\n        /* \"#utility.yul\":7696:7697   */\n      0x00\n        /* \"#utility.yul\":7687:7693   */\n      dup4\n        /* \"#utility.yul\":7682:7685   */\n      dup4\n        /* \"#utility.yul\":7678:7694   */\n      add\n        /* \"#utility.yul\":7671:7698   */\n      mstore\n        /* \"#utility.yul\":7550:7704   */\n      pop\n      pop\n      pop\n      jump\t// out\n        /* \"#utility.yul\":7710:8017   */\n    tag_108:\n        /* \"#utility.yul\":7778:7779   */\n      0x00\n        /* \"#utility.yul\":7788:7901   */\n    tag_158:\n        /* \"#utility.yul\":7802:7808   */\n      dup4\n        /* \"#utility.yul\":7799:7800   */\n      dup2\n        /* \"#utility.yul\":7796:7809   */\n      lt\n        /* \"#utility.yul\":7788:7901   */\n      iszero\n      tag_160\n      jumpi\n        /* \"#utility.yul\":7887:7888   */\n      dup1\n        /* \"#utility.yul\":7882:7885   */\n      dup3\n        /* \"#utility.yul\":7878:7889   */\n      add\n        /* \"#utility.yul\":7872:7890   */\n      mload\n        /* \"#utility.yul\":7868:7869   */\n      dup2\n        /* \"#utility.yul\":7863:7866   */\n      dup5\n        /* \"#utility.yul\":7859:7870   */\n      add\n        /* \"#utility.yul\":7852:7891   */\n      mstore\n        /* \"#utility.yul\":7824:7826   */\n      0x20\n        /* \"#utility.yul\":7821:7822   */\n      dup2\n        /* \"#utility.yul\":7817:7827   */\n      add\n        /* \"#utility.yul\":7812:7827   */\n      swap1\n      pop\n        /* \"#utility.yul\":7788:7901   */\n      jump(tag_158)\n    tag_160:\n        /* \"#utility.yul\":7919:7925   */\n      dup4\n        /* \"#utility.yul\":7916:7917   */\n      dup2\n        /* \"#utility.yul\":7913:7926   */\n      gt\n        /* \"#utility.yul\":7910:8011   */\n      iszero\n      tag_161\n      jumpi\n        /* \"#utility.yul\":7999:8000   */\n      0x00\n        /* \"#utility.yul\":7990:7996   */\n      dup5\n        /* \"#utility.yul\":7985:7988   */\n      dup5\n        /* \"#utility.yul\":7981:7997   */\n      add\n        /* \"#utility.yul\":7974:8001   */\n      mstore\n        /* \"#utility.yul\":7910:8011   */\n    tag_161:\n        /* \"#utility.yul\":7759:8017   */\n      pop\n        /* \"#utility.yul\":7710:8017   */\n      pop\n      pop\n      pop\n      jump\t// out\n        /* \"#utility.yul\":8023:8343   */\n    tag_31:\n        /* \"#utility.yul\":8067:8073   */\n      0x00\n        /* \"#utility.yul\":8104:8105   */\n      0x02\n        /* \"#utility.yul\":8098:8102   */\n      dup3\n        /* \"#utility.yul\":8094:8106   */\n      div\n        /* \"#utility.yul\":8084:8106   */\n      swap1\n      pop\n        /* \"#utility.yul\":8151:8152   */\n      0x01\n        /* \"#utility.yul\":8145:8149   */\n      dup3\n        /* \"#utility.yul\":8141:8153   */\n      and\n        /* \"#utility.yul\":8172:8190   */\n      dup1\n        /* \"#utility.yul\":8162:8243   */\n      tag_163\n      jumpi\n        /* \"#utility.yul\":8228:8232   */\n      0x7f\n        /* \"#utility.yul\":8220:8226   */\n      dup3\n        /* \"#utility.yul\":8216:8233   */\n      and\n        /* \"#utility.yul\":8206:8233   */\n      swap2\n      pop\n        /* \"#utility.yul\":8162:8243   */\n    tag_163:\n        /* \"#utility.yul\":8290:8292   */\n      0x20\n        /* \"#utility.yul\":8282:8288   */\n      dup3\n        /* \"#utility.yul\":8279:8293   */\n      lt\n        /* \"#utility.yul\":8259:8277   */\n      dup2\n        /* \"#utility.yul\":8256:8294   */\n      eq\n        /* \"#utility.yul\":8253:8337   */\n      iszero\n      tag_164\n      jumpi\n        /* \"#utility.yul\":8309:8327   */\n      tag_165\n      tag_166\n      jump\t// in\n    tag_165:\n        /* \"#utility.yul\":8253:8337   */\n    tag_164:\n        /* \"#utility.yul\":8074:8343   */\n      pop\n        /* \"#utility.yul\":8023:8343   */\n      swap2\n      swap1\n      pop\n      jump\t// out\n        /* \"#utility.yul\":8349:8630   */\n    tag_137:\n        /* \"#utility.yul\":8432:8459   */\n      tag_168\n        /* \"#utility.yul\":8454:8458   */\n      dup3\n        /* \"#utility.yul\":8432:8459   */\n      tag_110\n      jump\t// in\n    tag_168:\n        /* \"#utility.yul\":8424:8430   */\n      dup2\n        /* \"#utility.yul\":8420:8460   */\n      add\n        /* \"#utility.yul\":8562:8568   */\n      dup2\n        /* \"#utility.yul\":8550:8560   */\n      dup2\n        /* \"#utility.yul\":8547:8569   */\n      lt\n        /* \"#utility.yul\":8526:8544   */\n      0xffffffffffffffff\n        /* \"#utility.yul\":8514:8524   */\n      dup3\n        /* \"#utility.yul\":8511:8545   */\n      gt\n        /* \"#utility.yul\":8508:8570   */\n      or\n        /* \"#utility.yul\":8505:8593   */\n      iszero\n      tag_169\n      jumpi\n        /* \"#utility.yul\":8573:8591   */\n      tag_170\n      tag_142\n      jump\t// in\n    tag_170:\n        /* \"#utility.yul\":8505:8593   */\n    tag_169:\n        /* \"#utility.yul\":8613:8623   */\n      dup1\n        /* \"#utility.yul\":8609:8611   */\n      0x40\n        /* \"#utility.yul\":8602:8624   */\n      mstore\n        /* \"#utility.yul\":8392:8630   */\n      pop\n        /* \"#utility.yul\":8349:8630   */\n      pop\n      pop\n      jump\t// out\n        /* \"#utility.yul\":8636:8715   */\n    tag_122:\n        /* \"#utility.yul\":8675:8682   */\n      0x00\n        /* \"#utility.yul\":8704:8709   */\n      dup2\n        /* \"#utility.yul\":8693:8709   */\n      swap1\n      pop\n        /* \"#utility.yul\":8636:8715   */\n      swap2\n      swap1\n      pop\n      jump\t// out\n        /* \"#utility.yul\":8721:8901   */\n    tag_166:\n        /* \"#utility.yul\":8769:8846   */\n      0x4e487b7100000000000000000000000000000000000000000000000000000000\n        /* \"#utility.yul\":8766:8767   */\n      0x00\n        /* \"#utility.yul\":8759:8847   */\n      mstore\n        /* \"#utility.yul\":8866:8870   */\n      0x22\n        /* \"#utility.yul\":8863:8864   */\n      0x04\n        /* \"#utility.yul\":8856:8871   */\n      mstore\n        /* \"#utility.yul\":8890:8894   */\n      0x24\n        /* \"#utility.yul\":8887:8888   */\n      0x00\n        /* \"#utility.yul\":8880:8895   */\n      revert\n        /* \"#utility.yul\":8907:9087   */\n    tag_142:\n        /* \"#utility.yul\":8955:9032   */\n      0x4e487b7100000000000000000000000000000000000000000000000000000000\n        /* \"#utility.yul\":8952:8953   */\n      0x00\n        /* \"#utility.yul\":8945:9033   */\n      mstore\n        /* \"#utility.yul\":9052:9056   */\n      0x41\n        /* \"#utility.yul\":9049:9050   */\n      0x04\n        /* \"#utility.yul\":9042:9057   */\n      mstore\n        /* \"#utility.yul\":9076:9080   */\n      0x24\n        /* \"#utility.yul\":9073:9074   */\n      0x00\n        /* \"#utility.yul\":9066:9081   */\n      revert\n        /* \"#utility.yul\":9093:9210   */\n    tag_62:\n        /* \"#utility.yul\":9202:9203   */\n      0x00\n        /* \"#utility.yul\":9199:9200   */\n      dup1\n        /* \"#utility.yul\":9192:9204   */\n      revert\n        /* \"#utility.yul\":9216:9333   */\n    tag_55:\n        /* \"#utility.yul\":9325:9326   */\n      0x00\n        /* \"#utility.yul\":9322:9323   */\n      dup1\n        /* \"#utility.yul\":9315:9327   */\n      revert\n        /* \"#utility.yul\":9339:9456   */\n    tag_74:\n        /* \"#utility.yul\":9448:9449   */\n      0x00\n        /* \"#utility.yul\":9445:9446   */\n      dup1\n        /* \"#utility.yul\":9438:9450   */\n      revert\n        /* \"#utility.yul\":9462:9579   */\n    tag_71:\n        /* \"#utility.yul\":9571:9572   */\n      0x00\n        /* \"#utility.yul\":9568:9569   */\n      dup1\n        /* \"#utility.yul\":9561:9573   */\n      revert\n        /* \"#utility.yul\":9585:9687   */\n    tag_110:\n        /* \"#utility.yul\":9626:9632   */\n      0x00\n        /* \"#utility.yul\":9677:9679   */\n      0x1f\n        /* \"#utility.yul\":9673:9680   */\n      not\n        /* \"#utility.yul\":9668:9670   */\n      0x1f\n        /* \"#utility.yul\":9661:9666   */\n      dup4\n        /* \"#utility.yul\":9657:9671   */\n      add\n        /* \"#utility.yul\":9653:9681   */\n      and\n        /* \"#utility.yul\":9643:9681   */\n      swap1\n      pop\n        /* \"#utility.yul\":9585:9687   */\n      swap2\n      swap1\n      pop\n      jump\t// out\n        /* \"#utility.yul\":9693:9815   */\n    tag_67:\n        /* \"#utility.yul\":9766:9790   */\n      tag_180\n        /* \"#utility.yul\":9784:9789   */\n      dup2\n        /* \"#utility.yul\":9766:9790   */\n      tag_121\n      jump\t// in\n    tag_180:\n        /* \"#utility.yul\":9759:9764   */\n      dup2\n        /* \"#utility.yul\":9756:9791   */\n      eq\n        /* \"#utility.yul\":9746:9809   */\n      tag_181\n      jumpi\n        /* \"#utility.yul\":9805:9806   */\n      0x00\n        /* \"#utility.yul\":9802:9803   */\n      dup1\n        /* \"#utility.yul\":9795:9807   */\n      revert\n        /* \"#utility.yul\":9746:9809   */\n    tag_181:\n        /* \"#utility.yul\":9693:9815   */\n      pop\n      jump\t// out\n\n    auxdata: 0xa2646970667358221220ef6eb526616f81d3b232b2847cfbaf9d1f8db26e74c3309c369110353703957664736f6c63430008070033\n}\n",
				"bytecode": {
					"linkReferences": {},
					"object": "6080604052336000806101000a81548173ffffffffffffffffffffffffffffffffffffffff021916908373ffffffffffffffffffffffffffffffffffffffff16021790555034801561005057600080fd5b506107f5806100606000396000f3fe608060405234801561001057600080fd5b50600436106100415760003560e01c80632e9452bc146100465780637e4a58e6146100625780638da5cb5b14610080575b600080fd5b610060600480360381019061005b9190610357565b61009e565b005b61006a610132565b6040516100779190610562565b60405180910390f35b61008861020b565b6040516100959190610547565b60405180910390f35b60008383836040516020016100b593929190610512565b604051602081830303815290604052805190602001209050806001856040516100de91906104fb565b90815260200160405180910390208190555060038490806001815401808255809150506001900390600052602060002001600090919091909150908051906020019061012b92919061022f565b5050505050565b60606003805480602002602001604051908101604052809291908181526020016000905b82821015610202578382906000526020600020018054610175906106b8565b80601f01602080910402602001604051908101604052809291908181526020018280546101a1906106b8565b80156101ee5780601f106101c3576101008083540402835291602001916101ee565b820191906000526020600020905b8154815290600101906020018083116101d157829003601f168201915b505050505081526020019060010190610156565b50505050905090565b60008054906101000a900473ffffffffffffffffffffffffffffffffffffffff1681565b82805461023b906106b8565b90600052602060002090601f01602090048101928261025d57600085556102a4565b82601f1061027657805160ff19168380011785556102a4565b828001600101855582156102a4579182015b828111156102a3578251825591602001919060010190610288565b5b5090506102b191906102b5565b5090565b5b808211156102ce5760008160009055506001016102b6565b5090565b60006102e56102e0846105a9565b610584565b90508281526020810184848401111561030157610300610788565b5b61030c848285610676565b509392505050565b600082601f83011261032957610328610783565b5b81356103398482602086016102d2565b91505092915050565b600081359050610351816107a8565b92915050565b6000806000606084860312156103705761036f610792565b5b600084013567ffffffffffffffff81111561038e5761038d61078d565b5b61039a86828701610314565b93505060206103ab86828701610342565b925050604084013567ffffffffffffffff8111156103cc576103cb61078d565b5b6103d886828701610314565b9150509250925092565b60006103ee838361047a565b905092915050565b6103ff8161063a565b82525050565b6000610410826105ea565b61041a818561060d565b93508360208202850161042c856105da565b8060005b85811015610468578484038952815161044985826103e2565b945061045483610600565b925060208a01995050600181019050610430565b50829750879550505050505092915050565b6000610485826105f5565b61048f818561061e565b935061049f818560208601610685565b6104a881610797565b840191505092915050565b60006104be826105f5565b6104c8818561062f565b93506104d8818560208601610685565b80840191505092915050565b6104f56104f08261066c565b61071b565b82525050565b600061050782846104b3565b915081905092915050565b600061051e82866104b3565b915061052a82856104e4565b60208201915061053a82846104b3565b9150819050949350505050565b600060208201905061055c60008301846103f6565b92915050565b6000602082019050818103600083015261057c8184610405565b905092915050565b600061058e61059f565b905061059a82826106ea565b919050565b6000604051905090565b600067ffffffffffffffff8211156105c4576105c3610754565b5b6105cd82610797565b9050602081019050919050565b6000819050602082019050919050565b600081519050919050565b600081519050919050565b6000602082019050919050565b600082825260208201905092915050565b600082825260208201905092915050565b600081905092915050565b60006106458261064c565b9050919050565b600073ffffffffffffffffffffffffffffffffffffffff82169050919050565b6000819050919050565b82818337600083830152505050565b60005b838110156106a3578082015181840152602081019050610688565b838111156106b2576000848401525b50505050565b600060028204905060018216806106d057607f821691505b602082108114156106e4576106e3610725565b5b50919050565b6106f382610797565b810181811067ffffffffffffffff8211171561071257610711610754565b5b80604052505050565b6000819050919050565b7f4e487b7100000000000000000000000000000000000000000000000000000000600052602260045260246000fd5b7f4e487b7100000000000000000000000000000000000000000000000000000000600052604160045260246000fd5b600080fd5b600080fd5b600080fd5b600080fd5b6000601f19601f8301169050919050565b6107b18161066c565b81146107bc57600080fd5b5056fea2646970667358221220ef6eb526616f81d3b232b2847cfbaf9d1f8db26e74c3309c369110353703957664736f6c63430008070033",
					"opcodes": "PUSH1 0x80 PUSH1 0x40 MSTORE CALLER PUSH1 0x0 DUP1 PUSH2 0x100 EXP DUP2 SLOAD DUP2 PUSH20 0xFFFFFFFFFFFFFFFFFFFFFFFFFFFFFFFFFFFFFFFF MUL NOT AND SWAP1 DUP4 PUSH20 0xFFFFFFFFFFFFFFFFFFFFFFFFFFFFFFFFFFFFFFFF AND MUL OR SWAP1 SSTORE POP CALLVALUE DUP1 ISZERO PUSH2 0x50 JUMPI PUSH1 0x0 DUP1 REVERT JUMPDEST POP PUSH2 0x7F5 DUP1 PUSH2 0x60 PUSH1 0x0 CODECOPY PUSH1 0x0 RETURN INVALID PUSH1 0x80 PUSH1 0x40 MSTORE CALLVALUE DUP1 ISZERO PUSH2 0x10 JUMPI PUSH1 0x0 DUP1 REVERT JUMPDEST POP PUSH1 0x4 CALLDATASIZE LT PUSH2 0x41 JUMPI PUSH1 0x0 CALLDATALOAD PUSH1 0xE0 SHR DUP1 PUSH4 0x2E9452BC EQ PUSH2 0x46 JUMPI DUP1 PUSH4 0x7E4A58E6 EQ PUSH2 0x62 JUMPI DUP1 PUSH4 0x8DA5CB5B EQ PUSH2 0x80 JUMPI JUMPDEST PUSH1 0x0 DUP1 REVERT JUMPDEST PUSH2 0x60 PUSH1 0x4 DUP1 CALLDATASIZE SUB DUP2 ADD SWAP1 PUSH2 0x5B SWAP2 SWAP1 PUSH2 0x357 JUMP JUMPDEST PUSH2 0x9E JUMP JUMPDEST STOP JUMPDEST PUSH2 0x6A PUSH2 0x132 JUMP JUMPDEST PUSH1 0x40 MLOAD PUSH2 0x77 SWAP2 SWAP1 PUSH2 0x562 JUMP JUMPDEST PUSH1 0x40 MLOAD DUP1 SWAP2 SUB SWAP1 RETURN JUMPDEST PUSH2 0x88 PUSH2 0x20B JUMP JUMPDEST PUSH1 0x40 MLOAD PUSH2 0x95 SWAP2 SWAP1 PUSH2 0x547 JUMP JUMPDEST PUSH1 0x40 MLOAD DUP1 SWAP2 SUB SWAP1 RETURN JUMPDEST PUSH1 0x0 DUP4 DUP4 DUP4 PUSH1 0x40 MLOAD PUSH1 0x20 ADD PUSH2 0xB5 SWAP4 SWAP3 SWAP2 SWAP1 PUSH2 0x512 JUMP JUMPDEST PUSH1 0x40 MLOAD PUSH1 0x20 DUP2 DUP4 SUB SUB DUP2 MSTORE SWAP1 PUSH1 0x40 MSTORE DUP1 MLOAD SWAP1 PUSH1 0x20 ADD KECCAK256 SWAP1 POP DUP1 PUSH1 0x1 DUP6 PUSH1 0x40 MLOAD PUSH2 0xDE SWAP2 SWAP1 PUSH2 0x4FB JUMP JUMPDEST SWAP1 DUP2 MSTORE PUSH1 0x20 ADD PUSH1 0x40 MLOAD DUP1 SWAP2 SUB SWAP1 KECCAK256 DUP2 SWAP1 SSTORE POP PUSH1 0x3 DUP5 SWAP1 DUP1 PUSH1 0x1 DUP2 SLOAD ADD DUP1 DUP3 SSTORE DUP1 SWAP2 POP POP PUSH1 0x1 SWAP1 SUB SWAP1 PUSH1 0x0 MSTORE PUSH1 0x20 PUSH1 0x0 KECCAK256 ADD PUSH1 0x0 SWAP1 SWAP2 SWAP1 SWAP2 SWAP1 SWAP2 POP SWAP1 DUP1 MLOAD SWAP1 PUSH1 0x20 ADD SWAP1 PUSH2 0x12B SWAP3 SWAP2 SWAP1 PUSH2 0x22F JUMP JUMPDEST POP POP POP POP POP JUMP JUMPDEST PUSH1 0x60 PUSH1 0x3 DUP1 SLOAD DUP1 PUSH1 0x20 MUL PUSH1 0x20 ADD PUSH1 0x40 MLOAD SWAP1 DUP2 ADD PUSH1 0x40 MSTORE DUP1 SWAP3 SWAP2 SWAP1 DUP2 DUP2 MSTORE PUSH1 0x20 ADD PUSH1 0x0 SWAP1 JUMPDEST DUP3 DUP3 LT ISZERO PUSH2 0x202 JUMPI DUP4 DUP3 SWAP1 PUSH1 0x0 MSTORE PUSH1 0x20 PUSH1 0x0 KECCAK256 ADD DUP1 SLOAD PUSH2 0x175 SWAP1 PUSH2 0x6B8 JUMP JUMPDEST DUP1 PUSH1 0x1F ADD PUSH1 0x20 DUP1 SWAP2 DIV MUL PUSH1 0x20 ADD PUSH1 0x40 MLOAD SWAP1 DUP2 ADD PUSH1 0x40 MSTORE DUP1 SWAP3 SWAP2 SWAP1 DUP2 DUP2 MSTORE PUSH1 0x20 ADD DUP3 DUP1 SLOAD PUSH2 0x1A1 SWAP1 PUSH2 0x6B8 JUMP JUMPDEST DUP1 ISZERO PUSH2 0x1EE JUMPI DUP1 PUSH1 0x1F LT PUSH2 0x1C3 JUMPI PUSH2 0x100 DUP1 DUP4 SLOAD DIV MUL DUP4 MSTORE SWAP2 PUSH1 0x20 ADD SWAP2 PUSH2 0x1EE JUMP JUMPDEST DUP3 ADD SWAP2 SWAP1 PUSH1 0x0 MSTORE PUSH1 0x20 PUSH1 0x0 KECCAK256 SWAP1 JUMPDEST DUP2 SLOAD DUP2 MSTORE SWAP1 PUSH1 0x1 ADD SWAP1 PUSH1 0x20 ADD DUP1 DUP4 GT PUSH2 0x1D1 JUMPI DUP3 SWAP1 SUB PUSH1 0x1F AND DUP3 ADD SWAP2 JUMPDEST POP POP POP POP POP DUP2 MSTORE PUSH1 0x20 ADD SWAP1 PUSH1 0x1 ADD SWAP1 PUSH2 0x156 JUMP JUMPDEST POP POP POP POP SWAP1 POP SWAP1 JUMP JUMPDEST PUSH1 0x0 DUP1 SLOAD SWAP1 PUSH2 0x100 EXP SWAP1 DIV PUSH20 0xFFFFFFFFFFFFFFFFFFFFFFFFFFFFFFFFFFFFFFFF AND DUP2 JUMP JUMPDEST DUP3 DUP1 SLOAD PUSH2 0x23B SWAP1 PUSH2 0x6B8 JUMP JUMPDEST SWAP1 PUSH1 0x0 MSTORE PUSH1 0x20 PUSH1 0x0 KECCAK256 SWAP1 PUSH1 0x1F ADD PUSH1 0x20 SWAP1 DIV DUP2 ADD SWAP3 DUP3 PUSH2 0x25D JUMPI PUSH1 0x0 DUP6 SSTORE PUSH2 0x2A4 JUMP JUMPDEST DUP3 PUSH1 0x1F LT PUSH2 0x276 JUMPI DUP1 MLOAD PUSH1 0xFF NOT AND DUP4 DUP1 ADD OR DUP6 SSTORE PUSH2 0x2A4 JUMP JUMPDEST DUP3 DUP1 ADD PUSH1 0x1 ADD DUP6 SSTORE DUP3 ISZERO PUSH2 0x2A4 JUMPI SWAP2 DUP3 ADD JUMPDEST DUP3 DUP2 GT ISZERO PUSH2 0x2A3 JUMPI DUP3 MLOAD DUP3 SSTORE SWAP2 PUSH1 0x20 ADD SWAP2 SWAP1 PUSH1 0x1 ADD SWAP1 PUSH2 0x288 JUMP JUMPDEST JUMPDEST POP SWAP1 POP PUSH2 0x2B1 SWAP2 SWAP1 PUSH2 0x2B5 JUMP JUMPDEST POP SWAP1 JUMP JUMPDEST JUMPDEST DUP1 DUP3 GT ISZERO PUSH2 0x2CE JUMPI PUSH1 0x0 DUP2 PUSH1 0x0 SWAP1 SSTORE POP PUSH1 0x1 ADD PUSH2 0x2B6 JUMP JUMPDEST POP SWAP1 JUMP JUMPDEST PUSH1 0x0 PUSH2 0x2E5 PUSH2 0x2E0 DUP5 PUSH2 0x5A9 JUMP JUMPDEST PUSH2 0x584 JUMP JUMPDEST SWAP1 POP DUP3 DUP2 MSTORE PUSH1 0x20 DUP2 ADD DUP5 DUP5 DUP5 ADD GT ISZERO PUSH2 0x301 JUMPI PUSH2 0x300 PUSH2 0x788 JUMP JUMPDEST JUMPDEST PUSH2 0x30C DUP5 DUP3 DUP6 PUSH2 0x676 JUMP JUMPDEST POP SWAP4 SWAP3 POP POP POP JUMP JUMPDEST PUSH1 0x0 DUP3 PUSH1 0x1F DUP4 ADD SLT PUSH2 0x329 JUMPI PUSH2 0x328 PUSH2 0x783 JUMP JUMPDEST JUMPDEST DUP2 CALLDATALOAD PUSH2 0x339 DUP5 DUP3 PUSH1 0x20 DUP7 ADD PUSH2 0x2D2 JUMP JUMPDEST SWAP2 POP POP SWAP3 SWAP2 POP POP JUMP JUMPDEST PUSH1 0x0 DUP2 CALLDATALOAD SWAP1 POP PUSH2 0x351 DUP2 PUSH2 0x7A8 JUMP JUMPDEST SWAP3 SWAP2 POP POP JUMP JUMPDEST PUSH1 0x0 DUP1 PUSH1 0x0 PUSH1 0x60 DUP5 DUP7 SUB SLT ISZERO PUSH2 0x370 JUMPI PUSH2 0x36F PUSH2 0x792 JUMP JUMPDEST JUMPDEST PUSH1 0x0 DUP5 ADD CALLDATALOAD PUSH8 0xFFFFFFFFFFFFFFFF DUP2 GT ISZERO PUSH2 0x38E JUMPI PUSH2 0x38D PUSH2 0x78D JUMP JUMPDEST JUMPDEST PUSH2 0x39A DUP7 DUP3 DUP8 ADD PUSH2 0x314 JUMP JUMPDEST SWAP4 POP POP PUSH1 0x20 PUSH2 0x3AB DUP7 DUP3 DUP8 ADD PUSH2 0x342 JUMP JUMPDEST SWAP3 POP POP PUSH1 0x40 DUP5 ADD CALLDATALOAD PUSH8 0xFFFFFFFFFFFFFFFF DUP2 GT ISZERO PUSH2 0x3CC JUMPI PUSH2 0x3CB PUSH2 0x78D JUMP JUMPDEST JUMPDEST PUSH2 0x3D8 DUP7 DUP3 DUP8 ADD PUSH2 0x314 JUMP JUMPDEST SWAP2 POP POP SWAP3 POP SWAP3 POP SWAP3 JUMP JUMPDEST PUSH1 0x0 PUSH2 0x3EE DUP4 DUP4 PUSH2 0x47A JUMP JUMPDEST SWAP1 POP SWAP3 SWAP2 POP POP JUMP JUMPDEST PUSH2 0x3FF DUP2 PUSH2 0x63A JUMP JUMPDEST DUP3 MSTORE POP POP JUMP JUMPDEST PUSH1 0x0 PUSH2 0x410 DUP3 PUSH2 0x5EA JUMP JUMPDEST PUSH2 0x41A DUP2 DUP6 PUSH2 0x60D JUMP JUMPDEST SWAP4 POP DUP4 PUSH1 0x20 DUP3 MUL DUP6 ADD PUSH2 0x42C DUP6 PUSH2 0x5DA JUMP JUMPDEST DUP1 PUSH1 0x0 JUMPDEST DUP6 DUP2 LT ISZERO PUSH2 0x468 JUMPI DUP5 DUP5 SUB DUP10 MSTORE DUP2 MLOAD PUSH2 0x449 DUP6 DUP3 PUSH2 0x3E2 JUMP JUMPDEST SWAP5 POP PUSH2 0x454 DUP4 PUSH2 0x600 JUMP JUMPDEST SWAP3 POP PUSH1 0x20 DUP11 ADD SWAP10 POP POP PUSH1 0x1 DUP2 ADD SWAP1 POP PUSH2 0x430 JUMP JUMPDEST POP DUP3 SWAP8 POP DUP8 SWAP6 POP POP POP POP POP POP SWAP3 SWAP2 POP POP JUMP JUMPDEST PUSH1 0x0 PUSH2 0x485 DUP3 PUSH2 0x5F5 JUMP JUMPDEST PUSH2 0x48F DUP2 DUP6 PUSH2 0x61E JUMP JUMPDEST SWAP4 POP PUSH2 0x49F DUP2 DUP6 PUSH1 0x20 DUP7 ADD PUSH2 0x685 JUMP JUMPDEST PUSH2 0x4A8 DUP2 PUSH2 0x797 JUMP JUMPDEST DUP5 ADD SWAP2 POP POP SWAP3 SWAP2 POP POP JUMP JUMPDEST PUSH1 0x0 PUSH2 0x4BE DUP3 PUSH2 0x5F5 JUMP JUMPDEST PUSH2 0x4C8 DUP2 DUP6 PUSH2 0x62F JUMP JUMPDEST SWAP4 POP PUSH2 0x4D8 DUP2 DUP6 PUSH1 0x20 DUP7 ADD PUSH2 0x685 JUMP JUMPDEST DUP1 DUP5 ADD SWAP2 POP POP SWAP3 SWAP2 POP POP JUMP JUMPDEST PUSH2 0x4F5 PUSH2 0x4F0 DUP3 PUSH2 0x66C JUMP JUMPDEST PUSH2 0x71B JUMP JUMPDEST DUP3 MSTORE POP POP JUMP JUMPDEST PUSH1 0x0 PUSH2 0x507 DUP3 DUP5 PUSH2 0x4B3 JUMP JUMPDEST SWAP2 POP DUP2 SWAP1 POP SWAP3 SWAP2 POP POP JUMP JUMPDEST PUSH1 0x0 PUSH2 0x51E DUP3 DUP7 PUSH2 0x4B3 JUMP JUMPDEST SWAP2 POP PUSH2 0x52A DUP3 DUP6 PUSH2 0x4E4 JUMP JUMPDEST PUSH1 0x20 DUP3 ADD SWAP2 POP PUSH2 0x53A DUP3 DUP5 PUSH2 0x4B3 JUMP JUMPDEST SWAP2 POP DUP2 SWAP1 POP SWAP5 SWAP4 POP POP POP POP JUMP JUMPDEST PUSH1 0x0 PUSH1 0x20 DUP3 ADD SWAP1 POP PUSH2 0x55C PUSH1 0x0 DUP4 ADD DUP5 PUSH2 0x3F6 JUMP JUMPDEST SWAP3 SWAP2 POP POP JUMP JUMPDEST PUSH1 0x0 PUSH1 0x20 DUP3 ADD SWAP1 POP DUP2 DUP2 SUB PUSH1 0x0 DUP4 ADD MSTORE PUSH2 0x57C DUP2 DUP5 PUSH2 0x405 JUMP JUMPDEST SWAP1 POP SWAP3 SWAP2 POP POP JUMP JUMPDEST PUSH1 0x0 PUSH2 0x58E PUSH2 0x59F JUMP JUMPDEST SWAP1 POP PUSH2 0x59A DUP3 DUP3 PUSH2 0x6EA JUMP JUMPDEST SWAP2 SWAP1 POP JUMP JUMPDEST PUSH1 0x0 PUSH1 0x40 MLOAD SWAP1 POP SWAP1 JUMP JUMPDEST PUSH1 0x0 PUSH8 0xFFFFFFFFFFFFFFFF DUP3 GT ISZERO PUSH2 0x5C4 JUMPI PUSH2 0x5C3 PUSH2 0x754 JUMP JUMPDEST JUMPDEST PUSH2 0x5CD DUP3 PUSH2 0x797 JUMP JUMPDEST SWAP1 POP PUSH1 0x20 DUP2 ADD SWAP1 POP SWAP2 SWAP1 POP JUMP JUMPDEST PUSH1 0x0 DUP2 SWAP1 POP PUSH1 0x20 DUP3 ADD SWAP1 POP SWAP2 SWAP1 POP JUMP JUMPDEST PUSH1 0x0 DUP2 MLOAD SWAP1 POP SWAP2 SWAP1 POP JUMP JUMPDEST PUSH1 0x0 DUP2 MLOAD SWAP1 POP SWAP2 SWAP1 POP JUMP JUMPDEST PUSH1 0x0 PUSH1 0x20 DUP3 ADD SWAP1 POP SWAP2 SWAP1 POP JUMP JUMPDEST PUSH1 0x0 DUP3 DUP3 MSTORE PUSH1 0x20 DUP3 ADD SWAP1 POP SWAP3 SWAP2 POP POP JUMP JUMPDEST PUSH1 0x0 DUP3 DUP3 MSTORE PUSH1 0x20 DUP3 ADD SWAP1 POP SWAP3 SWAP2 POP POP JUMP JUMPDEST PUSH1 0x0 DUP2 SWAP1 POP SWAP3 SWAP2 POP POP JUMP JUMPDEST PUSH1 0x0 PUSH2 0x645 DUP3 PUSH2 0x64C JUMP JUMPDEST SWAP1 POP SWAP2 SWAP1 POP JUMP JUMPDEST PUSH1 0x0 PUSH20 0xFFFFFFFFFFFFFFFFFFFFFFFFFFFFFFFFFFFFFFFF DUP3 AND SWAP1 POP SWAP2 SWAP1 POP JUMP JUMPDEST PUSH1 0x0 DUP2 SWAP1 POP SWAP2 SWAP1 POP JUMP JUMPDEST DUP3 DUP2 DUP4 CALLDATACOPY PUSH1 0x0 DUP4 DUP4 ADD MSTORE POP POP POP JUMP JUMPDEST PUSH1 0x0 JUMPDEST DUP4 DUP2 LT ISZERO PUSH2 0x6A3 JUMPI DUP1 DUP3 ADD MLOAD DUP2 DUP5 ADD MSTORE PUSH1 0x20 DUP2 ADD SWAP1 POP PUSH2 0x688 JUMP JUMPDEST DUP4 DUP2 GT ISZERO PUSH2 0x6B2 JUMPI PUSH1 0x0 DUP5 DUP5 ADD MSTORE JUMPDEST POP POP POP POP JUMP JUMPDEST PUSH1 0x0 PUSH1 0x2 DUP3 DIV SWAP1 POP PUSH1 0x1 DUP3 AND DUP1 PUSH2 0x6D0 JUMPI PUSH1 0x7F DUP3 AND SWAP2 POP JUMPDEST PUSH1 0x20 DUP3 LT DUP2 EQ ISZERO PUSH2 0x6E4 JUMPI PUSH2 0x6E3 PUSH2 0x725 JUMP JUMPDEST JUMPDEST POP SWAP2 SWAP1 POP JUMP JUMPDEST PUSH2 0x6F3 DUP3 PUSH2 0x797 JUMP JUMPDEST DUP2 ADD DUP2 DUP2 LT PUSH8 0xFFFFFFFFFFFFFFFF DUP3 GT OR ISZERO PUSH2 0x712 JUMPI PUSH2 0x711 PUSH2 0x754 JUMP JUMPDEST JUMPDEST DUP1 PUSH1 0x40 MSTORE POP POP POP JUMP JUMPDEST PUSH1 0x0 DUP2 SWAP1 POP SWAP2 SWAP1 POP JUMP JUMPDEST PUSH32 0x4E487B7100000000000000000000000000000000000000000000000000000000 PUSH1 0x0 MSTORE PUSH1 0x22 PUSH1 0x4 MSTORE PUSH1 0x24 PUSH1 0x0 REVERT JUMPDEST PUSH32 0x4E487B7100000000000000000000000000000000000000000000000000000000 PUSH1 0x0 MSTORE PUSH1 0x41 PUSH1 0x4 MSTORE PUSH1 0x24 PUSH1 0x0 REVERT JUMPDEST PUSH1 0x0 DUP1 REVERT JUMPDEST PUSH1 0x0 DUP1 REVERT JUMPDEST PUSH1 0x0 DUP1 REVERT JUMPDEST PUSH1 0x0 DUP1 REVERT JUMPDEST PUSH1 0x0 PUSH1 0x1F NOT PUSH1 0x1F DUP4 ADD AND SWAP1 POP SWAP2 SWAP1 POP JUMP JUMPDEST PUSH2 0x7B1 DUP2 PUSH2 0x66C JUMP JUMPDEST DUP2 EQ PUSH2 0x7BC JUMPI PUSH1 0x0 DUP1 REVERT JUMPDEST POP JUMP INVALID LOG2 PUSH5 0x6970667358 0x22 SLT KECCAK256 0xEF PUSH15 0xB526616F81D3B232B2847CFBAF9D1F DUP14 0xB2 PUSH15 0x74C3309C369110353703957664736F PUSH13 0x63430008070033000000000000 "
				},
				"gasEstimates": {
					"creation": {
						"codeDepositCost": "407400",
						"executionCost": "24709",
						"totalCost": "432109"
					},
					"external": {
						"owner()": "2533",
						"representar(string,uint256,string)": "infinite",
						"varCandidatos()": "infinite"
					}
				},
				"methodIdentifiers": {
					"owner()": "8da5cb5b",
					"representar(string,uint256,string)": "2e9452bc",
					"varCandidatos()": "7e4a58e6"
				}
			},
			"storageLayout": {
				"storage": [
					{
						"astId": 6,
						"contract": "VOTACIONES/votaciones.sol:votacion",
						"label": "owner",
						"offset": 0,
						"slot": "0",
						"type": "t_address"
					},
					{
						"astId": 10,
						"contract": "VOTACIONES/votaciones.sol:votacion",
						"label": "ID_Candidato",
						"offset": 0,
						"slot": "1",
						"type": "t_mapping(t_string_memory_ptr,t_bytes32)"
					},
					{
						"astId": 14,
						"contract": "VOTACIONES/votaciones.sol:votacion",
						"label": "Votos_Candidato",
						"offset": 0,
						"slot": "2",
						"type": "t_mapping(t_string_memory_ptr,t_uint256)"
					},
					{
						"astId": 17,
						"contract": "VOTACIONES/votaciones.sol:votacion",
						"label": "listaCandidatos",
						"offset": 0,
						"slot": "3",
						"type": "t_array(t_string_storage)dyn_storage"
					},
					{
						"astId": 20,
						"contract": "VOTACIONES/votaciones.sol:votacion",
						"label": "listaVotantes",
						"offset": 0,
						"slot": "4",
						"type": "t_array(t_bytes32)dyn_storage"
					}
				],
				"types": {
					"t_address": {
						"encoding": "inplace",
						"label": "address",
						"numberOfBytes": "20"
					},
					"t_array(t_bytes32)dyn_storage": {
						"base": "t_bytes32",
						"encoding": "dynamic_array",
						"label": "bytes32[]",
						"numberOfBytes": "32"
					},
					"t_array(t_string_storage)dyn_storage": {
						"base": "t_string_storage",
						"encoding": "dynamic_array",
						"label": "string[]",
						"numberOfBytes": "32"
					},
					"t_bytes32": {
						"encoding": "inplace",
						"label": "bytes32",
						"numberOfBytes": "32"
					},
					"t_mapping(t_string_memory_ptr,t_bytes32)": {
						"encoding": "mapping",
						"key": "t_string_memory_ptr",
						"label": "mapping(string => bytes32)",
						"numberOfBytes": "32",
						"value": "t_bytes32"
					},
					"t_mapping(t_string_memory_ptr,t_uint256)": {
						"encoding": "mapping",
						"key": "t_string_memory_ptr",
						"label": "mapping(string => uint256)",
						"numberOfBytes": "32",
						"value": "t_uint256"
					},
					"t_string_memory_ptr": {
						"encoding": "bytes",
						"label": "string",
						"numberOfBytes": "32"
					},
					"t_string_storage": {
						"encoding": "bytes",
						"label": "string",
						"numberOfBytes": "32"
					},
					"t_uint256": {
						"encoding": "inplace",
						"label": "uint256",
						"numberOfBytes": "32"
					}
				}
			},
			"userdoc": {
				"kind": "user",
				"methods": {},
				"version": 1
			}
		}
	}
}