{
	"VOTACIONES/votaciones.sol": {
		"votacion": {
			"abi": [
				{
					"inputs": [],
					"name": "ganador",
					"outputs": [
						{
							"internalType": "string",
							"name": "",
							"type": "string"
						}
					],
					"stateMutability": "view",
					"type": "function"
				},
				{
					"inputs": [
						{
							"internalType": "string",
							"name": "_nombre",
							"type": "string"
						},
						{
							"internalType": "uint256",
							"name": "_edad",
							"type": "uint256"
						},
						{
							"internalType": "string",
							"name": "_id",
							"type": "string"
						}
					],
					"name": "representar",
					"outputs": [],
					"stateMutability": "nonpayable",
					"type": "function"
				},
				{
					"inputs": [],
					"name": "varCandidatos",
					"outputs": [
						{
							"internalType": "string[]",
							"name": "",
							"type": "string[]"
						}
					],
					"stateMutability": "view",
					"type": "function"
				},
				{
					"inputs": [],
					"name": "verResultado",
					"outputs": [
						{
							"internalType": "string",
							"name": "",
							"type": "string"
						}
					],
					"stateMutability": "view",
					"type": "function"
				},
				{
					"inputs": [
						{
							"internalType": "string",
							"name": "_nombre",
							"type": "string"
						}
					],
					"name": "verVotos",
					"outputs": [
						{
							"internalType": "uint256",
							"name": "",
							"type": "uint256"
						}
					],
					"stateMutability": "view",
					"type": "function"
				},
				{
					"inputs": [
						{
							"internalType": "string",
							"name": "_nombre",
							"type": "string"
						}
					],
					"name": "votar",
					"outputs": [],
					"stateMutability": "nonpayable",
					"type": "function"
				}
			],
			"devdoc": {
				"kind": "dev",
				"methods": {},
				"version": 1
			},
			"evm": {
				"assembly": "    /* \"VOTACIONES/votaciones.sol\":102:5617  contract votacion {\r... */\n  mstore(0x40, 0x80)\n    /* \"VOTACIONES/votaciones.sol\":192:202  msg.sender */\n  caller\n    /* \"VOTACIONES/votaciones.sol\":176:202  address owner = msg.sender */\n  0x00\n  dup1\n  0x0100\n  exp\n  dup2\n  sload\n  dup2\n  0xffffffffffffffffffffffffffffffffffffffff\n  mul\n  not\n  and\n  swap1\n  dup4\n  0xffffffffffffffffffffffffffffffffffffffff\n  and\n  mul\n  or\n  swap1\n  sstore\n  pop\n    /* \"VOTACIONES/votaciones.sol\":102:5617  contract votacion {\r... */\n  callvalue\n  dup1\n  iszero\n  tag_1\n  jumpi\n  0x00\n  dup1\n  revert\ntag_1:\n  pop\n  dataSize(sub_0)\n  dup1\n  dataOffset(sub_0)\n  0x00\n  codecopy\n  0x00\n  return\nstop\n\nsub_0: assembly {\n        /* \"VOTACIONES/votaciones.sol\":102:5617  contract votacion {\r... */\n      mstore(0x40, 0x80)\n      callvalue\n      dup1\n      iszero\n      tag_1\n      jumpi\n      0x00\n      dup1\n      revert\n    tag_1:\n      pop\n      jumpi(tag_2, lt(calldatasize, 0x04))\n      shr(0xe0, calldataload(0x00))\n      dup1\n      0x25277cc0\n      eq\n      tag_3\n      jumpi\n      dup1\n      0x2e9452bc\n      eq\n      tag_4\n      jumpi\n      dup1\n      0x60df75d4\n      eq\n      tag_5\n      jumpi\n      dup1\n      0x7e4a58e6\n      eq\n      tag_6\n      jumpi\n      dup1\n      0x9114bde8\n      eq\n      tag_7\n      jumpi\n      dup1\n      0xce3fe641\n      eq\n      tag_8\n      jumpi\n    tag_2:\n      0x00\n      dup1\n      revert\n        /* \"VOTACIONES/votaciones.sol\":3902:4410  function verResultado() public view returns(string memory){\r... */\n    tag_3:\n      tag_9\n      tag_10\n      jump\t// in\n    tag_9:\n      mload(0x40)\n      tag_11\n      swap2\n      swap1\n      tag_12\n      jump\t// in\n    tag_11:\n      mload(0x40)\n      dup1\n      swap2\n      sub\n      swap1\n      return\n        /* \"VOTACIONES/votaciones.sol\":647:1077  function representar(string memory _nombre, uint _edad, string memory _id) public {\r... */\n    tag_4:\n      tag_13\n      0x04\n      dup1\n      calldatasize\n      sub\n      dup2\n      add\n      swap1\n      tag_14\n      swap2\n      swap1\n      tag_15\n      jump\t// in\n    tag_14:\n      tag_16\n      jump\t// in\n    tag_13:\n      stop\n        /* \"VOTACIONES/votaciones.sol\":1734:1871  function verVotos(string memory _nombre)public view VotoCorrecto(_nombre) returns(uint){\r... */\n    tag_5:\n      tag_17\n      0x04\n      dup1\n      calldatasize\n      sub\n      dup2\n      add\n      swap1\n      tag_18\n      swap2\n      swap1\n      tag_19\n      jump\t// in\n    tag_18:\n      tag_20\n      jump\t// in\n    tag_17:\n      mload(0x40)\n      tag_21\n      swap2\n      swap1\n      tag_22\n      jump\t// in\n    tag_21:\n      mload(0x40)\n      dup1\n      swap2\n      sub\n      swap1\n      return\n        /* \"VOTACIONES/votaciones.sol\":1129:1292  function varCandidatos() public view returns(string[] memory){\r... */\n    tag_6:\n      tag_23\n      tag_24\n      jump\t// in\n    tag_23:\n      mload(0x40)\n      tag_25\n      swap2\n      swap1\n      tag_26\n      jump\t// in\n    tag_25:\n      mload(0x40)\n      dup1\n      swap2\n      sub\n      swap1\n      return\n        /* \"VOTACIONES/votaciones.sol\":4469:5612  function ganador() public view returns(string memory){\r... */\n    tag_7:\n      tag_27\n      tag_28\n      jump\t// in\n    tag_27:\n      mload(0x40)\n      tag_29\n      swap2\n      swap1\n      tag_12\n      jump\t// in\n    tag_29:\n      mload(0x40)\n      dup1\n      swap2\n      sub\n      swap1\n      return\n        /* \"VOTACIONES/votaciones.sol\":1300:1726  function votar(string memory _nombre) public VotoUnico() VotoCorrecto(_nombre) {\r... */\n    tag_8:\n      tag_30\n      0x04\n      dup1\n      calldatasize\n      sub\n      dup2\n      add\n      swap1\n      tag_31\n      swap2\n      swap1\n      tag_19\n      jump\t// in\n    tag_31:\n      tag_32\n      jump\t// in\n    tag_30:\n      stop\n        /* \"VOTACIONES/votaciones.sol\":3902:4410  function verResultado() public view returns(string memory){\r... */\n    tag_10:\n        /* \"VOTACIONES/votaciones.sol\":3946:3959  string memory */\n      0x60\n        /* \"VOTACIONES/votaciones.sol\":4012:4036  string memory resultados */\n      0x00\n        /* \"VOTACIONES/votaciones.sol\":4012:4041  string memory resultados = \"\" */\n      mload(0x40)\n      dup1\n      0x20\n      add\n      0x40\n      mstore\n      dup1\n      0x00\n      dup2\n      mstore\n      pop\n      swap1\n      pop\n        /* \"VOTACIONES/votaciones.sol\":4107:4113  uint i */\n      0x00\n        /* \"VOTACIONES/votaciones.sol\":4103:4373  for(uint i=0; i<listaCandidatos.length; i++){\r... */\n    tag_34:\n        /* \"VOTACIONES/votaciones.sol\":4119:4134  listaCandidatos */\n      0x03\n        /* \"VOTACIONES/votaciones.sol\":4119:4141  listaCandidatos.length */\n      dup1\n      sload\n      swap1\n      pop\n        /* \"VOTACIONES/votaciones.sol\":4117:4118  i */\n      dup2\n        /* \"VOTACIONES/votaciones.sol\":4117:4141  i<listaCandidatos.length */\n      lt\n        /* \"VOTACIONES/votaciones.sol\":4103:4373  for(uint i=0; i<listaCandidatos.length; i++){\r... */\n      iszero\n      tag_35\n      jumpi\n        /* \"VOTACIONES/votaciones.sol\":4199:4209  resultados */\n      dup2\n        /* \"VOTACIONES/votaciones.sol\":4210:4225  listaCandidatos */\n      0x03\n        /* \"VOTACIONES/votaciones.sol\":4226:4227  i */\n      dup3\n        /* \"VOTACIONES/votaciones.sol\":4210:4228  listaCandidatos[i] */\n      dup2\n      sload\n      dup2\n      lt\n      tag_37\n      jumpi\n      tag_38\n      tag_39\n      jump\t// in\n    tag_38:\n    tag_37:\n      swap1\n      0x00\n      mstore\n      keccak256(0x00, 0x20)\n      add\n        /* \"VOTACIONES/votaciones.sol\":4235:4273  uint2str(verVotos(listaCandidatos[i])) */\n      tag_41\n        /* \"VOTACIONES/votaciones.sol\":4244:4272  verVotos(listaCandidatos[i]) */\n      tag_42\n        /* \"VOTACIONES/votaciones.sol\":4253:4268  listaCandidatos */\n      0x03\n        /* \"VOTACIONES/votaciones.sol\":4269:4270  i */\n      dup6\n        /* \"VOTACIONES/votaciones.sol\":4253:4271  listaCandidatos[i] */\n      dup2\n      sload\n      dup2\n      lt\n      tag_43\n      jumpi\n      tag_44\n      tag_39\n      jump\t// in\n    tag_44:\n    tag_43:\n      swap1\n      0x00\n      mstore\n      keccak256(0x00, 0x20)\n      add\n        /* \"VOTACIONES/votaciones.sol\":4244:4272  verVotos(listaCandidatos[i]) */\n      dup1\n      sload\n      tag_46\n      swap1\n      tag_47\n      jump\t// in\n    tag_46:\n      dup1\n      0x1f\n      add\n      0x20\n      dup1\n      swap2\n      div\n      mul\n      0x20\n      add\n      mload(0x40)\n      swap1\n      dup2\n      add\n      0x40\n      mstore\n      dup1\n      swap3\n      swap2\n      swap1\n      dup2\n      dup2\n      mstore\n      0x20\n      add\n      dup3\n      dup1\n      sload\n      tag_48\n      swap1\n      tag_47\n      jump\t// in\n    tag_48:\n      dup1\n      iszero\n      tag_49\n      jumpi\n      dup1\n      0x1f\n      lt\n      tag_50\n      jumpi\n      0x0100\n      dup1\n      dup4\n      sload\n      div\n      mul\n      dup4\n      mstore\n      swap2\n      0x20\n      add\n      swap2\n      jump(tag_49)\n    tag_50:\n      dup3\n      add\n      swap2\n      swap1\n      0x00\n      mstore\n      keccak256(0x00, 0x20)\n      swap1\n    tag_51:\n      dup2\n      sload\n      dup2\n      mstore\n      swap1\n      0x01\n      add\n      swap1\n      0x20\n      add\n      dup1\n      dup4\n      gt\n      tag_51\n      jumpi\n      dup3\n      swap1\n      sub\n      0x1f\n      and\n      dup3\n      add\n      swap2\n    tag_49:\n      pop\n      pop\n      pop\n      pop\n      pop\n        /* \"VOTACIONES/votaciones.sol\":4244:4252  verVotos */\n      tag_20\n        /* \"VOTACIONES/votaciones.sol\":4244:4272  verVotos(listaCandidatos[i]) */\n      jump\t// in\n    tag_42:\n        /* \"VOTACIONES/votaciones.sol\":4235:4243  uint2str */\n      tag_52\n        /* \"VOTACIONES/votaciones.sol\":4235:4273  uint2str(verVotos(listaCandidatos[i])) */\n      jump\t// in\n    tag_41:\n        /* \"VOTACIONES/votaciones.sol\":4182:4280  abi.encodePacked(resultados,listaCandidatos[i],\" = \",uint2str(verVotos(listaCandidatos[i])),\" | \") */\n      add(0x20, mload(0x40))\n      tag_53\n      swap4\n      swap3\n      swap2\n      swap1\n      tag_54\n      jump\t// in\n    tag_53:\n      mload(0x40)\n      0x20\n      dup2\n      dup4\n      sub\n      sub\n      dup2\n      mstore\n      swap1\n      0x40\n      mstore\n        /* \"VOTACIONES/votaciones.sol\":4162:4281  resultados = string(abi.encodePacked(resultados,listaCandidatos[i],\" = \",uint2str(verVotos(listaCandidatos[i])),\" | \")) */\n      swap2\n      pop\n        /* \"VOTACIONES/votaciones.sol\":4143:4146  i++ */\n      dup1\n      dup1\n      tag_55\n      swap1\n      tag_56\n      jump\t// in\n    tag_55:\n      swap2\n      pop\n      pop\n        /* \"VOTACIONES/votaciones.sol\":4103:4373  for(uint i=0; i<listaCandidatos.length; i++){\r... */\n      jump(tag_34)\n    tag_35:\n      pop\n        /* \"VOTACIONES/votaciones.sol\":4392:4402  resultados */\n      dup1\n        /* \"VOTACIONES/votaciones.sol\":4385:4402  return resultados */\n      swap2\n      pop\n      pop\n        /* \"VOTACIONES/votaciones.sol\":3902:4410  function verResultado() public view returns(string memory){\r... */\n      swap1\n      jump\t// out\n        /* \"VOTACIONES/votaciones.sol\":647:1077  function representar(string memory _nombre, uint _edad, string memory _id) public {\r... */\n    tag_16:\n        /* \"VOTACIONES/votaciones.sol\":782:803  bytes32 hashCandidato */\n      0x00\n        /* \"VOTACIONES/votaciones.sol\":833:840  _nombre */\n      dup4\n        /* \"VOTACIONES/votaciones.sol\":842:847  _edad */\n      dup4\n        /* \"VOTACIONES/votaciones.sol\":849:852  _id */\n      dup4\n        /* \"VOTACIONES/votaciones.sol\":816:853  abi.encodePacked(_nombre, _edad, _id) */\n      add(0x20, mload(0x40))\n      tag_58\n      swap4\n      swap3\n      swap2\n      swap1\n      tag_59\n      jump\t// in\n    tag_58:\n      mload(0x40)\n      0x20\n      dup2\n      dup4\n      sub\n      sub\n      dup2\n      mstore\n      swap1\n      0x40\n      mstore\n        /* \"VOTACIONES/votaciones.sol\":806:854  keccak256(abi.encodePacked(_nombre, _edad, _id)) */\n      dup1\n      mload\n      swap1\n      0x20\n      add\n      keccak256\n        /* \"VOTACIONES/votaciones.sol\":782:854  bytes32 hashCandidato = keccak256(abi.encodePacked(_nombre, _edad, _id)) */\n      swap1\n      pop\n        /* \"VOTACIONES/votaciones.sol\":967:980  hashCandidato */\n      dup1\n        /* \"VOTACIONES/votaciones.sol\":943:955  ID_Candidato */\n      0x01\n        /* \"VOTACIONES/votaciones.sol\":956:963  _nombre */\n      dup6\n        /* \"VOTACIONES/votaciones.sol\":943:964  ID_Candidato[_nombre] */\n      mload(0x40)\n      tag_60\n      swap2\n      swap1\n      tag_61\n      jump\t// in\n    tag_60:\n      swap1\n      dup2\n      mstore\n      0x20\n      add\n      mload(0x40)\n      dup1\n      swap2\n      sub\n      swap1\n      keccak256\n        /* \"VOTACIONES/votaciones.sol\":943:980  ID_Candidato[_nombre] = hashCandidato */\n      dup2\n      swap1\n      sstore\n      pop\n        /* \"VOTACIONES/votaciones.sol\":1040:1055  listaCandidatos */\n      0x03\n        /* \"VOTACIONES/votaciones.sol\":1061:1068  _nombre */\n      dup5\n        /* \"VOTACIONES/votaciones.sol\":1040:1069  listaCandidatos.push(_nombre) */\n      swap1\n      dup1\n      0x01\n      dup2\n      sload\n      add\n      dup1\n      dup3\n      sstore\n      dup1\n      swap2\n      pop\n      pop\n      0x01\n      swap1\n      sub\n      swap1\n      0x00\n      mstore\n      keccak256(0x00, 0x20)\n      add\n      0x00\n      swap1\n      swap2\n      swap1\n      swap2\n      swap1\n      swap2\n      pop\n      swap1\n      dup1\n      mload\n      swap1\n      0x20\n      add\n      swap1\n      tag_63\n      swap3\n      swap2\n      swap1\n      tag_64\n      jump\t// in\n    tag_63:\n      pop\n        /* \"VOTACIONES/votaciones.sol\":729:1077  {\r... */\n      pop\n        /* \"VOTACIONES/votaciones.sol\":647:1077  function representar(string memory _nombre, uint _edad, string memory _id) public {\r... */\n      pop\n      pop\n      pop\n      jump\t// out\n        /* \"VOTACIONES/votaciones.sol\":1734:1871  function verVotos(string memory _nombre)public view VotoCorrecto(_nombre) returns(uint){\r... */\n    tag_20:\n        /* \"VOTACIONES/votaciones.sol\":1816:1820  uint */\n      0x00\n        /* \"VOTACIONES/votaciones.sol\":1799:1806  _nombre */\n      dup2\n        /* \"VOTACIONES/votaciones.sol\":2512:2534  bytes32 hash_Candidato */\n      0x00\n        /* \"VOTACIONES/votaciones.sol\":2564:2571  _nombre */\n      dup2\n        /* \"VOTACIONES/votaciones.sol\":2547:2572  abi.encodePacked(_nombre) */\n      add(0x20, mload(0x40))\n      tag_66\n      swap2\n      swap1\n      tag_61\n      jump\t// in\n    tag_66:\n      mload(0x40)\n      0x20\n      dup2\n      dup4\n      sub\n      sub\n      dup2\n      mstore\n      swap1\n      0x40\n      mstore\n        /* \"VOTACIONES/votaciones.sol\":2537:2573  keccak256(abi.encodePacked(_nombre)) */\n      dup1\n      mload\n      swap1\n      0x20\n      add\n      keccak256\n        /* \"VOTACIONES/votaciones.sol\":2512:2573  bytes32 hash_Candidato = keccak256(abi.encodePacked(_nombre)) */\n      swap1\n      pop\n        /* \"VOTACIONES/votaciones.sol\":2626:2650  bool candidatoEncontrado */\n      0x00\n        /* \"VOTACIONES/votaciones.sol\":2762:2768  uint i */\n      dup1\n        /* \"VOTACIONES/votaciones.sol\":2758:3052  for(uint i=0; i<listaCandidatos.length; i++){\r... */\n    tag_67:\n        /* \"VOTACIONES/votaciones.sol\":2774:2789  listaCandidatos */\n      0x03\n        /* \"VOTACIONES/votaciones.sol\":2774:2796  listaCandidatos.length */\n      dup1\n      sload\n      swap1\n      pop\n        /* \"VOTACIONES/votaciones.sol\":2772:2773  i */\n      dup2\n        /* \"VOTACIONES/votaciones.sol\":2772:2796  i<listaCandidatos.length */\n      lt\n        /* \"VOTACIONES/votaciones.sol\":2758:3052  for(uint i=0; i<listaCandidatos.length; i++){\r... */\n      iszero\n      tag_68\n      jumpi\n        /* \"VOTACIONES/votaciones.sol\":2965:2979  hash_Candidato */\n      dup3\n        /* \"VOTACIONES/votaciones.sol\":2941:2956  listaCandidatos */\n      0x03\n        /* \"VOTACIONES/votaciones.sol\":2957:2958  i */\n      dup3\n        /* \"VOTACIONES/votaciones.sol\":2941:2959  listaCandidatos[i] */\n      dup2\n      sload\n      dup2\n      lt\n      tag_70\n      jumpi\n      tag_71\n      tag_39\n      jump\t// in\n    tag_71:\n    tag_70:\n      swap1\n      0x00\n      mstore\n      keccak256(0x00, 0x20)\n      add\n        /* \"VOTACIONES/votaciones.sol\":2924:2960  abi.encodePacked(listaCandidatos[i]) */\n      add(0x20, mload(0x40))\n      tag_73\n      swap2\n      swap1\n      tag_74\n      jump\t// in\n    tag_73:\n      mload(0x40)\n      0x20\n      dup2\n      dup4\n      sub\n      sub\n      dup2\n      mstore\n      swap1\n      0x40\n      mstore\n        /* \"VOTACIONES/votaciones.sol\":2914:2961  keccak256(abi.encodePacked(listaCandidatos[i])) */\n      dup1\n      mload\n      swap1\n      0x20\n      add\n      keccak256\n        /* \"VOTACIONES/votaciones.sol\":2914:2979  keccak256(abi.encodePacked(listaCandidatos[i])) == hash_Candidato */\n      eq\n        /* \"VOTACIONES/votaciones.sol\":2911:3041  if(keccak256(abi.encodePacked(listaCandidatos[i])) == hash_Candidato){\r... */\n      iszero\n      tag_75\n      jumpi\n        /* \"VOTACIONES/votaciones.sol\":3021:3025  true */\n      0x01\n        /* \"VOTACIONES/votaciones.sol\":2999:3025  candidatoEncontrado = true */\n      swap2\n      pop\n        /* \"VOTACIONES/votaciones.sol\":2911:3041  if(keccak256(abi.encodePacked(listaCandidatos[i])) == hash_Candidato){\r... */\n    tag_75:\n        /* \"VOTACIONES/votaciones.sol\":2798:2801  i++ */\n      dup1\n      dup1\n      tag_76\n      swap1\n      tag_56\n      jump\t// in\n    tag_76:\n      swap2\n      pop\n      pop\n        /* \"VOTACIONES/votaciones.sol\":2758:3052  for(uint i=0; i<listaCandidatos.length; i++){\r... */\n      jump(tag_67)\n    tag_68:\n      pop\n        /* \"VOTACIONES/votaciones.sol\":3141:3160  candidatoEncontrado */\n      dup1\n        /* \"VOTACIONES/votaciones.sol\":3133:3193  require(candidatoEncontrado, \"No se encuentra al candidato\") */\n      tag_77\n      jumpi\n      mload(0x40)\n      0x08c379a000000000000000000000000000000000000000000000000000000000\n      dup2\n      mstore\n      0x04\n      add\n      tag_78\n      swap1\n      tag_79\n      jump\t// in\n    tag_78:\n      mload(0x40)\n      dup1\n      swap2\n      sub\n      swap1\n      revert\n    tag_77:\n        /* \"VOTACIONES/votaciones.sol\":1839:1854  Votos_Candidato */\n      0x02\n        /* \"VOTACIONES/votaciones.sol\":1855:1862  _nombre */\n      dup6\n        /* \"VOTACIONES/votaciones.sol\":1839:1863  Votos_Candidato[_nombre] */\n      mload(0x40)\n      tag_81\n      swap2\n      swap1\n      tag_61\n      jump\t// in\n    tag_81:\n      swap1\n      dup2\n      mstore\n      0x20\n      add\n      mload(0x40)\n      dup1\n      swap2\n      sub\n      swap1\n      keccak256\n      sload\n        /* \"VOTACIONES/votaciones.sol\":1832:1863  return Votos_Candidato[_nombre] */\n      swap4\n      pop\n        /* \"VOTACIONES/votaciones.sol\":2457:3213  {\r... */\n      pop\n      pop\n        /* \"VOTACIONES/votaciones.sol\":1734:1871  function verVotos(string memory _nombre)public view VotoCorrecto(_nombre) returns(uint){\r... */\n      pop\n      swap2\n      swap1\n      pop\n      jump\t// out\n        /* \"VOTACIONES/votaciones.sol\":1129:1292  function varCandidatos() public view returns(string[] memory){\r... */\n    tag_24:\n        /* \"VOTACIONES/votaciones.sol\":1174:1189  string[] memory */\n      0x60\n        /* \"VOTACIONES/votaciones.sol\":1269:1284  listaCandidatos */\n      0x03\n        /* \"VOTACIONES/votaciones.sol\":1262:1284  return listaCandidatos */\n      dup1\n      sload\n      dup1\n      0x20\n      mul\n      0x20\n      add\n      mload(0x40)\n      swap1\n      dup2\n      add\n      0x40\n      mstore\n      dup1\n      swap3\n      swap2\n      swap1\n      dup2\n      dup2\n      mstore\n      0x20\n      add\n      0x00\n      swap1\n    tag_83:\n      dup3\n      dup3\n      lt\n      iszero\n      tag_84\n      jumpi\n      dup4\n      dup3\n      swap1\n      0x00\n      mstore\n      keccak256(0x00, 0x20)\n      add\n      dup1\n      sload\n      tag_86\n      swap1\n      tag_47\n      jump\t// in\n    tag_86:\n      dup1\n      0x1f\n      add\n      0x20\n      dup1\n      swap2\n      div\n      mul\n      0x20\n      add\n      mload(0x40)\n      swap1\n      dup2\n      add\n      0x40\n      mstore\n      dup1\n      swap3\n      swap2\n      swap1\n      dup2\n      dup2\n      mstore\n      0x20\n      add\n      dup3\n      dup1\n      sload\n      tag_87\n      swap1\n      tag_47\n      jump\t// in\n    tag_87:\n      dup1\n      iszero\n      tag_88\n      jumpi\n      dup1\n      0x1f\n      lt\n      tag_89\n      jumpi\n      0x0100\n      dup1\n      dup4\n      sload\n      div\n      mul\n      dup4\n      mstore\n      swap2\n      0x20\n      add\n      swap2\n      jump(tag_88)\n    tag_89:\n      dup3\n      add\n      swap2\n      swap1\n      0x00\n      mstore\n      keccak256(0x00, 0x20)\n      swap1\n    tag_90:\n      dup2\n      sload\n      dup2\n      mstore\n      swap1\n      0x01\n      add\n      swap1\n      0x20\n      add\n      dup1\n      dup4\n      gt\n      tag_90\n      jumpi\n      dup3\n      swap1\n      sub\n      0x1f\n      and\n      dup3\n      add\n      swap2\n    tag_88:\n      pop\n      pop\n      pop\n      pop\n      pop\n      dup2\n      mstore\n      0x20\n      add\n      swap1\n      0x01\n      add\n      swap1\n      jump(tag_83)\n    tag_84:\n      pop\n      pop\n      pop\n      pop\n      swap1\n      pop\n        /* \"VOTACIONES/votaciones.sol\":1129:1292  function varCandidatos() public view returns(string[] memory){\r... */\n      swap1\n      jump\t// out\n        /* \"VOTACIONES/votaciones.sol\":4469:5612  function ganador() public view returns(string memory){\r... */\n    tag_28:\n        /* \"VOTACIONES/votaciones.sol\":4508:4521  string memory */\n      0x60\n        /* \"VOTACIONES/votaciones.sol\":4605:4631  string memory ganadorVotos */\n      0x00\n        /* \"VOTACIONES/votaciones.sol\":4634:4649  listaCandidatos */\n      0x03\n        /* \"VOTACIONES/votaciones.sol\":4650:4651  0 */\n      0x00\n        /* \"VOTACIONES/votaciones.sol\":4634:4652  listaCandidatos[0] */\n      dup2\n      sload\n      dup2\n      lt\n      tag_92\n      jumpi\n      tag_93\n      tag_39\n      jump\t// in\n    tag_93:\n    tag_92:\n      swap1\n      0x00\n      mstore\n      keccak256(0x00, 0x20)\n      add\n        /* \"VOTACIONES/votaciones.sol\":4605:4652  string memory ganadorVotos = listaCandidatos[0] */\n      dup1\n      sload\n      tag_95\n      swap1\n      tag_47\n      jump\t// in\n    tag_95:\n      dup1\n      0x1f\n      add\n      0x20\n      dup1\n      swap2\n      div\n      mul\n      0x20\n      add\n      mload(0x40)\n      swap1\n      dup2\n      add\n      0x40\n      mstore\n      dup1\n      swap3\n      swap2\n      swap1\n      dup2\n      dup2\n      mstore\n      0x20\n      add\n      dup3\n      dup1\n      sload\n      tag_96\n      swap1\n      tag_47\n      jump\t// in\n    tag_96:\n      dup1\n      iszero\n      tag_97\n      jumpi\n      dup1\n      0x1f\n      lt\n      tag_98\n      jumpi\n      0x0100\n      dup1\n      dup4\n      sload\n      div\n      mul\n      dup4\n      mstore\n      swap2\n      0x20\n      add\n      swap2\n      jump(tag_97)\n    tag_98:\n      dup3\n      add\n      swap2\n      swap1\n      0x00\n      mstore\n      keccak256(0x00, 0x20)\n      swap1\n    tag_99:\n      dup2\n      sload\n      dup2\n      mstore\n      swap1\n      0x01\n      add\n      swap1\n      0x20\n      add\n      dup1\n      dup4\n      gt\n      tag_99\n      jumpi\n      dup3\n      swap1\n      sub\n      0x1f\n      and\n      dup3\n      add\n      swap2\n    tag_97:\n      pop\n      pop\n      pop\n      pop\n      pop\n      swap1\n      pop\n        /* \"VOTACIONES/votaciones.sol\":4725:4734  bool flag */\n      0x00\n        /* \"VOTACIONES/votaciones.sol\":4839:4845  uint i */\n      dup1\n        /* \"VOTACIONES/votaciones.sol\":4846:4847  1 */\n      0x01\n        /* \"VOTACIONES/votaciones.sol\":4839:4847  uint i=1 */\n      swap1\n      pop\n        /* \"VOTACIONES/votaciones.sol\":4835:5385  for(uint i=1; i<listaCandidatos.length; i++){\r... */\n    tag_100:\n        /* \"VOTACIONES/votaciones.sol\":4851:4866  listaCandidatos */\n      0x03\n        /* \"VOTACIONES/votaciones.sol\":4851:4873  listaCandidatos.length */\n      dup1\n      sload\n      swap1\n      pop\n        /* \"VOTACIONES/votaciones.sol\":4849:4850  i */\n      dup2\n        /* \"VOTACIONES/votaciones.sol\":4849:4873  i<listaCandidatos.length */\n      lt\n        /* \"VOTACIONES/votaciones.sol\":4835:5385  for(uint i=1; i<listaCandidatos.length; i++){\r... */\n      iszero\n      tag_101\n      jumpi\n        /* \"VOTACIONES/votaciones.sol\":5009:5024  Votos_Candidato */\n      0x02\n        /* \"VOTACIONES/votaciones.sol\":5025:5040  listaCandidatos */\n      0x03\n        /* \"VOTACIONES/votaciones.sol\":5041:5042  i */\n      dup3\n        /* \"VOTACIONES/votaciones.sol\":5025:5043  listaCandidatos[i] */\n      dup2\n      sload\n      dup2\n      lt\n      tag_103\n      jumpi\n      tag_104\n      tag_39\n      jump\t// in\n    tag_104:\n    tag_103:\n      swap1\n      0x00\n      mstore\n      keccak256(0x00, 0x20)\n      add\n        /* \"VOTACIONES/votaciones.sol\":5009:5044  Votos_Candidato[listaCandidatos[i]] */\n      mload(0x40)\n      tag_106\n      swap2\n      swap1\n      tag_74\n      jump\t// in\n    tag_106:\n      swap1\n      dup2\n      mstore\n      0x20\n      add\n      mload(0x40)\n      dup1\n      swap2\n      sub\n      swap1\n      keccak256\n      sload\n        /* \"VOTACIONES/votaciones.sol\":4977:4992  Votos_Candidato */\n      0x02\n        /* \"VOTACIONES/votaciones.sol\":4993:5005  ganadorVotos */\n      dup5\n        /* \"VOTACIONES/votaciones.sol\":4977:5006  Votos_Candidato[ganadorVotos] */\n      mload(0x40)\n      tag_107\n      swap2\n      swap1\n      tag_61\n      jump\t// in\n    tag_107:\n      swap1\n      dup2\n      mstore\n      0x20\n      add\n      mload(0x40)\n      dup1\n      swap2\n      sub\n      swap1\n      keccak256\n      sload\n        /* \"VOTACIONES/votaciones.sol\":4977:5044  Votos_Candidato[ganadorVotos] < Votos_Candidato[listaCandidatos[i]] */\n      lt\n        /* \"VOTACIONES/votaciones.sol\":4974:5374  if(Votos_Candidato[ganadorVotos] < Votos_Candidato[listaCandidatos[i]]){\r... */\n      iszero\n      tag_108\n      jumpi\n        /* \"VOTACIONES/votaciones.sol\":5079:5094  listaCandidatos */\n      0x03\n        /* \"VOTACIONES/votaciones.sol\":5095:5096  i */\n      dup2\n        /* \"VOTACIONES/votaciones.sol\":5079:5097  listaCandidatos[i] */\n      dup2\n      sload\n      dup2\n      lt\n      tag_109\n      jumpi\n      tag_110\n      tag_39\n      jump\t// in\n    tag_110:\n    tag_109:\n      swap1\n      0x00\n      mstore\n      keccak256(0x00, 0x20)\n      add\n        /* \"VOTACIONES/votaciones.sol\":5064:5097  ganadorVotos = listaCandidatos[i] */\n      dup1\n      sload\n      tag_112\n      swap1\n      tag_47\n      jump\t// in\n    tag_112:\n      dup1\n      0x1f\n      add\n      0x20\n      dup1\n      swap2\n      div\n      mul\n      0x20\n      add\n      mload(0x40)\n      swap1\n      dup2\n      add\n      0x40\n      mstore\n      dup1\n      swap3\n      swap2\n      swap1\n      dup2\n      dup2\n      mstore\n      0x20\n      add\n      dup3\n      dup1\n      sload\n      tag_113\n      swap1\n      tag_47\n      jump\t// in\n    tag_113:\n      dup1\n      iszero\n      tag_114\n      jumpi\n      dup1\n      0x1f\n      lt\n      tag_115\n      jumpi\n      0x0100\n      dup1\n      dup4\n      sload\n      div\n      mul\n      dup4\n      mstore\n      swap2\n      0x20\n      add\n      swap2\n      jump(tag_114)\n    tag_115:\n      dup3\n      add\n      swap2\n      swap1\n      0x00\n      mstore\n      keccak256(0x00, 0x20)\n      swap1\n    tag_116:\n      dup2\n      sload\n      dup2\n      mstore\n      swap1\n      0x01\n      add\n      swap1\n      0x20\n      add\n      dup1\n      dup4\n      gt\n      tag_116\n      jumpi\n      dup3\n      swap1\n      sub\n      0x1f\n      and\n      dup3\n      add\n      swap2\n    tag_114:\n      pop\n      pop\n      pop\n      pop\n      pop\n      swap3\n      pop\n        /* \"VOTACIONES/votaciones.sol\":5123:5128  false */\n      0x00\n        /* \"VOTACIONES/votaciones.sol\":5116:5128  flag = false */\n      swap2\n      pop\n        /* \"VOTACIONES/votaciones.sol\":4974:5374  if(Votos_Candidato[ganadorVotos] < Votos_Candidato[listaCandidatos[i]]){\r... */\n      jump(tag_117)\n    tag_108:\n        /* \"VOTACIONES/votaciones.sol\":5269:5284  Votos_Candidato */\n      0x02\n        /* \"VOTACIONES/votaciones.sol\":5285:5300  listaCandidatos */\n      0x03\n        /* \"VOTACIONES/votaciones.sol\":5301:5302  i */\n      dup3\n        /* \"VOTACIONES/votaciones.sol\":5285:5303  listaCandidatos[i] */\n      dup2\n      sload\n      dup2\n      lt\n      tag_118\n      jumpi\n      tag_119\n      tag_39\n      jump\t// in\n    tag_119:\n    tag_118:\n      swap1\n      0x00\n      mstore\n      keccak256(0x00, 0x20)\n      add\n        /* \"VOTACIONES/votaciones.sol\":5269:5304  Votos_Candidato[listaCandidatos[i]] */\n      mload(0x40)\n      tag_121\n      swap2\n      swap1\n      tag_74\n      jump\t// in\n    tag_121:\n      swap1\n      dup2\n      mstore\n      0x20\n      add\n      mload(0x40)\n      dup1\n      swap2\n      sub\n      swap1\n      keccak256\n      sload\n        /* \"VOTACIONES/votaciones.sol\":5236:5251  Votos_Candidato */\n      0x02\n        /* \"VOTACIONES/votaciones.sol\":5252:5264  ganadorVotos */\n      dup5\n        /* \"VOTACIONES/votaciones.sol\":5236:5265  Votos_Candidato[ganadorVotos] */\n      mload(0x40)\n      tag_122\n      swap2\n      swap1\n      tag_61\n      jump\t// in\n    tag_122:\n      swap1\n      dup2\n      mstore\n      0x20\n      add\n      mload(0x40)\n      dup1\n      swap2\n      sub\n      swap1\n      keccak256\n      sload\n        /* \"VOTACIONES/votaciones.sol\":5236:5304  Votos_Candidato[ganadorVotos] == Votos_Candidato[listaCandidatos[i]] */\n      eq\n        /* \"VOTACIONES/votaciones.sol\":5233:5359  if(Votos_Candidato[ganadorVotos] == Votos_Candidato[listaCandidatos[i]]){\r... */\n      iszero\n      tag_123\n      jumpi\n        /* \"VOTACIONES/votaciones.sol\":5335:5339  true */\n      0x01\n        /* \"VOTACIONES/votaciones.sol\":5328:5339  flag = true */\n      swap2\n      pop\n        /* \"VOTACIONES/votaciones.sol\":5233:5359  if(Votos_Candidato[ganadorVotos] == Votos_Candidato[listaCandidatos[i]]){\r... */\n    tag_123:\n        /* \"VOTACIONES/votaciones.sol\":4974:5374  if(Votos_Candidato[ganadorVotos] < Votos_Candidato[listaCandidatos[i]]){\r... */\n    tag_117:\n        /* \"VOTACIONES/votaciones.sol\":4875:4878  i++ */\n      dup1\n      dup1\n      tag_124\n      swap1\n      tag_56\n      jump\t// in\n    tag_124:\n      swap2\n      pop\n      pop\n        /* \"VOTACIONES/votaciones.sol\":4835:5385  for(uint i=1; i<listaCandidatos.length; i++){\r... */\n      jump(tag_100)\n    tag_101:\n      pop\n        /* \"VOTACIONES/votaciones.sol\":5459:5463  flag */\n      dup1\n        /* \"VOTACIONES/votaciones.sol\":5456:5542  if(flag){\r... */\n      iszero\n      tag_125\n      jumpi\n        /* \"VOTACIONES/votaciones.sol\":5479:5530  ganadorVotos = \"Hay un empate entre los candidatos\" */\n      mload(0x40)\n      dup1\n      0x60\n      add\n      0x40\n      mstore\n      dup1\n      0x22\n      dup2\n      mstore\n      0x20\n      add\n      data_41f82da17441ea04272ad4862c48de104e971b11291caf932cab5da13398e2ff\n      0x22\n      swap2\n      codecopy\n      swap2\n      pop\n        /* \"VOTACIONES/votaciones.sol\":5456:5542  if(flag){\r... */\n    tag_125:\n        /* \"VOTACIONES/votaciones.sol\":5592:5604  ganadorVotos */\n      dup2\n        /* \"VOTACIONES/votaciones.sol\":5585:5604  return ganadorVotos */\n      swap3\n      pop\n      pop\n      pop\n        /* \"VOTACIONES/votaciones.sol\":4469:5612  function ganador() public view returns(string memory){\r... */\n      swap1\n      jump\t// out\n        /* \"VOTACIONES/votaciones.sol\":1300:1726  function votar(string memory _nombre) public VotoUnico() VotoCorrecto(_nombre) {\r... */\n    tag_32:\n        /* \"VOTACIONES/votaciones.sol\":1952:1972  bytes32 hash_votante */\n      0x00\n        /* \"VOTACIONES/votaciones.sol\":2002:2012  msg.sender */\n      caller\n        /* \"VOTACIONES/votaciones.sol\":1985:2013  abi.encodePacked(msg.sender) */\n      add(0x20, mload(0x40))\n      tag_127\n      swap2\n      swap1\n      tag_128\n      jump\t// in\n    tag_127:\n      mload(0x40)\n      0x20\n      dup2\n      dup4\n      sub\n      sub\n      dup2\n      mstore\n      swap1\n      0x40\n      mstore\n        /* \"VOTACIONES/votaciones.sol\":1975:2014  keccak256(abi.encodePacked(msg.sender)) */\n      dup1\n      mload\n      swap1\n      0x20\n      add\n      keccak256\n        /* \"VOTACIONES/votaciones.sol\":1952:2014  bytes32 hash_votante = keccak256(abi.encodePacked(msg.sender)) */\n      swap1\n      pop\n        /* \"VOTACIONES/votaciones.sol\":2101:2107  uint i */\n      0x00\n        /* \"VOTACIONES/votaciones.sol\":2097:2290  for(uint i=0; i<listaVotantes.length; i++){\r... */\n    tag_129:\n        /* \"VOTACIONES/votaciones.sol\":2113:2126  listaVotantes */\n      0x04\n        /* \"VOTACIONES/votaciones.sol\":2113:2133  listaVotantes.length */\n      dup1\n      sload\n      swap1\n      pop\n        /* \"VOTACIONES/votaciones.sol\":2111:2112  i */\n      dup2\n        /* \"VOTACIONES/votaciones.sol\":2111:2133  i<listaVotantes.length */\n      lt\n        /* \"VOTACIONES/votaciones.sol\":2097:2290  for(uint i=0; i<listaVotantes.length; i++){\r... */\n      iszero\n      tag_130\n      jumpi\n        /* \"VOTACIONES/votaciones.sol\":2234:2246  hash_votante */\n      dup2\n        /* \"VOTACIONES/votaciones.sol\":2214:2227  listaVotantes */\n      0x04\n        /* \"VOTACIONES/votaciones.sol\":2228:2229  i */\n      dup3\n        /* \"VOTACIONES/votaciones.sol\":2214:2230  listaVotantes[i] */\n      dup2\n      sload\n      dup2\n      lt\n      tag_132\n      jumpi\n      tag_133\n      tag_39\n      jump\t// in\n    tag_133:\n    tag_132:\n      swap1\n      0x00\n      mstore\n      keccak256(0x00, 0x20)\n      add\n      sload\n        /* \"VOTACIONES/votaciones.sol\":2214:2246  listaVotantes[i] != hash_votante */\n      eq\n      iszero\n        /* \"VOTACIONES/votaciones.sol\":2206:2278  require(listaVotantes[i] != hash_votante, \"Solo se puede votar una vez\") */\n      tag_135\n      jumpi\n      mload(0x40)\n      0x08c379a000000000000000000000000000000000000000000000000000000000\n      dup2\n      mstore\n      0x04\n      add\n      tag_136\n      swap1\n      tag_137\n      jump\t// in\n    tag_136:\n      mload(0x40)\n      dup1\n      swap2\n      sub\n      swap1\n      revert\n    tag_135:\n        /* \"VOTACIONES/votaciones.sol\":2135:2138  i++ */\n      dup1\n      dup1\n      tag_138\n      swap1\n      tag_56\n      jump\t// in\n    tag_138:\n      swap2\n      pop\n      pop\n        /* \"VOTACIONES/votaciones.sol\":2097:2290  for(uint i=0; i<listaVotantes.length; i++){\r... */\n      jump(tag_129)\n    tag_130:\n      pop\n        /* \"VOTACIONES/votaciones.sol\":1370:1377  _nombre */\n      dup2\n        /* \"VOTACIONES/votaciones.sol\":2512:2534  bytes32 hash_Candidato */\n      0x00\n        /* \"VOTACIONES/votaciones.sol\":2564:2571  _nombre */\n      dup2\n        /* \"VOTACIONES/votaciones.sol\":2547:2572  abi.encodePacked(_nombre) */\n      add(0x20, mload(0x40))\n      tag_140\n      swap2\n      swap1\n      tag_61\n      jump\t// in\n    tag_140:\n      mload(0x40)\n      0x20\n      dup2\n      dup4\n      sub\n      sub\n      dup2\n      mstore\n      swap1\n      0x40\n      mstore\n        /* \"VOTACIONES/votaciones.sol\":2537:2573  keccak256(abi.encodePacked(_nombre)) */\n      dup1\n      mload\n      swap1\n      0x20\n      add\n      keccak256\n        /* \"VOTACIONES/votaciones.sol\":2512:2573  bytes32 hash_Candidato = keccak256(abi.encodePacked(_nombre)) */\n      swap1\n      pop\n        /* \"VOTACIONES/votaciones.sol\":2626:2650  bool candidatoEncontrado */\n      0x00\n        /* \"VOTACIONES/votaciones.sol\":2762:2768  uint i */\n      dup1\n        /* \"VOTACIONES/votaciones.sol\":2758:3052  for(uint i=0; i<listaCandidatos.length; i++){\r... */\n    tag_141:\n        /* \"VOTACIONES/votaciones.sol\":2774:2789  listaCandidatos */\n      0x03\n        /* \"VOTACIONES/votaciones.sol\":2774:2796  listaCandidatos.length */\n      dup1\n      sload\n      swap1\n      pop\n        /* \"VOTACIONES/votaciones.sol\":2772:2773  i */\n      dup2\n        /* \"VOTACIONES/votaciones.sol\":2772:2796  i<listaCandidatos.length */\n      lt\n        /* \"VOTACIONES/votaciones.sol\":2758:3052  for(uint i=0; i<listaCandidatos.length; i++){\r... */\n      iszero\n      tag_142\n      jumpi\n        /* \"VOTACIONES/votaciones.sol\":2965:2979  hash_Candidato */\n      dup3\n        /* \"VOTACIONES/votaciones.sol\":2941:2956  listaCandidatos */\n      0x03\n        /* \"VOTACIONES/votaciones.sol\":2957:2958  i */\n      dup3\n        /* \"VOTACIONES/votaciones.sol\":2941:2959  listaCandidatos[i] */\n      dup2\n      sload\n      dup2\n      lt\n      tag_144\n      jumpi\n      tag_145\n      tag_39\n      jump\t// in\n    tag_145:\n    tag_144:\n      swap1\n      0x00\n      mstore\n      keccak256(0x00, 0x20)\n      add\n        /* \"VOTACIONES/votaciones.sol\":2924:2960  abi.encodePacked(listaCandidatos[i]) */\n      add(0x20, mload(0x40))\n      tag_147\n      swap2\n      swap1\n      tag_74\n      jump\t// in\n    tag_147:\n      mload(0x40)\n      0x20\n      dup2\n      dup4\n      sub\n      sub\n      dup2\n      mstore\n      swap1\n      0x40\n      mstore\n        /* \"VOTACIONES/votaciones.sol\":2914:2961  keccak256(abi.encodePacked(listaCandidatos[i])) */\n      dup1\n      mload\n      swap1\n      0x20\n      add\n      keccak256\n        /* \"VOTACIONES/votaciones.sol\":2914:2979  keccak256(abi.encodePacked(listaCandidatos[i])) == hash_Candidato */\n      eq\n        /* \"VOTACIONES/votaciones.sol\":2911:3041  if(keccak256(abi.encodePacked(listaCandidatos[i])) == hash_Candidato){\r... */\n      iszero\n      tag_148\n      jumpi\n        /* \"VOTACIONES/votaciones.sol\":3021:3025  true */\n      0x01\n        /* \"VOTACIONES/votaciones.sol\":2999:3025  candidatoEncontrado = true */\n      swap2\n      pop\n        /* \"VOTACIONES/votaciones.sol\":2911:3041  if(keccak256(abi.encodePacked(listaCandidatos[i])) == hash_Candidato){\r... */\n    tag_148:\n        /* \"VOTACIONES/votaciones.sol\":2798:2801  i++ */\n      dup1\n      dup1\n      tag_149\n      swap1\n      tag_56\n      jump\t// in\n    tag_149:\n      swap2\n      pop\n      pop\n        /* \"VOTACIONES/votaciones.sol\":2758:3052  for(uint i=0; i<listaCandidatos.length; i++){\r... */\n      jump(tag_141)\n    tag_142:\n      pop\n        /* \"VOTACIONES/votaciones.sol\":3141:3160  candidatoEncontrado */\n      dup1\n        /* \"VOTACIONES/votaciones.sol\":3133:3193  require(candidatoEncontrado, \"No se encuentra al candidato\") */\n      tag_150\n      jumpi\n      mload(0x40)\n      0x08c379a000000000000000000000000000000000000000000000000000000000\n      dup2\n      mstore\n      0x04\n      add\n      tag_151\n      swap1\n      tag_79\n      jump\t// in\n    tag_151:\n      mload(0x40)\n      dup1\n      swap2\n      sub\n      swap1\n      revert\n    tag_150:\n        /* \"VOTACIONES/votaciones.sol\":1432:1452  bytes32 hash_votante */\n      0x00\n        /* \"VOTACIONES/votaciones.sol\":1482:1492  msg.sender */\n      caller\n        /* \"VOTACIONES/votaciones.sol\":1465:1493  abi.encodePacked(msg.sender) */\n      add(0x20, mload(0x40))\n      tag_153\n      swap2\n      swap1\n      tag_128\n      jump\t// in\n    tag_153:\n      mload(0x40)\n      0x20\n      dup2\n      dup4\n      sub\n      sub\n      dup2\n      mstore\n      swap1\n      0x40\n      mstore\n        /* \"VOTACIONES/votaciones.sol\":1455:1494  keccak256(abi.encodePacked(msg.sender)) */\n      dup1\n      mload\n      swap1\n      0x20\n      add\n      keccak256\n        /* \"VOTACIONES/votaciones.sol\":1432:1494  bytes32 hash_votante = keccak256(abi.encodePacked(msg.sender)) */\n      swap1\n      pop\n        /* \"VOTACIONES/votaciones.sol\":1574:1589  Votos_Candidato */\n      0x02\n        /* \"VOTACIONES/votaciones.sol\":1590:1597  _nombre */\n      dup7\n        /* \"VOTACIONES/votaciones.sol\":1574:1598  Votos_Candidato[_nombre] */\n      mload(0x40)\n      tag_154\n      swap2\n      swap1\n      tag_61\n      jump\t// in\n    tag_154:\n      swap1\n      dup2\n      mstore\n      0x20\n      add\n      mload(0x40)\n      dup1\n      swap2\n      sub\n      swap1\n      keccak256\n      0x00\n        /* \"VOTACIONES/votaciones.sol\":1574:1600  Votos_Candidato[_nombre]++ */\n      dup2\n      sload\n      dup1\n      swap3\n      swap2\n      swap1\n      tag_155\n      swap1\n      tag_56\n      jump\t// in\n    tag_155:\n      swap2\n      swap1\n      pop\n      sstore\n      pop\n        /* \"VOTACIONES/votaciones.sol\":1686:1699  listaVotantes */\n      0x04\n        /* \"VOTACIONES/votaciones.sol\":1705:1717  hash_votante */\n      dup2\n        /* \"VOTACIONES/votaciones.sol\":1686:1718  listaVotantes.push(hash_votante) */\n      swap1\n      dup1\n      0x01\n      dup2\n      sload\n      add\n      dup1\n      dup3\n      sstore\n      dup1\n      swap2\n      pop\n      pop\n      0x01\n      swap1\n      sub\n      swap1\n      0x00\n      mstore\n      keccak256(0x00, 0x20)\n      add\n      0x00\n      swap1\n      swap2\n      swap1\n      swap2\n      swap1\n      swap2\n      pop\n      sstore\n        /* \"VOTACIONES/votaciones.sol\":1379:1726  {\r... */\n      pop\n        /* \"VOTACIONES/votaciones.sol\":2457:3213  {\r... */\n      pop\n      pop\n        /* \"VOTACIONES/votaciones.sol\":2300:2301  _ */\n      pop\n        /* \"VOTACIONES/votaciones.sol\":1899:2309  {\r... */\n      pop\n        /* \"VOTACIONES/votaciones.sol\":1300:1726  function votar(string memory _nombre) public VotoUnico() VotoCorrecto(_nombre) {\r... */\n      pop\n      jump\t// out\n        /* \"VOTACIONES/votaciones.sol\":3280:3853  function uint2str(uint _i) internal pure returns (string memory _uintAsString) {\r... */\n    tag_52:\n        /* \"VOTACIONES/votaciones.sol\":3330:3357  string memory _uintAsString */\n      0x60\n        /* \"VOTACIONES/votaciones.sol\":3380:3381  0 */\n      0x00\n        /* \"VOTACIONES/votaciones.sol\":3374:3376  _i */\n      dup3\n        /* \"VOTACIONES/votaciones.sol\":3374:3381  _i == 0 */\n      eq\n        /* \"VOTACIONES/votaciones.sol\":3370:3420  if (_i == 0) {\r... */\n      iszero\n      tag_158\n      jumpi\n        /* \"VOTACIONES/votaciones.sol\":3398:3408  return \"0\" */\n      mload(0x40)\n      dup1\n      0x40\n      add\n      0x40\n      mstore\n      dup1\n      0x01\n      dup2\n      mstore\n      0x20\n      add\n      0x3000000000000000000000000000000000000000000000000000000000000000\n      dup2\n      mstore\n      pop\n      swap1\n      pop\n      jump(tag_157)\n        /* \"VOTACIONES/votaciones.sol\":3370:3420  if (_i == 0) {\r... */\n    tag_158:\n        /* \"VOTACIONES/votaciones.sol\":3430:3436  uint j */\n      0x00\n        /* \"VOTACIONES/votaciones.sol\":3439:3441  _i */\n      dup3\n        /* \"VOTACIONES/votaciones.sol\":3430:3441  uint j = _i */\n      swap1\n      pop\n        /* \"VOTACIONES/votaciones.sol\":3452:3460  uint len */\n      0x00\n        /* \"VOTACIONES/votaciones.sol\":3471:3540  while (j != 0) {\r... */\n    tag_159:\n        /* \"VOTACIONES/votaciones.sol\":3483:3484  0 */\n      0x00\n        /* \"VOTACIONES/votaciones.sol\":3478:3479  j */\n      dup3\n        /* \"VOTACIONES/votaciones.sol\":3478:3484  j != 0 */\n      eq\n        /* \"VOTACIONES/votaciones.sol\":3471:3540  while (j != 0) {\r... */\n      tag_160\n      jumpi\n        /* \"VOTACIONES/votaciones.sol\":3501:3506  len++ */\n      dup1\n      dup1\n      tag_161\n      swap1\n      tag_56\n      jump\t// in\n    tag_161:\n      swap2\n      pop\n      pop\n        /* \"VOTACIONES/votaciones.sol\":3526:3528  10 */\n      0x0a\n        /* \"VOTACIONES/votaciones.sol\":3521:3528  j /= 10 */\n      dup3\n      tag_162\n      swap2\n      swap1\n      tag_163\n      jump\t// in\n    tag_162:\n      swap2\n      pop\n        /* \"VOTACIONES/votaciones.sol\":3471:3540  while (j != 0) {\r... */\n      jump(tag_159)\n    tag_160:\n        /* \"VOTACIONES/votaciones.sol\":3550:3567  bytes memory bstr */\n      0x00\n        /* \"VOTACIONES/votaciones.sol\":3580:3583  len */\n      dup2\n        /* \"VOTACIONES/votaciones.sol\":3570:3584  new bytes(len) */\n      0xffffffffffffffff\n      dup2\n      gt\n      iszero\n      tag_164\n      jumpi\n      tag_165\n      tag_166\n      jump\t// in\n    tag_165:\n    tag_164:\n      mload(0x40)\n      swap1\n      dup1\n      dup3\n      mstore\n      dup1\n      0x1f\n      add\n      not(0x1f)\n      and\n      0x20\n      add\n      dup3\n      add\n      0x40\n      mstore\n      dup1\n      iszero\n      tag_167\n      jumpi\n      dup2\n      0x20\n      add\n      0x01\n      dup3\n      mul\n      dup1\n      calldatasize\n      dup4\n      calldatacopy\n      dup1\n      dup3\n      add\n      swap2\n      pop\n      pop\n      swap1\n      pop\n    tag_167:\n      pop\n        /* \"VOTACIONES/votaciones.sol\":3550:3584  bytes memory bstr = new bytes(len) */\n      swap1\n      pop\n        /* \"VOTACIONES/votaciones.sol\":3595:3601  uint k */\n      0x00\n        /* \"VOTACIONES/votaciones.sol\":3604:3607  len */\n      dup3\n        /* \"VOTACIONES/votaciones.sol\":3595:3607  uint k = len */\n      swap1\n      pop\n        /* \"VOTACIONES/votaciones.sol\":3618:3816  while (_i != 0) {\r... */\n    tag_168:\n        /* \"VOTACIONES/votaciones.sol\":3631:3632  0 */\n      0x00\n        /* \"VOTACIONES/votaciones.sol\":3625:3627  _i */\n      dup7\n        /* \"VOTACIONES/votaciones.sol\":3625:3632  _i != 0 */\n      eq\n        /* \"VOTACIONES/votaciones.sol\":3618:3816  while (_i != 0) {\r... */\n      tag_169\n      jumpi\n        /* \"VOTACIONES/votaciones.sol\":3655:3656  1 */\n      0x01\n        /* \"VOTACIONES/votaciones.sol\":3653:3654  k */\n      dup2\n        /* \"VOTACIONES/votaciones.sol\":3653:3656  k-1 */\n      tag_170\n      swap2\n      swap1\n      tag_171\n      jump\t// in\n    tag_170:\n        /* \"VOTACIONES/votaciones.sol\":3649:3656  k = k-1 */\n      swap1\n      pop\n        /* \"VOTACIONES/votaciones.sol\":3671:3681  uint8 temp */\n      0x00\n        /* \"VOTACIONES/votaciones.sol\":3711:3713  10 */\n      0x0a\n        /* \"VOTACIONES/votaciones.sol\":3706:3708  10 */\n      dup1\n        /* \"VOTACIONES/votaciones.sol\":3701:3703  _i */\n      dup9\n        /* \"VOTACIONES/votaciones.sol\":3701:3708  _i / 10 */\n      tag_172\n      swap2\n      swap1\n      tag_163\n      jump\t// in\n    tag_172:\n        /* \"VOTACIONES/votaciones.sol\":3701:3713  _i / 10 * 10 */\n      tag_173\n      swap2\n      swap1\n      tag_174\n      jump\t// in\n    tag_173:\n        /* \"VOTACIONES/votaciones.sol\":3696:3698  _i */\n      dup8\n        /* \"VOTACIONES/votaciones.sol\":3696:3713  _i - _i / 10 * 10 */\n      tag_175\n      swap2\n      swap1\n      tag_171\n      jump\t// in\n    tag_175:\n        /* \"VOTACIONES/votaciones.sol\":3685:3687  48 */\n      0x30\n        /* \"VOTACIONES/votaciones.sol\":3685:3714  48 + uint8(_i - _i / 10 * 10) */\n      tag_176\n      swap2\n      swap1\n      tag_177\n      jump\t// in\n    tag_176:\n        /* \"VOTACIONES/votaciones.sol\":3671:3715  uint8 temp = (48 + uint8(_i - _i / 10 * 10)) */\n      swap1\n      pop\n        /* \"VOTACIONES/votaciones.sol\":3730:3739  bytes1 b1 */\n      0x00\n        /* \"VOTACIONES/votaciones.sol\":3749:3753  temp */\n      dup2\n        /* \"VOTACIONES/votaciones.sol\":3742:3754  bytes1(temp) */\n      0xf8\n      shl\n        /* \"VOTACIONES/votaciones.sol\":3730:3754  bytes1 b1 = bytes1(temp) */\n      swap1\n      pop\n        /* \"VOTACIONES/votaciones.sol\":3779:3781  b1 */\n      dup1\n        /* \"VOTACIONES/votaciones.sol\":3769:3773  bstr */\n      dup5\n        /* \"VOTACIONES/votaciones.sol\":3774:3775  k */\n      dup5\n        /* \"VOTACIONES/votaciones.sol\":3769:3776  bstr[k] */\n      dup2\n      mload\n      dup2\n      lt\n      tag_178\n      jumpi\n      tag_179\n      tag_39\n      jump\t// in\n    tag_179:\n    tag_178:\n      0x20\n      add\n      add\n        /* \"VOTACIONES/votaciones.sol\":3769:3781  bstr[k] = b1 */\n      swap1\n      not(0xffffffffffffffffffffffffffffffffffffffffffffffffffffffffffffff)\n      and\n      swap1\n      dup2\n      0x00\n      byte\n      swap1\n      mstore8\n      pop\n        /* \"VOTACIONES/votaciones.sol\":3802:3804  10 */\n      0x0a\n        /* \"VOTACIONES/votaciones.sol\":3796:3804  _i /= 10 */\n      dup9\n      tag_180\n      swap2\n      swap1\n      tag_163\n      jump\t// in\n    tag_180:\n      swap8\n      pop\n        /* \"VOTACIONES/votaciones.sol\":3634:3816  {\r... */\n      pop\n      pop\n        /* \"VOTACIONES/votaciones.sol\":3618:3816  while (_i != 0) {\r... */\n      jump(tag_168)\n    tag_169:\n        /* \"VOTACIONES/votaciones.sol\":3840:3844  bstr */\n      dup2\n        /* \"VOTACIONES/votaciones.sol\":3826:3845  return string(bstr) */\n      swap5\n      pop\n      pop\n      pop\n      pop\n      pop\n        /* \"VOTACIONES/votaciones.sol\":3280:3853  function uint2str(uint _i) internal pure returns (string memory _uintAsString) {\r... */\n    tag_157:\n      swap2\n      swap1\n      pop\n      jump\t// out\n    tag_64:\n      dup3\n      dup1\n      sload\n      tag_181\n      swap1\n      tag_47\n      jump\t// in\n    tag_181:\n      swap1\n      0x00\n      mstore\n      keccak256(0x00, 0x20)\n      swap1\n      0x1f\n      add\n      0x20\n      swap1\n      div\n      dup2\n      add\n      swap3\n      dup3\n      tag_183\n      jumpi\n      0x00\n      dup6\n      sstore\n      jump(tag_182)\n    tag_183:\n      dup3\n      0x1f\n      lt\n      tag_184\n      jumpi\n      dup1\n      mload\n      not(0xff)\n      and\n      dup4\n      dup1\n      add\n      or\n      dup6\n      sstore\n      jump(tag_182)\n    tag_184:\n      dup3\n      dup1\n      add\n      0x01\n      add\n      dup6\n      sstore\n      dup3\n      iszero\n      tag_182\n      jumpi\n      swap2\n      dup3\n      add\n    tag_185:\n      dup3\n      dup2\n      gt\n      iszero\n      tag_186\n      jumpi\n      dup3\n      mload\n      dup3\n      sstore\n      swap2\n      0x20\n      add\n      swap2\n      swap1\n      0x01\n      add\n      swap1\n      jump(tag_185)\n    tag_186:\n    tag_182:\n      pop\n      swap1\n      pop\n      tag_187\n      swap2\n      swap1\n      tag_188\n      jump\t// in\n    tag_187:\n      pop\n      swap1\n      jump\t// out\n    tag_188:\n    tag_189:\n      dup1\n      dup3\n      gt\n      iszero\n      tag_190\n      jumpi\n      0x00\n      dup2\n      0x00\n      swap1\n      sstore\n      pop\n      0x01\n      add\n      jump(tag_189)\n    tag_190:\n      pop\n      swap1\n      jump\t// out\n        /* \"#utility.yul\":7:419   */\n    tag_192:\n        /* \"#utility.yul\":85:90   */\n      0x00\n        /* \"#utility.yul\":110:176   */\n      tag_194\n        /* \"#utility.yul\":126:175   */\n      tag_195\n        /* \"#utility.yul\":168:174   */\n      dup5\n        /* \"#utility.yul\":126:175   */\n      tag_196\n      jump\t// in\n    tag_195:\n        /* \"#utility.yul\":110:176   */\n      tag_197\n      jump\t// in\n    tag_194:\n        /* \"#utility.yul\":101:176   */\n      swap1\n      pop\n        /* \"#utility.yul\":199:205   */\n      dup3\n        /* \"#utility.yul\":192:197   */\n      dup2\n        /* \"#utility.yul\":185:206   */\n      mstore\n        /* \"#utility.yul\":237:241   */\n      0x20\n        /* \"#utility.yul\":230:235   */\n      dup2\n        /* \"#utility.yul\":226:242   */\n      add\n        /* \"#utility.yul\":275:278   */\n      dup5\n        /* \"#utility.yul\":266:272   */\n      dup5\n        /* \"#utility.yul\":261:264   */\n      dup5\n        /* \"#utility.yul\":257:273   */\n      add\n        /* \"#utility.yul\":254:279   */\n      gt\n        /* \"#utility.yul\":251:363   */\n      iszero\n      tag_198\n      jumpi\n        /* \"#utility.yul\":282:361   */\n      tag_199\n      tag_200\n      jump\t// in\n    tag_199:\n        /* \"#utility.yul\":251:363   */\n    tag_198:\n        /* \"#utility.yul\":372:413   */\n      tag_201\n        /* \"#utility.yul\":406:412   */\n      dup5\n        /* \"#utility.yul\":401:404   */\n      dup3\n        /* \"#utility.yul\":396:399   */\n      dup6\n        /* \"#utility.yul\":372:413   */\n      tag_202\n      jump\t// in\n    tag_201:\n        /* \"#utility.yul\":91:419   */\n      pop\n        /* \"#utility.yul\":7:419   */\n      swap4\n      swap3\n      pop\n      pop\n      pop\n      jump\t// out\n        /* \"#utility.yul\":439:779   */\n    tag_203:\n        /* \"#utility.yul\":495:500   */\n      0x00\n        /* \"#utility.yul\":544:547   */\n      dup3\n        /* \"#utility.yul\":537:541   */\n      0x1f\n        /* \"#utility.yul\":529:535   */\n      dup4\n        /* \"#utility.yul\":525:542   */\n      add\n        /* \"#utility.yul\":521:548   */\n      slt\n        /* \"#utility.yul\":511:633   */\n      tag_205\n      jumpi\n        /* \"#utility.yul\":552:631   */\n      tag_206\n      tag_207\n      jump\t// in\n    tag_206:\n        /* \"#utility.yul\":511:633   */\n    tag_205:\n        /* \"#utility.yul\":669:675   */\n      dup2\n        /* \"#utility.yul\":656:676   */\n      calldataload\n        /* \"#utility.yul\":694:773   */\n      tag_208\n        /* \"#utility.yul\":769:772   */\n      dup5\n        /* \"#utility.yul\":761:767   */\n      dup3\n        /* \"#utility.yul\":754:758   */\n      0x20\n        /* \"#utility.yul\":746:752   */\n      dup7\n        /* \"#utility.yul\":742:759   */\n      add\n        /* \"#utility.yul\":694:773   */\n      tag_192\n      jump\t// in\n    tag_208:\n        /* \"#utility.yul\":685:773   */\n      swap2\n      pop\n        /* \"#utility.yul\":501:779   */\n      pop\n        /* \"#utility.yul\":439:779   */\n      swap3\n      swap2\n      pop\n      pop\n      jump\t// out\n        /* \"#utility.yul\":785:924   */\n    tag_209:\n        /* \"#utility.yul\":831:836   */\n      0x00\n        /* \"#utility.yul\":869:875   */\n      dup2\n        /* \"#utility.yul\":856:876   */\n      calldataload\n        /* \"#utility.yul\":847:876   */\n      swap1\n      pop\n        /* \"#utility.yul\":885:918   */\n      tag_211\n        /* \"#utility.yul\":912:917   */\n      dup2\n        /* \"#utility.yul\":885:918   */\n      tag_212\n      jump\t// in\n    tag_211:\n        /* \"#utility.yul\":785:924   */\n      swap3\n      swap2\n      pop\n      pop\n      jump\t// out\n        /* \"#utility.yul\":930:1439   */\n    tag_19:\n        /* \"#utility.yul\":999:1005   */\n      0x00\n        /* \"#utility.yul\":1048:1050   */\n      0x20\n        /* \"#utility.yul\":1036:1045   */\n      dup3\n        /* \"#utility.yul\":1027:1034   */\n      dup5\n        /* \"#utility.yul\":1023:1046   */\n      sub\n        /* \"#utility.yul\":1019:1051   */\n      slt\n        /* \"#utility.yul\":1016:1135   */\n      iszero\n      tag_214\n      jumpi\n        /* \"#utility.yul\":1054:1133   */\n      tag_215\n      tag_216\n      jump\t// in\n    tag_215:\n        /* \"#utility.yul\":1016:1135   */\n    tag_214:\n        /* \"#utility.yul\":1202:1203   */\n      0x00\n        /* \"#utility.yul\":1191:1200   */\n      dup3\n        /* \"#utility.yul\":1187:1204   */\n      add\n        /* \"#utility.yul\":1174:1205   */\n      calldataload\n        /* \"#utility.yul\":1232:1250   */\n      0xffffffffffffffff\n        /* \"#utility.yul\":1224:1230   */\n      dup2\n        /* \"#utility.yul\":1221:1251   */\n      gt\n        /* \"#utility.yul\":1218:1335   */\n      iszero\n      tag_217\n      jumpi\n        /* \"#utility.yul\":1254:1333   */\n      tag_218\n      tag_219\n      jump\t// in\n    tag_218:\n        /* \"#utility.yul\":1218:1335   */\n    tag_217:\n        /* \"#utility.yul\":1359:1422   */\n      tag_220\n        /* \"#utility.yul\":1414:1421   */\n      dup5\n        /* \"#utility.yul\":1405:1411   */\n      dup3\n        /* \"#utility.yul\":1394:1403   */\n      dup6\n        /* \"#utility.yul\":1390:1412   */\n      add\n        /* \"#utility.yul\":1359:1422   */\n      tag_203\n      jump\t// in\n    tag_220:\n        /* \"#utility.yul\":1349:1422   */\n      swap2\n      pop\n        /* \"#utility.yul\":1145:1432   */\n      pop\n        /* \"#utility.yul\":930:1439   */\n      swap3\n      swap2\n      pop\n      pop\n      jump\t// out\n        /* \"#utility.yul\":1445:2424   */\n    tag_15:\n        /* \"#utility.yul\":1542:1548   */\n      0x00\n        /* \"#utility.yul\":1550:1556   */\n      dup1\n        /* \"#utility.yul\":1558:1564   */\n      0x00\n        /* \"#utility.yul\":1607:1609   */\n      0x60\n        /* \"#utility.yul\":1595:1604   */\n      dup5\n        /* \"#utility.yul\":1586:1593   */\n      dup7\n        /* \"#utility.yul\":1582:1605   */\n      sub\n        /* \"#utility.yul\":1578:1610   */\n      slt\n        /* \"#utility.yul\":1575:1694   */\n      iszero\n      tag_222\n      jumpi\n        /* \"#utility.yul\":1613:1692   */\n      tag_223\n      tag_216\n      jump\t// in\n    tag_223:\n        /* \"#utility.yul\":1575:1694   */\n    tag_222:\n        /* \"#utility.yul\":1761:1762   */\n      0x00\n        /* \"#utility.yul\":1750:1759   */\n      dup5\n        /* \"#utility.yul\":1746:1763   */\n      add\n        /* \"#utility.yul\":1733:1764   */\n      calldataload\n        /* \"#utility.yul\":1791:1809   */\n      0xffffffffffffffff\n        /* \"#utility.yul\":1783:1789   */\n      dup2\n        /* \"#utility.yul\":1780:1810   */\n      gt\n        /* \"#utility.yul\":1777:1894   */\n      iszero\n      tag_224\n      jumpi\n        /* \"#utility.yul\":1813:1892   */\n      tag_225\n      tag_219\n      jump\t// in\n    tag_225:\n        /* \"#utility.yul\":1777:1894   */\n    tag_224:\n        /* \"#utility.yul\":1918:1981   */\n      tag_226\n        /* \"#utility.yul\":1973:1980   */\n      dup7\n        /* \"#utility.yul\":1964:1970   */\n      dup3\n        /* \"#utility.yul\":1953:1962   */\n      dup8\n        /* \"#utility.yul\":1949:1971   */\n      add\n        /* \"#utility.yul\":1918:1981   */\n      tag_203\n      jump\t// in\n    tag_226:\n        /* \"#utility.yul\":1908:1981   */\n      swap4\n      pop\n        /* \"#utility.yul\":1704:1991   */\n      pop\n        /* \"#utility.yul\":2030:2032   */\n      0x20\n        /* \"#utility.yul\":2056:2109   */\n      tag_227\n        /* \"#utility.yul\":2101:2108   */\n      dup7\n        /* \"#utility.yul\":2092:2098   */\n      dup3\n        /* \"#utility.yul\":2081:2090   */\n      dup8\n        /* \"#utility.yul\":2077:2099   */\n      add\n        /* \"#utility.yul\":2056:2109   */\n      tag_209\n      jump\t// in\n    tag_227:\n        /* \"#utility.yul\":2046:2109   */\n      swap3\n      pop\n        /* \"#utility.yul\":2001:2119   */\n      pop\n        /* \"#utility.yul\":2186:2188   */\n      0x40\n        /* \"#utility.yul\":2175:2184   */\n      dup5\n        /* \"#utility.yul\":2171:2189   */\n      add\n        /* \"#utility.yul\":2158:2190   */\n      calldataload\n        /* \"#utility.yul\":2217:2235   */\n      0xffffffffffffffff\n        /* \"#utility.yul\":2209:2215   */\n      dup2\n        /* \"#utility.yul\":2206:2236   */\n      gt\n        /* \"#utility.yul\":2203:2320   */\n      iszero\n      tag_228\n      jumpi\n        /* \"#utility.yul\":2239:2318   */\n      tag_229\n      tag_219\n      jump\t// in\n    tag_229:\n        /* \"#utility.yul\":2203:2320   */\n    tag_228:\n        /* \"#utility.yul\":2344:2407   */\n      tag_230\n        /* \"#utility.yul\":2399:2406   */\n      dup7\n        /* \"#utility.yul\":2390:2396   */\n      dup3\n        /* \"#utility.yul\":2379:2388   */\n      dup8\n        /* \"#utility.yul\":2375:2397   */\n      add\n        /* \"#utility.yul\":2344:2407   */\n      tag_203\n      jump\t// in\n    tag_230:\n        /* \"#utility.yul\":2334:2407   */\n      swap2\n      pop\n        /* \"#utility.yul\":2129:2417   */\n      pop\n        /* \"#utility.yul\":1445:2424   */\n      swap3\n      pop\n      swap3\n      pop\n      swap3\n      jump\t// out\n        /* \"#utility.yul\":2430:2626   */\n    tag_231:\n        /* \"#utility.yul\":2519:2529   */\n      0x00\n        /* \"#utility.yul\":2554:2620   */\n      tag_233\n        /* \"#utility.yul\":2616:2619   */\n      dup4\n        /* \"#utility.yul\":2608:2614   */\n      dup4\n        /* \"#utility.yul\":2554:2620   */\n      tag_234\n      jump\t// in\n    tag_233:\n        /* \"#utility.yul\":2540:2620   */\n      swap1\n      pop\n        /* \"#utility.yul\":2430:2626   */\n      swap3\n      swap2\n      pop\n      pop\n      jump\t// out\n        /* \"#utility.yul\":2632:2789   */\n    tag_235:\n        /* \"#utility.yul\":2737:2782   */\n      tag_237\n        /* \"#utility.yul\":2757:2781   */\n      tag_238\n        /* \"#utility.yul\":2775:2780   */\n      dup3\n        /* \"#utility.yul\":2757:2781   */\n      tag_239\n      jump\t// in\n    tag_238:\n        /* \"#utility.yul\":2737:2782   */\n      tag_240\n      jump\t// in\n    tag_237:\n        /* \"#utility.yul\":2732:2735   */\n      dup3\n        /* \"#utility.yul\":2725:2783   */\n      mstore\n        /* \"#utility.yul\":2632:2789   */\n      pop\n      pop\n      jump\t// out\n        /* \"#utility.yul\":2823:3814   */\n    tag_241:\n        /* \"#utility.yul\":2962:2965   */\n      0x00\n        /* \"#utility.yul\":2991:3055   */\n      tag_243\n        /* \"#utility.yul\":3049:3054   */\n      dup3\n        /* \"#utility.yul\":2991:3055   */\n      tag_244\n      jump\t// in\n    tag_243:\n        /* \"#utility.yul\":3071:3167   */\n      tag_245\n        /* \"#utility.yul\":3160:3166   */\n      dup2\n        /* \"#utility.yul\":3155:3158   */\n      dup6\n        /* \"#utility.yul\":3071:3167   */\n      tag_246\n      jump\t// in\n    tag_245:\n        /* \"#utility.yul\":3064:3167   */\n      swap4\n      pop\n        /* \"#utility.yul\":3193:3196   */\n      dup4\n        /* \"#utility.yul\":3238:3242   */\n      0x20\n        /* \"#utility.yul\":3230:3236   */\n      dup3\n        /* \"#utility.yul\":3226:3243   */\n      mul\n        /* \"#utility.yul\":3221:3224   */\n      dup6\n        /* \"#utility.yul\":3217:3244   */\n      add\n        /* \"#utility.yul\":3268:3334   */\n      tag_247\n        /* \"#utility.yul\":3328:3333   */\n      dup6\n        /* \"#utility.yul\":3268:3334   */\n      tag_248\n      jump\t// in\n    tag_247:\n        /* \"#utility.yul\":3357:3364   */\n      dup1\n        /* \"#utility.yul\":3388:3389   */\n      0x00\n        /* \"#utility.yul\":3373:3769   */\n    tag_249:\n        /* \"#utility.yul\":3398:3404   */\n      dup6\n        /* \"#utility.yul\":3395:3396   */\n      dup2\n        /* \"#utility.yul\":3392:3405   */\n      lt\n        /* \"#utility.yul\":3373:3769   */\n      iszero\n      tag_251\n      jumpi\n        /* \"#utility.yul\":3469:3478   */\n      dup5\n        /* \"#utility.yul\":3463:3467   */\n      dup5\n        /* \"#utility.yul\":3459:3479   */\n      sub\n        /* \"#utility.yul\":3454:3457   */\n      dup10\n        /* \"#utility.yul\":3447:3480   */\n      mstore\n        /* \"#utility.yul\":3520:3526   */\n      dup2\n        /* \"#utility.yul\":3514:3527   */\n      mload\n        /* \"#utility.yul\":3548:3632   */\n      tag_252\n        /* \"#utility.yul\":3627:3631   */\n      dup6\n        /* \"#utility.yul\":3612:3625   */\n      dup3\n        /* \"#utility.yul\":3548:3632   */\n      tag_231\n      jump\t// in\n    tag_252:\n        /* \"#utility.yul\":3540:3632   */\n      swap5\n      pop\n        /* \"#utility.yul\":3655:3725   */\n      tag_253\n        /* \"#utility.yul\":3718:3724   */\n      dup4\n        /* \"#utility.yul\":3655:3725   */\n      tag_254\n      jump\t// in\n    tag_253:\n        /* \"#utility.yul\":3645:3725   */\n      swap3\n      pop\n        /* \"#utility.yul\":3754:3758   */\n      0x20\n        /* \"#utility.yul\":3749:3752   */\n      dup11\n        /* \"#utility.yul\":3745:3759   */\n      add\n        /* \"#utility.yul\":3738:3759   */\n      swap10\n      pop\n        /* \"#utility.yul\":3433:3769   */\n      pop\n        /* \"#utility.yul\":3420:3421   */\n      0x01\n        /* \"#utility.yul\":3417:3418   */\n      dup2\n        /* \"#utility.yul\":3413:3422   */\n      add\n        /* \"#utility.yul\":3408:3422   */\n      swap1\n      pop\n        /* \"#utility.yul\":3373:3769   */\n      jump(tag_249)\n    tag_251:\n        /* \"#utility.yul\":3377:3391   */\n      pop\n        /* \"#utility.yul\":3785:3789   */\n      dup3\n        /* \"#utility.yul\":3778:3789   */\n      swap8\n      pop\n        /* \"#utility.yul\":3805:3808   */\n      dup8\n        /* \"#utility.yul\":3798:3808   */\n      swap6\n      pop\n        /* \"#utility.yul\":2967:3814   */\n      pop\n      pop\n      pop\n      pop\n      pop\n        /* \"#utility.yul\":2823:3814   */\n      swap3\n      swap2\n      pop\n      pop\n      jump\t// out\n        /* \"#utility.yul\":3820:4164   */\n    tag_234:\n        /* \"#utility.yul\":3898:3901   */\n      0x00\n        /* \"#utility.yul\":3926:3965   */\n      tag_256\n        /* \"#utility.yul\":3959:3964   */\n      dup3\n        /* \"#utility.yul\":3926:3965   */\n      tag_257\n      jump\t// in\n    tag_256:\n        /* \"#utility.yul\":3981:4042   */\n      tag_258\n        /* \"#utility.yul\":4035:4041   */\n      dup2\n        /* \"#utility.yul\":4030:4033   */\n      dup6\n        /* \"#utility.yul\":3981:4042   */\n      tag_259\n      jump\t// in\n    tag_258:\n        /* \"#utility.yul\":3974:4042   */\n      swap4\n      pop\n        /* \"#utility.yul\":4051:4103   */\n      tag_260\n        /* \"#utility.yul\":4096:4102   */\n      dup2\n        /* \"#utility.yul\":4091:4094   */\n      dup6\n        /* \"#utility.yul\":4084:4088   */\n      0x20\n        /* \"#utility.yul\":4077:4082   */\n      dup7\n        /* \"#utility.yul\":4073:4089   */\n      add\n        /* \"#utility.yul\":4051:4103   */\n      tag_261\n      jump\t// in\n    tag_260:\n        /* \"#utility.yul\":4128:4157   */\n      tag_262\n        /* \"#utility.yul\":4150:4156   */\n      dup2\n        /* \"#utility.yul\":4128:4157   */\n      tag_263\n      jump\t// in\n    tag_262:\n        /* \"#utility.yul\":4123:4126   */\n      dup5\n        /* \"#utility.yul\":4119:4158   */\n      add\n        /* \"#utility.yul\":4112:4158   */\n      swap2\n      pop\n        /* \"#utility.yul\":3902:4164   */\n      pop\n        /* \"#utility.yul\":3820:4164   */\n      swap3\n      swap2\n      pop\n      pop\n      jump\t// out\n        /* \"#utility.yul\":4170:4534   */\n    tag_264:\n        /* \"#utility.yul\":4258:4261   */\n      0x00\n        /* \"#utility.yul\":4286:4325   */\n      tag_266\n        /* \"#utility.yul\":4319:4324   */\n      dup3\n        /* \"#utility.yul\":4286:4325   */\n      tag_257\n      jump\t// in\n    tag_266:\n        /* \"#utility.yul\":4341:4412   */\n      tag_267\n        /* \"#utility.yul\":4405:4411   */\n      dup2\n        /* \"#utility.yul\":4400:4403   */\n      dup6\n        /* \"#utility.yul\":4341:4412   */\n      tag_268\n      jump\t// in\n    tag_267:\n        /* \"#utility.yul\":4334:4412   */\n      swap4\n      pop\n        /* \"#utility.yul\":4421:4473   */\n      tag_269\n        /* \"#utility.yul\":4466:4472   */\n      dup2\n        /* \"#utility.yul\":4461:4464   */\n      dup6\n        /* \"#utility.yul\":4454:4458   */\n      0x20\n        /* \"#utility.yul\":4447:4452   */\n      dup7\n        /* \"#utility.yul\":4443:4459   */\n      add\n        /* \"#utility.yul\":4421:4473   */\n      tag_261\n      jump\t// in\n    tag_269:\n        /* \"#utility.yul\":4498:4527   */\n      tag_270\n        /* \"#utility.yul\":4520:4526   */\n      dup2\n        /* \"#utility.yul\":4498:4527   */\n      tag_263\n      jump\t// in\n    tag_270:\n        /* \"#utility.yul\":4493:4496   */\n      dup5\n        /* \"#utility.yul\":4489:4528   */\n      add\n        /* \"#utility.yul\":4482:4528   */\n      swap2\n      pop\n        /* \"#utility.yul\":4262:4534   */\n      pop\n        /* \"#utility.yul\":4170:4534   */\n      swap3\n      swap2\n      pop\n      pop\n      jump\t// out\n        /* \"#utility.yul\":4540:4917   */\n    tag_271:\n        /* \"#utility.yul\":4646:4649   */\n      0x00\n        /* \"#utility.yul\":4674:4713   */\n      tag_273\n        /* \"#utility.yul\":4707:4712   */\n      dup3\n        /* \"#utility.yul\":4674:4713   */\n      tag_257\n      jump\t// in\n    tag_273:\n        /* \"#utility.yul\":4729:4818   */\n      tag_274\n        /* \"#utility.yul\":4811:4817   */\n      dup2\n        /* \"#utility.yul\":4806:4809   */\n      dup6\n        /* \"#utility.yul\":4729:4818   */\n      tag_275\n      jump\t// in\n    tag_274:\n        /* \"#utility.yul\":4722:4818   */\n      swap4\n      pop\n        /* \"#utility.yul\":4827:4879   */\n      tag_276\n        /* \"#utility.yul\":4872:4878   */\n      dup2\n        /* \"#utility.yul\":4867:4870   */\n      dup6\n        /* \"#utility.yul\":4860:4864   */\n      0x20\n        /* \"#utility.yul\":4853:4858   */\n      dup7\n        /* \"#utility.yul\":4849:4865   */\n      add\n        /* \"#utility.yul\":4827:4879   */\n      tag_261\n      jump\t// in\n    tag_276:\n        /* \"#utility.yul\":4904:4910   */\n      dup1\n        /* \"#utility.yul\":4899:4902   */\n      dup5\n        /* \"#utility.yul\":4895:4911   */\n      add\n        /* \"#utility.yul\":4888:4911   */\n      swap2\n      pop\n        /* \"#utility.yul\":4650:4917   */\n      pop\n        /* \"#utility.yul\":4540:4917   */\n      swap3\n      swap2\n      pop\n      pop\n      jump\t// out\n        /* \"#utility.yul\":4947:5792   */\n    tag_277:\n        /* \"#utility.yul\":5050:5053   */\n      0x00\n        /* \"#utility.yul\":5087:5092   */\n      dup2\n        /* \"#utility.yul\":5081:5093   */\n      sload\n        /* \"#utility.yul\":5116:5152   */\n      tag_279\n        /* \"#utility.yul\":5142:5151   */\n      dup2\n        /* \"#utility.yul\":5116:5152   */\n      tag_47\n      jump\t// in\n    tag_279:\n        /* \"#utility.yul\":5168:5257   */\n      tag_280\n        /* \"#utility.yul\":5250:5256   */\n      dup2\n        /* \"#utility.yul\":5245:5248   */\n      dup7\n        /* \"#utility.yul\":5168:5257   */\n      tag_275\n      jump\t// in\n    tag_280:\n        /* \"#utility.yul\":5161:5257   */\n      swap5\n      pop\n        /* \"#utility.yul\":5288:5289   */\n      0x01\n        /* \"#utility.yul\":5277:5286   */\n      dup3\n        /* \"#utility.yul\":5273:5290   */\n      and\n        /* \"#utility.yul\":5304:5305   */\n      0x00\n        /* \"#utility.yul\":5299:5436   */\n      dup2\n      eq\n      tag_282\n      jumpi\n        /* \"#utility.yul\":5450:5451   */\n      0x01\n        /* \"#utility.yul\":5445:5786   */\n      dup2\n      eq\n      tag_283\n      jumpi\n        /* \"#utility.yul\":5266:5786   */\n      jump(tag_281)\n        /* \"#utility.yul\":5299:5436   */\n    tag_282:\n        /* \"#utility.yul\":5383:5387   */\n      0xff\n        /* \"#utility.yul\":5379:5388   */\n      not\n        /* \"#utility.yul\":5368:5377   */\n      dup4\n        /* \"#utility.yul\":5364:5389   */\n      and\n        /* \"#utility.yul\":5359:5362   */\n      dup7\n        /* \"#utility.yul\":5352:5390   */\n      mstore\n        /* \"#utility.yul\":5419:5425   */\n      dup2\n        /* \"#utility.yul\":5414:5417   */\n      dup7\n        /* \"#utility.yul\":5410:5426   */\n      add\n        /* \"#utility.yul\":5403:5426   */\n      swap4\n      pop\n        /* \"#utility.yul\":5299:5436   */\n      jump(tag_281)\n        /* \"#utility.yul\":5445:5786   */\n    tag_283:\n        /* \"#utility.yul\":5512:5550   */\n      tag_284\n        /* \"#utility.yul\":5544:5549   */\n      dup6\n        /* \"#utility.yul\":5512:5550   */\n      tag_285\n      jump\t// in\n    tag_284:\n        /* \"#utility.yul\":5572:5573   */\n      0x00\n        /* \"#utility.yul\":5586:5740   */\n    tag_286:\n        /* \"#utility.yul\":5600:5606   */\n      dup4\n        /* \"#utility.yul\":5597:5598   */\n      dup2\n        /* \"#utility.yul\":5594:5607   */\n      lt\n        /* \"#utility.yul\":5586:5740   */\n      iszero\n      tag_288\n      jumpi\n        /* \"#utility.yul\":5674:5681   */\n      dup2\n        /* \"#utility.yul\":5668:5682   */\n      sload\n        /* \"#utility.yul\":5664:5665   */\n      dup2\n        /* \"#utility.yul\":5659:5662   */\n      dup10\n        /* \"#utility.yul\":5655:5666   */\n      add\n        /* \"#utility.yul\":5648:5683   */\n      mstore\n        /* \"#utility.yul\":5724:5725   */\n      0x01\n        /* \"#utility.yul\":5715:5722   */\n      dup3\n        /* \"#utility.yul\":5711:5726   */\n      add\n        /* \"#utility.yul\":5700:5726   */\n      swap2\n      pop\n        /* \"#utility.yul\":5622:5626   */\n      0x20\n        /* \"#utility.yul\":5619:5620   */\n      dup2\n        /* \"#utility.yul\":5615:5627   */\n      add\n        /* \"#utility.yul\":5610:5627   */\n      swap1\n      pop\n        /* \"#utility.yul\":5586:5740   */\n      jump(tag_286)\n    tag_288:\n        /* \"#utility.yul\":5769:5775   */\n      dup4\n        /* \"#utility.yul\":5764:5767   */\n      dup9\n        /* \"#utility.yul\":5760:5776   */\n      add\n        /* \"#utility.yul\":5753:5776   */\n      swap6\n      pop\n        /* \"#utility.yul\":5452:5786   */\n      pop\n      pop\n        /* \"#utility.yul\":5266:5786   */\n    tag_281:\n      pop\n        /* \"#utility.yul\":5054:5792   */\n      pop\n      pop\n        /* \"#utility.yul\":4947:5792   */\n      swap3\n      swap2\n      pop\n      pop\n      jump\t// out\n        /* \"#utility.yul\":5798:6164   */\n    tag_289:\n        /* \"#utility.yul\":5940:5943   */\n      0x00\n        /* \"#utility.yul\":5961:6028   */\n      tag_291\n        /* \"#utility.yul\":6025:6027   */\n      0x1c\n        /* \"#utility.yul\":6020:6023   */\n      dup4\n        /* \"#utility.yul\":5961:6028   */\n      tag_268\n      jump\t// in\n    tag_291:\n        /* \"#utility.yul\":5954:6028   */\n      swap2\n      pop\n        /* \"#utility.yul\":6037:6130   */\n      tag_292\n        /* \"#utility.yul\":6126:6129   */\n      dup3\n        /* \"#utility.yul\":6037:6130   */\n      tag_293\n      jump\t// in\n    tag_292:\n        /* \"#utility.yul\":6155:6157   */\n      0x20\n        /* \"#utility.yul\":6150:6153   */\n      dup3\n        /* \"#utility.yul\":6146:6158   */\n      add\n        /* \"#utility.yul\":6139:6158   */\n      swap1\n      pop\n        /* \"#utility.yul\":5798:6164   */\n      swap2\n      swap1\n      pop\n      jump\t// out\n        /* \"#utility.yul\":6170:6570   */\n    tag_294:\n        /* \"#utility.yul\":6330:6333   */\n      0x00\n        /* \"#utility.yul\":6351:6435   */\n      tag_296\n        /* \"#utility.yul\":6433:6434   */\n      0x03\n        /* \"#utility.yul\":6428:6431   */\n      dup4\n        /* \"#utility.yul\":6351:6435   */\n      tag_275\n      jump\t// in\n    tag_296:\n        /* \"#utility.yul\":6344:6435   */\n      swap2\n      pop\n        /* \"#utility.yul\":6444:6537   */\n      tag_297\n        /* \"#utility.yul\":6533:6536   */\n      dup3\n        /* \"#utility.yul\":6444:6537   */\n      tag_298\n      jump\t// in\n    tag_297:\n        /* \"#utility.yul\":6562:6563   */\n      0x03\n        /* \"#utility.yul\":6557:6560   */\n      dup3\n        /* \"#utility.yul\":6553:6564   */\n      add\n        /* \"#utility.yul\":6546:6564   */\n      swap1\n      pop\n        /* \"#utility.yul\":6170:6570   */\n      swap2\n      swap1\n      pop\n      jump\t// out\n        /* \"#utility.yul\":6576:6942   */\n    tag_299:\n        /* \"#utility.yul\":6718:6721   */\n      0x00\n        /* \"#utility.yul\":6739:6806   */\n      tag_301\n        /* \"#utility.yul\":6803:6805   */\n      0x1b\n        /* \"#utility.yul\":6798:6801   */\n      dup4\n        /* \"#utility.yul\":6739:6806   */\n      tag_268\n      jump\t// in\n    tag_301:\n        /* \"#utility.yul\":6732:6806   */\n      swap2\n      pop\n        /* \"#utility.yul\":6815:6908   */\n      tag_302\n        /* \"#utility.yul\":6904:6907   */\n      dup3\n        /* \"#utility.yul\":6815:6908   */\n      tag_303\n      jump\t// in\n    tag_302:\n        /* \"#utility.yul\":6933:6935   */\n      0x20\n        /* \"#utility.yul\":6928:6931   */\n      dup3\n        /* \"#utility.yul\":6924:6936   */\n      add\n        /* \"#utility.yul\":6917:6936   */\n      swap1\n      pop\n        /* \"#utility.yul\":6576:6942   */\n      swap2\n      swap1\n      pop\n      jump\t// out\n        /* \"#utility.yul\":6948:7348   */\n    tag_304:\n        /* \"#utility.yul\":7108:7111   */\n      0x00\n        /* \"#utility.yul\":7129:7213   */\n      tag_306\n        /* \"#utility.yul\":7211:7212   */\n      0x03\n        /* \"#utility.yul\":7206:7209   */\n      dup4\n        /* \"#utility.yul\":7129:7213   */\n      tag_275\n      jump\t// in\n    tag_306:\n        /* \"#utility.yul\":7122:7213   */\n      swap2\n      pop\n        /* \"#utility.yul\":7222:7315   */\n      tag_307\n        /* \"#utility.yul\":7311:7314   */\n      dup3\n        /* \"#utility.yul\":7222:7315   */\n      tag_308\n      jump\t// in\n    tag_307:\n        /* \"#utility.yul\":7340:7341   */\n      0x03\n        /* \"#utility.yul\":7335:7338   */\n      dup3\n        /* \"#utility.yul\":7331:7342   */\n      add\n        /* \"#utility.yul\":7324:7342   */\n      swap1\n      pop\n        /* \"#utility.yul\":6948:7348   */\n      swap2\n      swap1\n      pop\n      jump\t// out\n        /* \"#utility.yul\":7354:7472   */\n    tag_309:\n        /* \"#utility.yul\":7441:7465   */\n      tag_311\n        /* \"#utility.yul\":7459:7464   */\n      dup2\n        /* \"#utility.yul\":7441:7465   */\n      tag_312\n      jump\t// in\n    tag_311:\n        /* \"#utility.yul\":7436:7439   */\n      dup3\n        /* \"#utility.yul\":7429:7466   */\n      mstore\n        /* \"#utility.yul\":7354:7472   */\n      pop\n      pop\n      jump\t// out\n        /* \"#utility.yul\":7478:7635   */\n    tag_313:\n        /* \"#utility.yul\":7583:7628   */\n      tag_315\n        /* \"#utility.yul\":7603:7627   */\n      tag_316\n        /* \"#utility.yul\":7621:7626   */\n      dup3\n        /* \"#utility.yul\":7603:7627   */\n      tag_312\n      jump\t// in\n    tag_316:\n        /* \"#utility.yul\":7583:7628   */\n      tag_317\n      jump\t// in\n    tag_315:\n        /* \"#utility.yul\":7578:7581   */\n      dup3\n        /* \"#utility.yul\":7571:7629   */\n      mstore\n        /* \"#utility.yul\":7478:7635   */\n      pop\n      pop\n      jump\t// out\n        /* \"#utility.yul\":7641:7897   */\n    tag_128:\n        /* \"#utility.yul\":7753:7756   */\n      0x00\n        /* \"#utility.yul\":7768:7843   */\n      tag_319\n        /* \"#utility.yul\":7839:7842   */\n      dup3\n        /* \"#utility.yul\":7830:7836   */\n      dup5\n        /* \"#utility.yul\":7768:7843   */\n      tag_235\n      jump\t// in\n    tag_319:\n        /* \"#utility.yul\":7868:7870   */\n      0x14\n        /* \"#utility.yul\":7863:7866   */\n      dup3\n        /* \"#utility.yul\":7859:7871   */\n      add\n        /* \"#utility.yul\":7852:7871   */\n      swap2\n      pop\n        /* \"#utility.yul\":7888:7891   */\n      dup2\n        /* \"#utility.yul\":7881:7891   */\n      swap1\n      pop\n        /* \"#utility.yul\":7641:7897   */\n      swap3\n      swap2\n      pop\n      pop\n      jump\t// out\n        /* \"#utility.yul\":7903:8178   */\n    tag_61:\n        /* \"#utility.yul\":8035:8038   */\n      0x00\n        /* \"#utility.yul\":8057:8152   */\n      tag_321\n        /* \"#utility.yul\":8148:8151   */\n      dup3\n        /* \"#utility.yul\":8139:8145   */\n      dup5\n        /* \"#utility.yul\":8057:8152   */\n      tag_271\n      jump\t// in\n    tag_321:\n        /* \"#utility.yul\":8050:8152   */\n      swap2\n      pop\n        /* \"#utility.yul\":8169:8172   */\n      dup2\n        /* \"#utility.yul\":8162:8172   */\n      swap1\n      pop\n        /* \"#utility.yul\":7903:8178   */\n      swap3\n      swap2\n      pop\n      pop\n      jump\t// out\n        /* \"#utility.yul\":8184:9305   */\n    tag_54:\n        /* \"#utility.yul\":8611:8614   */\n      0x00\n        /* \"#utility.yul\":8633:8728   */\n      tag_323\n        /* \"#utility.yul\":8724:8727   */\n      dup3\n        /* \"#utility.yul\":8715:8721   */\n      dup7\n        /* \"#utility.yul\":8633:8728   */\n      tag_271\n      jump\t// in\n    tag_323:\n        /* \"#utility.yul\":8626:8728   */\n      swap2\n      pop\n        /* \"#utility.yul\":8745:8837   */\n      tag_324\n        /* \"#utility.yul\":8833:8836   */\n      dup3\n        /* \"#utility.yul\":8824:8830   */\n      dup6\n        /* \"#utility.yul\":8745:8837   */\n      tag_277\n      jump\t// in\n    tag_324:\n        /* \"#utility.yul\":8738:8837   */\n      swap2\n      pop\n        /* \"#utility.yul\":8854:9002   */\n      tag_325\n        /* \"#utility.yul\":8998:9001   */\n      dup3\n        /* \"#utility.yul\":8854:9002   */\n      tag_304\n      jump\t// in\n    tag_325:\n        /* \"#utility.yul\":8847:9002   */\n      swap2\n      pop\n        /* \"#utility.yul\":9019:9114   */\n      tag_326\n        /* \"#utility.yul\":9110:9113   */\n      dup3\n        /* \"#utility.yul\":9101:9107   */\n      dup5\n        /* \"#utility.yul\":9019:9114   */\n      tag_271\n      jump\t// in\n    tag_326:\n        /* \"#utility.yul\":9012:9114   */\n      swap2\n      pop\n        /* \"#utility.yul\":9131:9279   */\n      tag_327\n        /* \"#utility.yul\":9275:9278   */\n      dup3\n        /* \"#utility.yul\":9131:9279   */\n      tag_294\n      jump\t// in\n    tag_327:\n        /* \"#utility.yul\":9124:9279   */\n      swap2\n      pop\n        /* \"#utility.yul\":9296:9299   */\n      dup2\n        /* \"#utility.yul\":9289:9299   */\n      swap1\n      pop\n        /* \"#utility.yul\":8184:9305   */\n      swap5\n      swap4\n      pop\n      pop\n      pop\n      pop\n      jump\t// out\n        /* \"#utility.yul\":9311:9887   */\n    tag_59:\n        /* \"#utility.yul\":9519:9522   */\n      0x00\n        /* \"#utility.yul\":9541:9636   */\n      tag_329\n        /* \"#utility.yul\":9632:9635   */\n      dup3\n        /* \"#utility.yul\":9623:9629   */\n      dup7\n        /* \"#utility.yul\":9541:9636   */\n      tag_271\n      jump\t// in\n    tag_329:\n        /* \"#utility.yul\":9534:9636   */\n      swap2\n      pop\n        /* \"#utility.yul\":9646:9721   */\n      tag_330\n        /* \"#utility.yul\":9717:9720   */\n      dup3\n        /* \"#utility.yul\":9708:9714   */\n      dup6\n        /* \"#utility.yul\":9646:9721   */\n      tag_313\n      jump\t// in\n    tag_330:\n        /* \"#utility.yul\":9746:9748   */\n      0x20\n        /* \"#utility.yul\":9741:9744   */\n      dup3\n        /* \"#utility.yul\":9737:9749   */\n      add\n        /* \"#utility.yul\":9730:9749   */\n      swap2\n      pop\n        /* \"#utility.yul\":9766:9861   */\n      tag_331\n        /* \"#utility.yul\":9857:9860   */\n      dup3\n        /* \"#utility.yul\":9848:9854   */\n      dup5\n        /* \"#utility.yul\":9766:9861   */\n      tag_271\n      jump\t// in\n    tag_331:\n        /* \"#utility.yul\":9759:9861   */\n      swap2\n      pop\n        /* \"#utility.yul\":9878:9881   */\n      dup2\n        /* \"#utility.yul\":9871:9881   */\n      swap1\n      pop\n        /* \"#utility.yul\":9311:9887   */\n      swap5\n      swap4\n      pop\n      pop\n      pop\n      pop\n      jump\t// out\n        /* \"#utility.yul\":9893:10162   */\n    tag_74:\n        /* \"#utility.yul\":10022:10025   */\n      0x00\n        /* \"#utility.yul\":10044:10136   */\n      tag_333\n        /* \"#utility.yul\":10132:10135   */\n      dup3\n        /* \"#utility.yul\":10123:10129   */\n      dup5\n        /* \"#utility.yul\":10044:10136   */\n      tag_277\n      jump\t// in\n    tag_333:\n        /* \"#utility.yul\":10037:10136   */\n      swap2\n      pop\n        /* \"#utility.yul\":10153:10156   */\n      dup2\n        /* \"#utility.yul\":10146:10156   */\n      swap1\n      pop\n        /* \"#utility.yul\":9893:10162   */\n      swap3\n      swap2\n      pop\n      pop\n      jump\t// out\n        /* \"#utility.yul\":10168:10581   */\n    tag_26:\n        /* \"#utility.yul\":10331:10335   */\n      0x00\n        /* \"#utility.yul\":10369:10371   */\n      0x20\n        /* \"#utility.yul\":10358:10367   */\n      dup3\n        /* \"#utility.yul\":10354:10372   */\n      add\n        /* \"#utility.yul\":10346:10372   */\n      swap1\n      pop\n        /* \"#utility.yul\":10418:10427   */\n      dup2\n        /* \"#utility.yul\":10412:10416   */\n      dup2\n        /* \"#utility.yul\":10408:10428   */\n      sub\n        /* \"#utility.yul\":10404:10405   */\n      0x00\n        /* \"#utility.yul\":10393:10402   */\n      dup4\n        /* \"#utility.yul\":10389:10406   */\n      add\n        /* \"#utility.yul\":10382:10429   */\n      mstore\n        /* \"#utility.yul\":10446:10574   */\n      tag_335\n        /* \"#utility.yul\":10569:10573   */\n      dup2\n        /* \"#utility.yul\":10560:10566   */\n      dup5\n        /* \"#utility.yul\":10446:10574   */\n      tag_241\n      jump\t// in\n    tag_335:\n        /* \"#utility.yul\":10438:10574   */\n      swap1\n      pop\n        /* \"#utility.yul\":10168:10581   */\n      swap3\n      swap2\n      pop\n      pop\n      jump\t// out\n        /* \"#utility.yul\":10587:10900   */\n    tag_12:\n        /* \"#utility.yul\":10700:10704   */\n      0x00\n        /* \"#utility.yul\":10738:10740   */\n      0x20\n        /* \"#utility.yul\":10727:10736   */\n      dup3\n        /* \"#utility.yul\":10723:10741   */\n      add\n        /* \"#utility.yul\":10715:10741   */\n      swap1\n      pop\n        /* \"#utility.yul\":10787:10796   */\n      dup2\n        /* \"#utility.yul\":10781:10785   */\n      dup2\n        /* \"#utility.yul\":10777:10797   */\n      sub\n        /* \"#utility.yul\":10773:10774   */\n      0x00\n        /* \"#utility.yul\":10762:10771   */\n      dup4\n        /* \"#utility.yul\":10758:10775   */\n      add\n        /* \"#utility.yul\":10751:10798   */\n      mstore\n        /* \"#utility.yul\":10815:10893   */\n      tag_337\n        /* \"#utility.yul\":10888:10892   */\n      dup2\n        /* \"#utility.yul\":10879:10885   */\n      dup5\n        /* \"#utility.yul\":10815:10893   */\n      tag_264\n      jump\t// in\n    tag_337:\n        /* \"#utility.yul\":10807:10893   */\n      swap1\n      pop\n        /* \"#utility.yul\":10587:10900   */\n      swap3\n      swap2\n      pop\n      pop\n      jump\t// out\n        /* \"#utility.yul\":10906:11325   */\n    tag_79:\n        /* \"#utility.yul\":11072:11076   */\n      0x00\n        /* \"#utility.yul\":11110:11112   */\n      0x20\n        /* \"#utility.yul\":11099:11108   */\n      dup3\n        /* \"#utility.yul\":11095:11113   */\n      add\n        /* \"#utility.yul\":11087:11113   */\n      swap1\n      pop\n        /* \"#utility.yul\":11159:11168   */\n      dup2\n        /* \"#utility.yul\":11153:11157   */\n      dup2\n        /* \"#utility.yul\":11149:11169   */\n      sub\n        /* \"#utility.yul\":11145:11146   */\n      0x00\n        /* \"#utility.yul\":11134:11143   */\n      dup4\n        /* \"#utility.yul\":11130:11147   */\n      add\n        /* \"#utility.yul\":11123:11170   */\n      mstore\n        /* \"#utility.yul\":11187:11318   */\n      tag_339\n        /* \"#utility.yul\":11313:11317   */\n      dup2\n        /* \"#utility.yul\":11187:11318   */\n      tag_289\n      jump\t// in\n    tag_339:\n        /* \"#utility.yul\":11179:11318   */\n      swap1\n      pop\n        /* \"#utility.yul\":10906:11325   */\n      swap2\n      swap1\n      pop\n      jump\t// out\n        /* \"#utility.yul\":11331:11750   */\n    tag_137:\n        /* \"#utility.yul\":11497:11501   */\n      0x00\n        /* \"#utility.yul\":11535:11537   */\n      0x20\n        /* \"#utility.yul\":11524:11533   */\n      dup3\n        /* \"#utility.yul\":11520:11538   */\n      add\n        /* \"#utility.yul\":11512:11538   */\n      swap1\n      pop\n        /* \"#utility.yul\":11584:11593   */\n      dup2\n        /* \"#utility.yul\":11578:11582   */\n      dup2\n        /* \"#utility.yul\":11574:11594   */\n      sub\n        /* \"#utility.yul\":11570:11571   */\n      0x00\n        /* \"#utility.yul\":11559:11568   */\n      dup4\n        /* \"#utility.yul\":11555:11572   */\n      add\n        /* \"#utility.yul\":11548:11595   */\n      mstore\n        /* \"#utility.yul\":11612:11743   */\n      tag_341\n        /* \"#utility.yul\":11738:11742   */\n      dup2\n        /* \"#utility.yul\":11612:11743   */\n      tag_299\n      jump\t// in\n    tag_341:\n        /* \"#utility.yul\":11604:11743   */\n      swap1\n      pop\n        /* \"#utility.yul\":11331:11750   */\n      swap2\n      swap1\n      pop\n      jump\t// out\n        /* \"#utility.yul\":11756:11978   */\n    tag_22:\n        /* \"#utility.yul\":11849:11853   */\n      0x00\n        /* \"#utility.yul\":11887:11889   */\n      0x20\n        /* \"#utility.yul\":11876:11885   */\n      dup3\n        /* \"#utility.yul\":11872:11890   */\n      add\n        /* \"#utility.yul\":11864:11890   */\n      swap1\n      pop\n        /* \"#utility.yul\":11900:11971   */\n      tag_343\n        /* \"#utility.yul\":11968:11969   */\n      0x00\n        /* \"#utility.yul\":11957:11966   */\n      dup4\n        /* \"#utility.yul\":11953:11970   */\n      add\n        /* \"#utility.yul\":11944:11950   */\n      dup5\n        /* \"#utility.yul\":11900:11971   */\n      tag_309\n      jump\t// in\n    tag_343:\n        /* \"#utility.yul\":11756:11978   */\n      swap3\n      swap2\n      pop\n      pop\n      jump\t// out\n        /* \"#utility.yul\":11984:12113   */\n    tag_197:\n        /* \"#utility.yul\":12018:12024   */\n      0x00\n        /* \"#utility.yul\":12045:12065   */\n      tag_345\n      tag_346\n      jump\t// in\n    tag_345:\n        /* \"#utility.yul\":12035:12065   */\n      swap1\n      pop\n        /* \"#utility.yul\":12074:12107   */\n      tag_347\n        /* \"#utility.yul\":12102:12106   */\n      dup3\n        /* \"#utility.yul\":12094:12100   */\n      dup3\n        /* \"#utility.yul\":12074:12107   */\n      tag_348\n      jump\t// in\n    tag_347:\n        /* \"#utility.yul\":11984:12113   */\n      swap2\n      swap1\n      pop\n      jump\t// out\n        /* \"#utility.yul\":12119:12194   */\n    tag_346:\n        /* \"#utility.yul\":12152:12158   */\n      0x00\n        /* \"#utility.yul\":12185:12187   */\n      0x40\n        /* \"#utility.yul\":12179:12188   */\n      mload\n        /* \"#utility.yul\":12169:12188   */\n      swap1\n      pop\n        /* \"#utility.yul\":12119:12194   */\n      swap1\n      jump\t// out\n        /* \"#utility.yul\":12200:12508   */\n    tag_196:\n        /* \"#utility.yul\":12262:12266   */\n      0x00\n        /* \"#utility.yul\":12352:12370   */\n      0xffffffffffffffff\n        /* \"#utility.yul\":12344:12350   */\n      dup3\n        /* \"#utility.yul\":12341:12371   */\n      gt\n        /* \"#utility.yul\":12338:12394   */\n      iszero\n      tag_351\n      jumpi\n        /* \"#utility.yul\":12374:12392   */\n      tag_352\n      tag_166\n      jump\t// in\n    tag_352:\n        /* \"#utility.yul\":12338:12394   */\n    tag_351:\n        /* \"#utility.yul\":12412:12441   */\n      tag_353\n        /* \"#utility.yul\":12434:12440   */\n      dup3\n        /* \"#utility.yul\":12412:12441   */\n      tag_263\n      jump\t// in\n    tag_353:\n        /* \"#utility.yul\":12404:12441   */\n      swap1\n      pop\n        /* \"#utility.yul\":12496:12500   */\n      0x20\n        /* \"#utility.yul\":12490:12494   */\n      dup2\n        /* \"#utility.yul\":12486:12501   */\n      add\n        /* \"#utility.yul\":12478:12501   */\n      swap1\n      pop\n        /* \"#utility.yul\":12200:12508   */\n      swap2\n      swap1\n      pop\n      jump\t// out\n        /* \"#utility.yul\":12514:12656   */\n    tag_248:\n        /* \"#utility.yul\":12591:12595   */\n      0x00\n        /* \"#utility.yul\":12614:12617   */\n      dup2\n        /* \"#utility.yul\":12606:12617   */\n      swap1\n      pop\n        /* \"#utility.yul\":12644:12648   */\n      0x20\n        /* \"#utility.yul\":12639:12642   */\n      dup3\n        /* \"#utility.yul\":12635:12649   */\n      add\n        /* \"#utility.yul\":12627:12649   */\n      swap1\n      pop\n        /* \"#utility.yul\":12514:12656   */\n      swap2\n      swap1\n      pop\n      jump\t// out\n        /* \"#utility.yul\":12662:12803   */\n    tag_285:\n        /* \"#utility.yul\":12711:12715   */\n      0x00\n        /* \"#utility.yul\":12734:12737   */\n      dup2\n        /* \"#utility.yul\":12726:12737   */\n      swap1\n      pop\n        /* \"#utility.yul\":12757:12760   */\n      dup2\n        /* \"#utility.yul\":12754:12755   */\n      0x00\n        /* \"#utility.yul\":12747:12761   */\n      mstore\n        /* \"#utility.yul\":12791:12795   */\n      0x20\n        /* \"#utility.yul\":12788:12789   */\n      0x00\n        /* \"#utility.yul\":12778:12796   */\n      keccak256\n        /* \"#utility.yul\":12770:12796   */\n      swap1\n      pop\n        /* \"#utility.yul\":12662:12803   */\n      swap2\n      swap1\n      pop\n      jump\t// out\n        /* \"#utility.yul\":12809:12933   */\n    tag_244:\n        /* \"#utility.yul\":12886:12892   */\n      0x00\n        /* \"#utility.yul\":12920:12925   */\n      dup2\n        /* \"#utility.yul\":12914:12926   */\n      mload\n        /* \"#utility.yul\":12904:12926   */\n      swap1\n      pop\n        /* \"#utility.yul\":12809:12933   */\n      swap2\n      swap1\n      pop\n      jump\t// out\n        /* \"#utility.yul\":12939:13038   */\n    tag_257:\n        /* \"#utility.yul\":12991:12997   */\n      0x00\n        /* \"#utility.yul\":13025:13030   */\n      dup2\n        /* \"#utility.yul\":13019:13031   */\n      mload\n        /* \"#utility.yul\":13009:13031   */\n      swap1\n      pop\n        /* \"#utility.yul\":12939:13038   */\n      swap2\n      swap1\n      pop\n      jump\t// out\n        /* \"#utility.yul\":13044:13167   */\n    tag_254:\n        /* \"#utility.yul\":13124:13128   */\n      0x00\n        /* \"#utility.yul\":13156:13160   */\n      0x20\n        /* \"#utility.yul\":13151:13154   */\n      dup3\n        /* \"#utility.yul\":13147:13161   */\n      add\n        /* \"#utility.yul\":13139:13161   */\n      swap1\n      pop\n        /* \"#utility.yul\":13044:13167   */\n      swap2\n      swap1\n      pop\n      jump\t// out\n        /* \"#utility.yul\":13173:13367   */\n    tag_246:\n        /* \"#utility.yul\":13282:13293   */\n      0x00\n        /* \"#utility.yul\":13316:13322   */\n      dup3\n        /* \"#utility.yul\":13311:13314   */\n      dup3\n        /* \"#utility.yul\":13304:13323   */\n      mstore\n        /* \"#utility.yul\":13356:13360   */\n      0x20\n        /* \"#utility.yul\":13351:13354   */\n      dup3\n        /* \"#utility.yul\":13347:13361   */\n      add\n        /* \"#utility.yul\":13332:13361   */\n      swap1\n      pop\n        /* \"#utility.yul\":13173:13367   */\n      swap3\n      swap2\n      pop\n      pop\n      jump\t// out\n        /* \"#utility.yul\":13373:13532   */\n    tag_259:\n        /* \"#utility.yul\":13447:13458   */\n      0x00\n        /* \"#utility.yul\":13481:13487   */\n      dup3\n        /* \"#utility.yul\":13476:13479   */\n      dup3\n        /* \"#utility.yul\":13469:13488   */\n      mstore\n        /* \"#utility.yul\":13521:13525   */\n      0x20\n        /* \"#utility.yul\":13516:13519   */\n      dup3\n        /* \"#utility.yul\":13512:13526   */\n      add\n        /* \"#utility.yul\":13497:13526   */\n      swap1\n      pop\n        /* \"#utility.yul\":13373:13532   */\n      swap3\n      swap2\n      pop\n      pop\n      jump\t// out\n        /* \"#utility.yul\":13538:13707   */\n    tag_268:\n        /* \"#utility.yul\":13622:13633   */\n      0x00\n        /* \"#utility.yul\":13656:13662   */\n      dup3\n        /* \"#utility.yul\":13651:13654   */\n      dup3\n        /* \"#utility.yul\":13644:13663   */\n      mstore\n        /* \"#utility.yul\":13696:13700   */\n      0x20\n        /* \"#utility.yul\":13691:13694   */\n      dup3\n        /* \"#utility.yul\":13687:13701   */\n      add\n        /* \"#utility.yul\":13672:13701   */\n      swap1\n      pop\n        /* \"#utility.yul\":13538:13707   */\n      swap3\n      swap2\n      pop\n      pop\n      jump\t// out\n        /* \"#utility.yul\":13713:13861   */\n    tag_275:\n        /* \"#utility.yul\":13815:13826   */\n      0x00\n        /* \"#utility.yul\":13852:13855   */\n      dup2\n        /* \"#utility.yul\":13837:13855   */\n      swap1\n      pop\n        /* \"#utility.yul\":13713:13861   */\n      swap3\n      swap2\n      pop\n      pop\n      jump\t// out\n        /* \"#utility.yul\":13867:14104   */\n    tag_177:\n        /* \"#utility.yul\":13905:13908   */\n      0x00\n        /* \"#utility.yul\":13924:13942   */\n      tag_364\n        /* \"#utility.yul\":13940:13941   */\n      dup3\n        /* \"#utility.yul\":13924:13942   */\n      tag_365\n      jump\t// in\n    tag_364:\n        /* \"#utility.yul\":13919:13942   */\n      swap2\n      pop\n        /* \"#utility.yul\":13956:13974   */\n      tag_366\n        /* \"#utility.yul\":13972:13973   */\n      dup4\n        /* \"#utility.yul\":13956:13974   */\n      tag_365\n      jump\t// in\n    tag_366:\n        /* \"#utility.yul\":13951:13974   */\n      swap3\n      pop\n        /* \"#utility.yul\":14046:14047   */\n      dup3\n        /* \"#utility.yul\":14040:14044   */\n      0xff\n        /* \"#utility.yul\":14036:14048   */\n      sub\n        /* \"#utility.yul\":14033:14034   */\n      dup3\n        /* \"#utility.yul\":14030:14049   */\n      gt\n        /* \"#utility.yul\":14027:14072   */\n      iszero\n      tag_367\n      jumpi\n        /* \"#utility.yul\":14052:14070   */\n      tag_368\n      tag_369\n      jump\t// in\n    tag_368:\n        /* \"#utility.yul\":14027:14072   */\n    tag_367:\n        /* \"#utility.yul\":14096:14097   */\n      dup3\n        /* \"#utility.yul\":14093:14094   */\n      dup3\n        /* \"#utility.yul\":14089:14098   */\n      add\n        /* \"#utility.yul\":14082:14098   */\n      swap1\n      pop\n        /* \"#utility.yul\":13867:14104   */\n      swap3\n      swap2\n      pop\n      pop\n      jump\t// out\n        /* \"#utility.yul\":14110:14295   */\n    tag_163:\n        /* \"#utility.yul\":14150:14151   */\n      0x00\n        /* \"#utility.yul\":14167:14187   */\n      tag_371\n        /* \"#utility.yul\":14185:14186   */\n      dup3\n        /* \"#utility.yul\":14167:14187   */\n      tag_312\n      jump\t// in\n    tag_371:\n        /* \"#utility.yul\":14162:14187   */\n      swap2\n      pop\n        /* \"#utility.yul\":14201:14221   */\n      tag_372\n        /* \"#utility.yul\":14219:14220   */\n      dup4\n        /* \"#utility.yul\":14201:14221   */\n      tag_312\n      jump\t// in\n    tag_372:\n        /* \"#utility.yul\":14196:14221   */\n      swap3\n      pop\n        /* \"#utility.yul\":14240:14241   */\n      dup3\n        /* \"#utility.yul\":14230:14265   */\n      tag_373\n      jumpi\n        /* \"#utility.yul\":14245:14263   */\n      tag_374\n      tag_375\n      jump\t// in\n    tag_374:\n        /* \"#utility.yul\":14230:14265   */\n    tag_373:\n        /* \"#utility.yul\":14287:14288   */\n      dup3\n        /* \"#utility.yul\":14284:14285   */\n      dup3\n        /* \"#utility.yul\":14280:14289   */\n      div\n        /* \"#utility.yul\":14275:14289   */\n      swap1\n      pop\n        /* \"#utility.yul\":14110:14295   */\n      swap3\n      swap2\n      pop\n      pop\n      jump\t// out\n        /* \"#utility.yul\":14301:14649   */\n    tag_174:\n        /* \"#utility.yul\":14341:14348   */\n      0x00\n        /* \"#utility.yul\":14364:14384   */\n      tag_377\n        /* \"#utility.yul\":14382:14383   */\n      dup3\n        /* \"#utility.yul\":14364:14384   */\n      tag_312\n      jump\t// in\n    tag_377:\n        /* \"#utility.yul\":14359:14384   */\n      swap2\n      pop\n        /* \"#utility.yul\":14398:14418   */\n      tag_378\n        /* \"#utility.yul\":14416:14417   */\n      dup4\n        /* \"#utility.yul\":14398:14418   */\n      tag_312\n      jump\t// in\n    tag_378:\n        /* \"#utility.yul\":14393:14418   */\n      swap3\n      pop\n        /* \"#utility.yul\":14586:14587   */\n      dup2\n        /* \"#utility.yul\":14518:14584   */\n      0xffffffffffffffffffffffffffffffffffffffffffffffffffffffffffffffff\n        /* \"#utility.yul\":14514:14588   */\n      div\n        /* \"#utility.yul\":14511:14512   */\n      dup4\n        /* \"#utility.yul\":14508:14589   */\n      gt\n        /* \"#utility.yul\":14503:14504   */\n      dup3\n        /* \"#utility.yul\":14496:14505   */\n      iszero\n        /* \"#utility.yul\":14489:14506   */\n      iszero\n        /* \"#utility.yul\":14485:14590   */\n      and\n        /* \"#utility.yul\":14482:14613   */\n      iszero\n      tag_379\n      jumpi\n        /* \"#utility.yul\":14593:14611   */\n      tag_380\n      tag_369\n      jump\t// in\n    tag_380:\n        /* \"#utility.yul\":14482:14613   */\n    tag_379:\n        /* \"#utility.yul\":14641:14642   */\n      dup3\n        /* \"#utility.yul\":14638:14639   */\n      dup3\n        /* \"#utility.yul\":14634:14643   */\n      mul\n        /* \"#utility.yul\":14623:14643   */\n      swap1\n      pop\n        /* \"#utility.yul\":14301:14649   */\n      swap3\n      swap2\n      pop\n      pop\n      jump\t// out\n        /* \"#utility.yul\":14655:14846   */\n    tag_171:\n        /* \"#utility.yul\":14695:14699   */\n      0x00\n        /* \"#utility.yul\":14715:14735   */\n      tag_382\n        /* \"#utility.yul\":14733:14734   */\n      dup3\n        /* \"#utility.yul\":14715:14735   */\n      tag_312\n      jump\t// in\n    tag_382:\n        /* \"#utility.yul\":14710:14735   */\n      swap2\n      pop\n        /* \"#utility.yul\":14749:14769   */\n      tag_383\n        /* \"#utility.yul\":14767:14768   */\n      dup4\n        /* \"#utility.yul\":14749:14769   */\n      tag_312\n      jump\t// in\n    tag_383:\n        /* \"#utility.yul\":14744:14769   */\n      swap3\n      pop\n        /* \"#utility.yul\":14788:14789   */\n      dup3\n        /* \"#utility.yul\":14785:14786   */\n      dup3\n        /* \"#utility.yul\":14782:14790   */\n      lt\n        /* \"#utility.yul\":14779:14813   */\n      iszero\n      tag_384\n      jumpi\n        /* \"#utility.yul\":14793:14811   */\n      tag_385\n      tag_369\n      jump\t// in\n    tag_385:\n        /* \"#utility.yul\":14779:14813   */\n    tag_384:\n        /* \"#utility.yul\":14838:14839   */\n      dup3\n        /* \"#utility.yul\":14835:14836   */\n      dup3\n        /* \"#utility.yul\":14831:14840   */\n      sub\n        /* \"#utility.yul\":14823:14840   */\n      swap1\n      pop\n        /* \"#utility.yul\":14655:14846   */\n      swap3\n      swap2\n      pop\n      pop\n      jump\t// out\n        /* \"#utility.yul\":14852:14948   */\n    tag_239:\n        /* \"#utility.yul\":14889:14896   */\n      0x00\n        /* \"#utility.yul\":14918:14942   */\n      tag_387\n        /* \"#utility.yul\":14936:14941   */\n      dup3\n        /* \"#utility.yul\":14918:14942   */\n      tag_388\n      jump\t// in\n    tag_387:\n        /* \"#utility.yul\":14907:14942   */\n      swap1\n      pop\n        /* \"#utility.yul\":14852:14948   */\n      swap2\n      swap1\n      pop\n      jump\t// out\n        /* \"#utility.yul\":14954:15080   */\n    tag_388:\n        /* \"#utility.yul\":14991:14998   */\n      0x00\n        /* \"#utility.yul\":15031:15073   */\n      0xffffffffffffffffffffffffffffffffffffffff\n        /* \"#utility.yul\":15024:15029   */\n      dup3\n        /* \"#utility.yul\":15020:15074   */\n      and\n        /* \"#utility.yul\":15009:15074   */\n      swap1\n      pop\n        /* \"#utility.yul\":14954:15080   */\n      swap2\n      swap1\n      pop\n      jump\t// out\n        /* \"#utility.yul\":15086:15163   */\n    tag_312:\n        /* \"#utility.yul\":15123:15130   */\n      0x00\n        /* \"#utility.yul\":15152:15157   */\n      dup2\n        /* \"#utility.yul\":15141:15157   */\n      swap1\n      pop\n        /* \"#utility.yul\":15086:15163   */\n      swap2\n      swap1\n      pop\n      jump\t// out\n        /* \"#utility.yul\":15169:15255   */\n    tag_365:\n        /* \"#utility.yul\":15204:15211   */\n      0x00\n        /* \"#utility.yul\":15244:15248   */\n      0xff\n        /* \"#utility.yul\":15237:15242   */\n      dup3\n        /* \"#utility.yul\":15233:15249   */\n      and\n        /* \"#utility.yul\":15222:15249   */\n      swap1\n      pop\n        /* \"#utility.yul\":15169:15255   */\n      swap2\n      swap1\n      pop\n      jump\t// out\n        /* \"#utility.yul\":15261:15415   */\n    tag_202:\n        /* \"#utility.yul\":15345:15351   */\n      dup3\n        /* \"#utility.yul\":15340:15343   */\n      dup2\n        /* \"#utility.yul\":15335:15338   */\n      dup4\n        /* \"#utility.yul\":15322:15352   */\n      calldatacopy\n        /* \"#utility.yul\":15407:15408   */\n      0x00\n        /* \"#utility.yul\":15398:15404   */\n      dup4\n        /* \"#utility.yul\":15393:15396   */\n      dup4\n        /* \"#utility.yul\":15389:15405   */\n      add\n        /* \"#utility.yul\":15382:15409   */\n      mstore\n        /* \"#utility.yul\":15261:15415   */\n      pop\n      pop\n      pop\n      jump\t// out\n        /* \"#utility.yul\":15421:15728   */\n    tag_261:\n        /* \"#utility.yul\":15489:15490   */\n      0x00\n        /* \"#utility.yul\":15499:15612   */\n    tag_394:\n        /* \"#utility.yul\":15513:15519   */\n      dup4\n        /* \"#utility.yul\":15510:15511   */\n      dup2\n        /* \"#utility.yul\":15507:15520   */\n      lt\n        /* \"#utility.yul\":15499:15612   */\n      iszero\n      tag_396\n      jumpi\n        /* \"#utility.yul\":15598:15599   */\n      dup1\n        /* \"#utility.yul\":15593:15596   */\n      dup3\n        /* \"#utility.yul\":15589:15600   */\n      add\n        /* \"#utility.yul\":15583:15601   */\n      mload\n        /* \"#utility.yul\":15579:15580   */\n      dup2\n        /* \"#utility.yul\":15574:15577   */\n      dup5\n        /* \"#utility.yul\":15570:15581   */\n      add\n        /* \"#utility.yul\":15563:15602   */\n      mstore\n        /* \"#utility.yul\":15535:15537   */\n      0x20\n        /* \"#utility.yul\":15532:15533   */\n      dup2\n        /* \"#utility.yul\":15528:15538   */\n      add\n        /* \"#utility.yul\":15523:15538   */\n      swap1\n      pop\n        /* \"#utility.yul\":15499:15612   */\n      jump(tag_394)\n    tag_396:\n        /* \"#utility.yul\":15630:15636   */\n      dup4\n        /* \"#utility.yul\":15627:15628   */\n      dup2\n        /* \"#utility.yul\":15624:15637   */\n      gt\n        /* \"#utility.yul\":15621:15722   */\n      iszero\n      tag_397\n      jumpi\n        /* \"#utility.yul\":15710:15711   */\n      0x00\n        /* \"#utility.yul\":15701:15707   */\n      dup5\n        /* \"#utility.yul\":15696:15699   */\n      dup5\n        /* \"#utility.yul\":15692:15708   */\n      add\n        /* \"#utility.yul\":15685:15712   */\n      mstore\n        /* \"#utility.yul\":15621:15722   */\n    tag_397:\n        /* \"#utility.yul\":15470:15728   */\n      pop\n        /* \"#utility.yul\":15421:15728   */\n      pop\n      pop\n      pop\n      jump\t// out\n        /* \"#utility.yul\":15734:16054   */\n    tag_47:\n        /* \"#utility.yul\":15778:15784   */\n      0x00\n        /* \"#utility.yul\":15815:15816   */\n      0x02\n        /* \"#utility.yul\":15809:15813   */\n      dup3\n        /* \"#utility.yul\":15805:15817   */\n      div\n        /* \"#utility.yul\":15795:15817   */\n      swap1\n      pop\n        /* \"#utility.yul\":15862:15863   */\n      0x01\n        /* \"#utility.yul\":15856:15860   */\n      dup3\n        /* \"#utility.yul\":15852:15864   */\n      and\n        /* \"#utility.yul\":15883:15901   */\n      dup1\n        /* \"#utility.yul\":15873:15954   */\n      tag_399\n      jumpi\n        /* \"#utility.yul\":15939:15943   */\n      0x7f\n        /* \"#utility.yul\":15931:15937   */\n      dup3\n        /* \"#utility.yul\":15927:15944   */\n      and\n        /* \"#utility.yul\":15917:15944   */\n      swap2\n      pop\n        /* \"#utility.yul\":15873:15954   */\n    tag_399:\n        /* \"#utility.yul\":16001:16003   */\n      0x20\n        /* \"#utility.yul\":15993:15999   */\n      dup3\n        /* \"#utility.yul\":15990:16004   */\n      lt\n        /* \"#utility.yul\":15970:15988   */\n      dup2\n        /* \"#utility.yul\":15967:16005   */\n      eq\n        /* \"#utility.yul\":15964:16048   */\n      iszero\n      tag_400\n      jumpi\n        /* \"#utility.yul\":16020:16038   */\n      tag_401\n      tag_402\n      jump\t// in\n    tag_401:\n        /* \"#utility.yul\":15964:16048   */\n    tag_400:\n        /* \"#utility.yul\":15785:16054   */\n      pop\n        /* \"#utility.yul\":15734:16054   */\n      swap2\n      swap1\n      pop\n      jump\t// out\n        /* \"#utility.yul\":16060:16341   */\n    tag_348:\n        /* \"#utility.yul\":16143:16170   */\n      tag_404\n        /* \"#utility.yul\":16165:16169   */\n      dup3\n        /* \"#utility.yul\":16143:16170   */\n      tag_263\n      jump\t// in\n    tag_404:\n        /* \"#utility.yul\":16135:16141   */\n      dup2\n        /* \"#utility.yul\":16131:16171   */\n      add\n        /* \"#utility.yul\":16273:16279   */\n      dup2\n        /* \"#utility.yul\":16261:16271   */\n      dup2\n        /* \"#utility.yul\":16258:16280   */\n      lt\n        /* \"#utility.yul\":16237:16255   */\n      0xffffffffffffffff\n        /* \"#utility.yul\":16225:16235   */\n      dup3\n        /* \"#utility.yul\":16222:16256   */\n      gt\n        /* \"#utility.yul\":16219:16281   */\n      or\n        /* \"#utility.yul\":16216:16304   */\n      iszero\n      tag_405\n      jumpi\n        /* \"#utility.yul\":16284:16302   */\n      tag_406\n      tag_166\n      jump\t// in\n    tag_406:\n        /* \"#utility.yul\":16216:16304   */\n    tag_405:\n        /* \"#utility.yul\":16324:16334   */\n      dup1\n        /* \"#utility.yul\":16320:16322   */\n      0x40\n        /* \"#utility.yul\":16313:16335   */\n      mstore\n        /* \"#utility.yul\":16103:16341   */\n      pop\n        /* \"#utility.yul\":16060:16341   */\n      pop\n      pop\n      jump\t// out\n        /* \"#utility.yul\":16347:16580   */\n    tag_56:\n        /* \"#utility.yul\":16386:16389   */\n      0x00\n        /* \"#utility.yul\":16409:16433   */\n      tag_408\n        /* \"#utility.yul\":16427:16432   */\n      dup3\n        /* \"#utility.yul\":16409:16433   */\n      tag_312\n      jump\t// in\n    tag_408:\n        /* \"#utility.yul\":16400:16433   */\n      swap2\n      pop\n        /* \"#utility.yul\":16455:16521   */\n      0xffffffffffffffffffffffffffffffffffffffffffffffffffffffffffffffff\n        /* \"#utility.yul\":16448:16453   */\n      dup3\n        /* \"#utility.yul\":16445:16522   */\n      eq\n        /* \"#utility.yul\":16442:16545   */\n      iszero\n      tag_409\n      jumpi\n        /* \"#utility.yul\":16525:16543   */\n      tag_410\n      tag_369\n      jump\t// in\n    tag_410:\n        /* \"#utility.yul\":16442:16545   */\n    tag_409:\n        /* \"#utility.yul\":16572:16573   */\n      0x01\n        /* \"#utility.yul\":16565:16570   */\n      dup3\n        /* \"#utility.yul\":16561:16574   */\n      add\n        /* \"#utility.yul\":16554:16574   */\n      swap1\n      pop\n        /* \"#utility.yul\":16347:16580   */\n      swap2\n      swap1\n      pop\n      jump\t// out\n        /* \"#utility.yul\":16586:16686   */\n    tag_240:\n        /* \"#utility.yul\":16625:16632   */\n      0x00\n        /* \"#utility.yul\":16654:16680   */\n      tag_412\n        /* \"#utility.yul\":16674:16679   */\n      dup3\n        /* \"#utility.yul\":16654:16680   */\n      tag_413\n      jump\t// in\n    tag_412:\n        /* \"#utility.yul\":16643:16680   */\n      swap1\n      pop\n        /* \"#utility.yul\":16586:16686   */\n      swap2\n      swap1\n      pop\n      jump\t// out\n        /* \"#utility.yul\":16692:16786   */\n    tag_413:\n        /* \"#utility.yul\":16731:16738   */\n      0x00\n        /* \"#utility.yul\":16760:16780   */\n      tag_415\n        /* \"#utility.yul\":16774:16779   */\n      dup3\n        /* \"#utility.yul\":16760:16780   */\n      tag_416\n      jump\t// in\n    tag_415:\n        /* \"#utility.yul\":16749:16780   */\n      swap1\n      pop\n        /* \"#utility.yul\":16692:16786   */\n      swap2\n      swap1\n      pop\n      jump\t// out\n        /* \"#utility.yul\":16792:16871   */\n    tag_317:\n        /* \"#utility.yul\":16831:16838   */\n      0x00\n        /* \"#utility.yul\":16860:16865   */\n      dup2\n        /* \"#utility.yul\":16849:16865   */\n      swap1\n      pop\n        /* \"#utility.yul\":16792:16871   */\n      swap2\n      swap1\n      pop\n      jump\t// out\n        /* \"#utility.yul\":16877:17057   */\n    tag_369:\n        /* \"#utility.yul\":16925:17002   */\n      0x4e487b7100000000000000000000000000000000000000000000000000000000\n        /* \"#utility.yul\":16922:16923   */\n      0x00\n        /* \"#utility.yul\":16915:17003   */\n      mstore\n        /* \"#utility.yul\":17022:17026   */\n      0x11\n        /* \"#utility.yul\":17019:17020   */\n      0x04\n        /* \"#utility.yul\":17012:17027   */\n      mstore\n        /* \"#utility.yul\":17046:17050   */\n      0x24\n        /* \"#utility.yul\":17043:17044   */\n      0x00\n        /* \"#utility.yul\":17036:17051   */\n      revert\n        /* \"#utility.yul\":17063:17243   */\n    tag_375:\n        /* \"#utility.yul\":17111:17188   */\n      0x4e487b7100000000000000000000000000000000000000000000000000000000\n        /* \"#utility.yul\":17108:17109   */\n      0x00\n        /* \"#utility.yul\":17101:17189   */\n      mstore\n        /* \"#utility.yul\":17208:17212   */\n      0x12\n        /* \"#utility.yul\":17205:17206   */\n      0x04\n        /* \"#utility.yul\":17198:17213   */\n      mstore\n        /* \"#utility.yul\":17232:17236   */\n      0x24\n        /* \"#utility.yul\":17229:17230   */\n      0x00\n        /* \"#utility.yul\":17222:17237   */\n      revert\n        /* \"#utility.yul\":17249:17429   */\n    tag_402:\n        /* \"#utility.yul\":17297:17374   */\n      0x4e487b7100000000000000000000000000000000000000000000000000000000\n        /* \"#utility.yul\":17294:17295   */\n      0x00\n        /* \"#utility.yul\":17287:17375   */\n      mstore\n        /* \"#utility.yul\":17394:17398   */\n      0x22\n        /* \"#utility.yul\":17391:17392   */\n      0x04\n        /* \"#utility.yul\":17384:17399   */\n      mstore\n        /* \"#utility.yul\":17418:17422   */\n      0x24\n        /* \"#utility.yul\":17415:17416   */\n      0x00\n        /* \"#utility.yul\":17408:17423   */\n      revert\n        /* \"#utility.yul\":17435:17615   */\n    tag_39:\n        /* \"#utility.yul\":17483:17560   */\n      0x4e487b7100000000000000000000000000000000000000000000000000000000\n        /* \"#utility.yul\":17480:17481   */\n      0x00\n        /* \"#utility.yul\":17473:17561   */\n      mstore\n        /* \"#utility.yul\":17580:17584   */\n      0x32\n        /* \"#utility.yul\":17577:17578   */\n      0x04\n        /* \"#utility.yul\":17570:17585   */\n      mstore\n        /* \"#utility.yul\":17604:17608   */\n      0x24\n        /* \"#utility.yul\":17601:17602   */\n      0x00\n        /* \"#utility.yul\":17594:17609   */\n      revert\n        /* \"#utility.yul\":17621:17801   */\n    tag_166:\n        /* \"#utility.yul\":17669:17746   */\n      0x4e487b7100000000000000000000000000000000000000000000000000000000\n        /* \"#utility.yul\":17666:17667   */\n      0x00\n        /* \"#utility.yul\":17659:17747   */\n      mstore\n        /* \"#utility.yul\":17766:17770   */\n      0x41\n        /* \"#utility.yul\":17763:17764   */\n      0x04\n        /* \"#utility.yul\":17756:17771   */\n      mstore\n        /* \"#utility.yul\":17790:17794   */\n      0x24\n        /* \"#utility.yul\":17787:17788   */\n      0x00\n        /* \"#utility.yul\":17780:17795   */\n      revert\n        /* \"#utility.yul\":17807:17924   */\n    tag_207:\n        /* \"#utility.yul\":17916:17917   */\n      0x00\n        /* \"#utility.yul\":17913:17914   */\n      dup1\n        /* \"#utility.yul\":17906:17918   */\n      revert\n        /* \"#utility.yul\":17930:18047   */\n    tag_200:\n        /* \"#utility.yul\":18039:18040   */\n      0x00\n        /* \"#utility.yul\":18036:18037   */\n      dup1\n        /* \"#utility.yul\":18029:18041   */\n      revert\n        /* \"#utility.yul\":18053:18170   */\n    tag_219:\n        /* \"#utility.yul\":18162:18163   */\n      0x00\n        /* \"#utility.yul\":18159:18160   */\n      dup1\n        /* \"#utility.yul\":18152:18164   */\n      revert\n        /* \"#utility.yul\":18176:18293   */\n    tag_216:\n        /* \"#utility.yul\":18285:18286   */\n      0x00\n        /* \"#utility.yul\":18282:18283   */\n      dup1\n        /* \"#utility.yul\":18275:18287   */\n      revert\n        /* \"#utility.yul\":18299:18401   */\n    tag_263:\n        /* \"#utility.yul\":18340:18346   */\n      0x00\n        /* \"#utility.yul\":18391:18393   */\n      0x1f\n        /* \"#utility.yul\":18387:18394   */\n      not\n        /* \"#utility.yul\":18382:18384   */\n      0x1f\n        /* \"#utility.yul\":18375:18380   */\n      dup4\n        /* \"#utility.yul\":18371:18385   */\n      add\n        /* \"#utility.yul\":18367:18395   */\n      and\n        /* \"#utility.yul\":18357:18395   */\n      swap1\n      pop\n        /* \"#utility.yul\":18299:18401   */\n      swap2\n      swap1\n      pop\n      jump\t// out\n        /* \"#utility.yul\":18407:18501   */\n    tag_416:\n        /* \"#utility.yul\":18440:18448   */\n      0x00\n        /* \"#utility.yul\":18488:18493   */\n      dup2\n        /* \"#utility.yul\":18484:18486   */\n      0x60\n        /* \"#utility.yul\":18480:18494   */\n      shl\n        /* \"#utility.yul\":18459:18494   */\n      swap1\n      pop\n        /* \"#utility.yul\":18407:18501   */\n      swap2\n      swap1\n      pop\n      jump\t// out\n        /* \"#utility.yul\":18507:18685   */\n    tag_293:\n        /* \"#utility.yul\":18647:18677   */\n      0x4e6f20736520656e6375656e74726120616c2063616e64696461746f00000000\n        /* \"#utility.yul\":18643:18644   */\n      0x00\n        /* \"#utility.yul\":18635:18641   */\n      dup3\n        /* \"#utility.yul\":18631:18645   */\n      add\n        /* \"#utility.yul\":18624:18678   */\n      mstore\n        /* \"#utility.yul\":18507:18685   */\n      pop\n      jump\t// out\n        /* \"#utility.yul\":18691:18844   */\n    tag_298:\n        /* \"#utility.yul\":18831:18836   */\n      0x207c200000000000000000000000000000000000000000000000000000000000\n        /* \"#utility.yul\":18827:18828   */\n      0x00\n        /* \"#utility.yul\":18819:18825   */\n      dup3\n        /* \"#utility.yul\":18815:18829   */\n      add\n        /* \"#utility.yul\":18808:18837   */\n      mstore\n        /* \"#utility.yul\":18691:18844   */\n      pop\n      jump\t// out\n        /* \"#utility.yul\":18850:19027   */\n    tag_303:\n        /* \"#utility.yul\":18990:19019   */\n      0x536f6c6f20736520707565646520766f74617220756e612076657a0000000000\n        /* \"#utility.yul\":18986:18987   */\n      0x00\n        /* \"#utility.yul\":18978:18984   */\n      dup3\n        /* \"#utility.yul\":18974:18988   */\n      add\n        /* \"#utility.yul\":18967:19020   */\n      mstore\n        /* \"#utility.yul\":18850:19027   */\n      pop\n      jump\t// out\n        /* \"#utility.yul\":19033:19186   */\n    tag_308:\n        /* \"#utility.yul\":19173:19178   */\n      0x203d200000000000000000000000000000000000000000000000000000000000\n        /* \"#utility.yul\":19169:19170   */\n      0x00\n        /* \"#utility.yul\":19161:19167   */\n      dup3\n        /* \"#utility.yul\":19157:19171   */\n      add\n        /* \"#utility.yul\":19150:19179   */\n      mstore\n        /* \"#utility.yul\":19033:19186   */\n      pop\n      jump\t// out\n        /* \"#utility.yul\":19192:19314   */\n    tag_212:\n        /* \"#utility.yul\":19265:19289   */\n      tag_434\n        /* \"#utility.yul\":19283:19288   */\n      dup2\n        /* \"#utility.yul\":19265:19289   */\n      tag_312\n      jump\t// in\n    tag_434:\n        /* \"#utility.yul\":19258:19263   */\n      dup2\n        /* \"#utility.yul\":19255:19290   */\n      eq\n        /* \"#utility.yul\":19245:19308   */\n      tag_435\n      jumpi\n        /* \"#utility.yul\":19304:19305   */\n      0x00\n        /* \"#utility.yul\":19301:19302   */\n      dup1\n        /* \"#utility.yul\":19294:19306   */\n      revert\n        /* \"#utility.yul\":19245:19308   */\n    tag_435:\n        /* \"#utility.yul\":19192:19314   */\n      pop\n      jump\t// out\n    stop\n    data_41f82da17441ea04272ad4862c48de104e971b11291caf932cab5da13398e2ff 48617920756e20656d7061746520656e747265206c6f732063616e64696461746f73\n\n    auxdata: 0xa2646970667358221220ad7152707c0b3afb5b9445e2bf7f5fc57c5327deb8758705993d4bdda85c8f2d64736f6c63430008070033\n}\n",
				"bytecode": {
					"linkReferences": {},
					"object": "6080604052336000806101000a81548173ffffffffffffffffffffffffffffffffffffffff021916908373ffffffffffffffffffffffffffffffffffffffff16021790555034801561005057600080fd5b5061163c806100606000396000f3fe608060405234801561001057600080fd5b50600436106100625760003560e01c806325277cc0146100675780632e9452bc1461008557806360df75d4146100a15780637e4a58e6146100d15780639114bde8146100ef578063ce3fe6411461010d575b600080fd5b61006f610129565b60405161007c9190611058565b60405180910390f35b61009f600480360381019061009a9190610c72565b610263565b005b6100bb60048036038101906100b69190610c29565b6102f7565b6040516100c891906110ba565b60405180910390f35b6100d9610403565b6040516100e69190611036565b60405180910390f35b6100f76104dc565b6040516101049190611058565b60405180910390f35b61012760048036038101906101229190610c29565b610757565b005b6060600060405180602001604052806000815250905060005b60038054905081101561025b57816003828154811061016457610163611499565b5b906000526020600020016102256102206003858154811061018857610187611499565b5b90600052602060002001805461019d90611332565b80601f01602080910402602001604051908101604052809291908181526020018280546101c990611332565b80156102165780601f106101eb57610100808354040283529160200191610216565b820191906000526020600020905b8154815290600101906020018083116101f957829003601f168201915b50505050506102f7565b610978565b60405160200161023793929190610fa3565b6040516020818303038152906040529150808061025390611395565b915050610142565b508091505090565b600083838360405160200161027a93929190610fea565b604051602081830303815290604052805190602001209050806001856040516102a39190610f8c565b9081526020016040518091039020819055506003849080600181540180825580915050600190039060005260206000200160009091909190915090805190602001906102f0929190610b01565b5050505050565b60008160008160405160200161030d9190610f8c565b6040516020818303038152906040528051906020012090506000805b60038054905081101561039957826003828154811061034b5761034a611499565b5b90600052602060002001604051602001610365919061101f565b60405160208183030381529060405280519060200120141561038657600191505b808061039190611395565b915050610329565b50806103da576040517f08c379a00000000000000000000000000000000000000000000000000000000081526004016103d19061107a565b60405180910390fd5b6002856040516103ea9190610f8c565b9081526020016040518091039020549350505050919050565b60606003805480602002602001604051908101604052809291908181526020016000905b828210156104d357838290600052602060002001805461044690611332565b80601f016020809104026020016040519081016040528092919081815260200182805461047290611332565b80156104bf5780601f10610494576101008083540402835291602001916104bf565b820191906000526020600020905b8154815290600101906020018083116104a257829003601f168201915b505050505081526020019060010190610427565b50505050905090565b6060600060036000815481106104f5576104f4611499565b5b90600052602060002001805461050a90611332565b80601f016020809104026020016040519081016040528092919081815260200182805461053690611332565b80156105835780601f1061055857610100808354040283529160200191610583565b820191906000526020600020905b81548152906001019060200180831161056657829003601f168201915b50505050509050600080600190505b60038054905081101561072c576002600382815481106105b5576105b4611499565b5b906000526020600020016040516105cc919061101f565b9081526020016040518091039020546002846040516105eb9190610f8c565b90815260200160405180910390205410156106b2576003818154811061061457610613611499565b5b90600052602060002001805461062990611332565b80601f016020809104026020016040519081016040528092919081815260200182805461065590611332565b80156106a25780601f10610677576101008083540402835291602001916106a2565b820191906000526020600020905b81548152906001019060200180831161068557829003601f168201915b5050505050925060009150610719565b6002600382815481106106c8576106c7611499565b5b906000526020600020016040516106df919061101f565b9081526020016040518091039020546002846040516106fe9190610f8c565b908152602001604051809103902054141561071857600191505b5b808061072490611395565b915050610592565b50801561074f576040518060600160405280602281526020016115e56022913991505b819250505090565b60003360405160200161076a9190610f71565b60405160208183030381529060405280519060200120905060005b6004805490508110156108065781600482815481106107a7576107a6611499565b5b906000526020600020015414156107f3576040517f08c379a00000000000000000000000000000000000000000000000000000000081526004016107ea9061109a565b60405180910390fd5b80806107fe90611395565b915050610785565b508160008160405160200161081b9190610f8c565b6040516020818303038152906040528051906020012090506000805b6003805490508110156108a757826003828154811061085957610858611499565b5b90600052602060002001604051602001610873919061101f565b60405160208183030381529060405280519060200120141561089457600191505b808061089f90611395565b915050610837565b50806108e8576040517f08c379a00000000000000000000000000000000000000000000000000000000081526004016108df9061107a565b60405180910390fd5b6000336040516020016108fb9190610f71565b6040516020818303038152906040528051906020012090506002866040516109239190610f8c565b9081526020016040518091039020600081548092919061094290611395565b91905055506004819080600181540180825580915050600190039060005260206000200160009091909190915055505050505050565b606060008214156109c0576040518060400160405280600181526020017f30000000000000000000000000000000000000000000000000000000000000008152509050610afc565b600082905060005b600082146109f25780806109db90611395565b915050600a826109eb91906111e8565b91506109c8565b60008167ffffffffffffffff811115610a0e57610a0d6114c8565b5b6040519080825280601f01601f191660200182016040528015610a405781602001600182028036833780820191505090505b50905060008290505b60008614610af457600181610a5e9190611273565b90506000600a8088610a7091906111e8565b610a7a9190611219565b87610a859190611273565b6030610a9191906111b1565b905060008160f81b905080848481518110610aaf57610aae611499565b5b60200101907effffffffffffffffffffffffffffffffffffffffffffffffffffffffffffff1916908160001a905350600a88610aeb91906111e8565b97505050610a49565b819450505050505b919050565b828054610b0d90611332565b90600052602060002090601f016020900481019282610b2f5760008555610b76565b82601f10610b4857805160ff1916838001178555610b76565b82800160010185558215610b76579182015b82811115610b75578251825591602001919060010190610b5a565b5b509050610b839190610b87565b5090565b5b80821115610ba0576000816000905550600101610b88565b5090565b6000610bb7610bb2846110fa565b6110d5565b905082815260208101848484011115610bd357610bd26114fc565b5b610bde8482856112f0565b509392505050565b600082601f830112610bfb57610bfa6114f7565b5b8135610c0b848260208601610ba4565b91505092915050565b600081359050610c23816115cd565b92915050565b600060208284031215610c3f57610c3e611506565b5b600082013567ffffffffffffffff811115610c5d57610c5c611501565b5b610c6984828501610be6565b91505092915050565b600080600060608486031215610c8b57610c8a611506565b5b600084013567ffffffffffffffff811115610ca957610ca8611501565b5b610cb586828701610be6565b9350506020610cc686828701610c14565b925050604084013567ffffffffffffffff811115610ce757610ce6611501565b5b610cf386828701610be6565b9150509250925092565b6000610d098383610d9d565b905092915050565b610d22610d1d826112a7565b6113de565b82525050565b6000610d3382611150565b610d3d8185611173565b935083602082028501610d4f8561112b565b8060005b85811015610d8b5784840389528151610d6c8582610cfd565b9450610d7783611166565b925060208a01995050600181019050610d53565b50829750879550505050505092915050565b6000610da88261115b565b610db28185611184565b9350610dc28185602086016112ff565b610dcb8161150b565b840191505092915050565b6000610de18261115b565b610deb8185611195565b9350610dfb8185602086016112ff565b610e048161150b565b840191505092915050565b6000610e1a8261115b565b610e2481856111a6565b9350610e348185602086016112ff565b80840191505092915050565b60008154610e4d81611332565b610e5781866111a6565b94506001821660008114610e725760018114610e8357610eb6565b60ff19831686528186019350610eb6565b610e8c8561113b565b60005b83811015610eae57815481890152600182019150602081019050610e8f565b838801955050505b50505092915050565b6000610ecc601c83611195565b9150610ed782611529565b602082019050919050565b6000610eef6003836111a6565b9150610efa82611552565b600382019050919050565b6000610f12601b83611195565b9150610f1d8261157b565b602082019050919050565b6000610f356003836111a6565b9150610f40826115a4565b600382019050919050565b610f54816112d9565b82525050565b610f6b610f66826112d9565b611402565b82525050565b6000610f7d8284610d11565b60148201915081905092915050565b6000610f988284610e0f565b915081905092915050565b6000610faf8286610e0f565b9150610fbb8285610e40565b9150610fc682610f28565b9150610fd28284610e0f565b9150610fdd82610ee2565b9150819050949350505050565b6000610ff68286610e0f565b91506110028285610f5a565b6020820191506110128284610e0f565b9150819050949350505050565b600061102b8284610e40565b915081905092915050565b600060208201905081810360008301526110508184610d28565b905092915050565b600060208201905081810360008301526110728184610dd6565b905092915050565b6000602082019050818103600083015261109381610ebf565b9050919050565b600060208201905081810360008301526110b381610f05565b9050919050565b60006020820190506110cf6000830184610f4b565b92915050565b60006110df6110f0565b90506110eb8282611364565b919050565b6000604051905090565b600067ffffffffffffffff821115611115576111146114c8565b5b61111e8261150b565b9050602081019050919050565b6000819050602082019050919050565b60008190508160005260206000209050919050565b600081519050919050565b600081519050919050565b6000602082019050919050565b600082825260208201905092915050565b600082825260208201905092915050565b600082825260208201905092915050565b600081905092915050565b60006111bc826112e3565b91506111c7836112e3565b92508260ff038211156111dd576111dc61140c565b5b828201905092915050565b60006111f3826112d9565b91506111fe836112d9565b92508261120e5761120d61143b565b5b828204905092915050565b6000611224826112d9565b915061122f836112d9565b9250817fffffffffffffffffffffffffffffffffffffffffffffffffffffffffffffffff04831182151516156112685761126761140c565b5b828202905092915050565b600061127e826112d9565b9150611289836112d9565b92508282101561129c5761129b61140c565b5b828203905092915050565b60006112b2826112b9565b9050919050565b600073ffffffffffffffffffffffffffffffffffffffff82169050919050565b6000819050919050565b600060ff82169050919050565b82818337600083830152505050565b60005b8381101561131d578082015181840152602081019050611302565b8381111561132c576000848401525b50505050565b6000600282049050600182168061134a57607f821691505b6020821081141561135e5761135d61146a565b5b50919050565b61136d8261150b565b810181811067ffffffffffffffff8211171561138c5761138b6114c8565b5b80604052505050565b60006113a0826112d9565b91507fffffffffffffffffffffffffffffffffffffffffffffffffffffffffffffffff8214156113d3576113d261140c565b5b600182019050919050565b60006113e9826113f0565b9050919050565b60006113fb8261151c565b9050919050565b6000819050919050565b7f4e487b7100000000000000000000000000000000000000000000000000000000600052601160045260246000fd5b7f4e487b7100000000000000000000000000000000000000000000000000000000600052601260045260246000fd5b7f4e487b7100000000000000000000000000000000000000000000000000000000600052602260045260246000fd5b7f4e487b7100000000000000000000000000000000000000000000000000000000600052603260045260246000fd5b7f4e487b7100000000000000000000000000000000000000000000000000000000600052604160045260246000fd5b600080fd5b600080fd5b600080fd5b600080fd5b6000601f19601f8301169050919050565b60008160601b9050919050565b7f4e6f20736520656e6375656e74726120616c2063616e64696461746f00000000600082015250565b7f207c200000000000000000000000000000000000000000000000000000000000600082015250565b7f536f6c6f20736520707565646520766f74617220756e612076657a0000000000600082015250565b7f203d200000000000000000000000000000000000000000000000000000000000600082015250565b6115d6816112d9565b81146115e157600080fd5b5056fe48617920756e20656d7061746520656e747265206c6f732063616e64696461746f73a2646970667358221220ad7152707c0b3afb5b9445e2bf7f5fc57c5327deb8758705993d4bdda85c8f2d64736f6c63430008070033",
					"opcodes": "PUSH1 0x80 PUSH1 0x40 MSTORE CALLER PUSH1 0x0 DUP1 PUSH2 0x100 EXP DUP2 SLOAD DUP2 PUSH20 0xFFFFFFFFFFFFFFFFFFFFFFFFFFFFFFFFFFFFFFFF MUL NOT AND SWAP1 DUP4 PUSH20 0xFFFFFFFFFFFFFFFFFFFFFFFFFFFFFFFFFFFFFFFF AND MUL OR SWAP1 SSTORE POP CALLVALUE DUP1 ISZERO PUSH2 0x50 JUMPI PUSH1 0x0 DUP1 REVERT JUMPDEST POP PUSH2 0x163C DUP1 PUSH2 0x60 PUSH1 0x0 CODECOPY PUSH1 0x0 RETURN INVALID PUSH1 0x80 PUSH1 0x40 MSTORE CALLVALUE DUP1 ISZERO PUSH2 0x10 JUMPI PUSH1 0x0 DUP1 REVERT JUMPDEST POP PUSH1 0x4 CALLDATASIZE LT PUSH2 0x62 JUMPI PUSH1 0x0 CALLDATALOAD PUSH1 0xE0 SHR DUP1 PUSH4 0x25277CC0 EQ PUSH2 0x67 JUMPI DUP1 PUSH4 0x2E9452BC EQ PUSH2 0x85 JUMPI DUP1 PUSH4 0x60DF75D4 EQ PUSH2 0xA1 JUMPI DUP1 PUSH4 0x7E4A58E6 EQ PUSH2 0xD1 JUMPI DUP1 PUSH4 0x9114BDE8 EQ PUSH2 0xEF JUMPI DUP1 PUSH4 0xCE3FE641 EQ PUSH2 0x10D JUMPI JUMPDEST PUSH1 0x0 DUP1 REVERT JUMPDEST PUSH2 0x6F PUSH2 0x129 JUMP JUMPDEST PUSH1 0x40 MLOAD PUSH2 0x7C SWAP2 SWAP1 PUSH2 0x1058 JUMP JUMPDEST PUSH1 0x40 MLOAD DUP1 SWAP2 SUB SWAP1 RETURN JUMPDEST PUSH2 0x9F PUSH1 0x4 DUP1 CALLDATASIZE SUB DUP2 ADD SWAP1 PUSH2 0x9A SWAP2 SWAP1 PUSH2 0xC72 JUMP JUMPDEST PUSH2 0x263 JUMP JUMPDEST STOP JUMPDEST PUSH2 0xBB PUSH1 0x4 DUP1 CALLDATASIZE SUB DUP2 ADD SWAP1 PUSH2 0xB6 SWAP2 SWAP1 PUSH2 0xC29 JUMP JUMPDEST PUSH2 0x2F7 JUMP JUMPDEST PUSH1 0x40 MLOAD PUSH2 0xC8 SWAP2 SWAP1 PUSH2 0x10BA JUMP JUMPDEST PUSH1 0x40 MLOAD DUP1 SWAP2 SUB SWAP1 RETURN JUMPDEST PUSH2 0xD9 PUSH2 0x403 JUMP JUMPDEST PUSH1 0x40 MLOAD PUSH2 0xE6 SWAP2 SWAP1 PUSH2 0x1036 JUMP JUMPDEST PUSH1 0x40 MLOAD DUP1 SWAP2 SUB SWAP1 RETURN JUMPDEST PUSH2 0xF7 PUSH2 0x4DC JUMP JUMPDEST PUSH1 0x40 MLOAD PUSH2 0x104 SWAP2 SWAP1 PUSH2 0x1058 JUMP JUMPDEST PUSH1 0x40 MLOAD DUP1 SWAP2 SUB SWAP1 RETURN JUMPDEST PUSH2 0x127 PUSH1 0x4 DUP1 CALLDATASIZE SUB DUP2 ADD SWAP1 PUSH2 0x122 SWAP2 SWAP1 PUSH2 0xC29 JUMP JUMPDEST PUSH2 0x757 JUMP JUMPDEST STOP JUMPDEST PUSH1 0x60 PUSH1 0x0 PUSH1 0x40 MLOAD DUP1 PUSH1 0x20 ADD PUSH1 0x40 MSTORE DUP1 PUSH1 0x0 DUP2 MSTORE POP SWAP1 POP PUSH1 0x0 JUMPDEST PUSH1 0x3 DUP1 SLOAD SWAP1 POP DUP2 LT ISZERO PUSH2 0x25B JUMPI DUP2 PUSH1 0x3 DUP3 DUP2 SLOAD DUP2 LT PUSH2 0x164 JUMPI PUSH2 0x163 PUSH2 0x1499 JUMP JUMPDEST JUMPDEST SWAP1 PUSH1 0x0 MSTORE PUSH1 0x20 PUSH1 0x0 KECCAK256 ADD PUSH2 0x225 PUSH2 0x220 PUSH1 0x3 DUP6 DUP2 SLOAD DUP2 LT PUSH2 0x188 JUMPI PUSH2 0x187 PUSH2 0x1499 JUMP JUMPDEST JUMPDEST SWAP1 PUSH1 0x0 MSTORE PUSH1 0x20 PUSH1 0x0 KECCAK256 ADD DUP1 SLOAD PUSH2 0x19D SWAP1 PUSH2 0x1332 JUMP JUMPDEST DUP1 PUSH1 0x1F ADD PUSH1 0x20 DUP1 SWAP2 DIV MUL PUSH1 0x20 ADD PUSH1 0x40 MLOAD SWAP1 DUP2 ADD PUSH1 0x40 MSTORE DUP1 SWAP3 SWAP2 SWAP1 DUP2 DUP2 MSTORE PUSH1 0x20 ADD DUP3 DUP1 SLOAD PUSH2 0x1C9 SWAP1 PUSH2 0x1332 JUMP JUMPDEST DUP1 ISZERO PUSH2 0x216 JUMPI DUP1 PUSH1 0x1F LT PUSH2 0x1EB JUMPI PUSH2 0x100 DUP1 DUP4 SLOAD DIV MUL DUP4 MSTORE SWAP2 PUSH1 0x20 ADD SWAP2 PUSH2 0x216 JUMP JUMPDEST DUP3 ADD SWAP2 SWAP1 PUSH1 0x0 MSTORE PUSH1 0x20 PUSH1 0x0 KECCAK256 SWAP1 JUMPDEST DUP2 SLOAD DUP2 MSTORE SWAP1 PUSH1 0x1 ADD SWAP1 PUSH1 0x20 ADD DUP1 DUP4 GT PUSH2 0x1F9 JUMPI DUP3 SWAP1 SUB PUSH1 0x1F AND DUP3 ADD SWAP2 JUMPDEST POP POP POP POP POP PUSH2 0x2F7 JUMP JUMPDEST PUSH2 0x978 JUMP JUMPDEST PUSH1 0x40 MLOAD PUSH1 0x20 ADD PUSH2 0x237 SWAP4 SWAP3 SWAP2 SWAP1 PUSH2 0xFA3 JUMP JUMPDEST PUSH1 0x40 MLOAD PUSH1 0x20 DUP2 DUP4 SUB SUB DUP2 MSTORE SWAP1 PUSH1 0x40 MSTORE SWAP2 POP DUP1 DUP1 PUSH2 0x253 SWAP1 PUSH2 0x1395 JUMP JUMPDEST SWAP2 POP POP PUSH2 0x142 JUMP JUMPDEST POP DUP1 SWAP2 POP POP SWAP1 JUMP JUMPDEST PUSH1 0x0 DUP4 DUP4 DUP4 PUSH1 0x40 MLOAD PUSH1 0x20 ADD PUSH2 0x27A SWAP4 SWAP3 SWAP2 SWAP1 PUSH2 0xFEA JUMP JUMPDEST PUSH1 0x40 MLOAD PUSH1 0x20 DUP2 DUP4 SUB SUB DUP2 MSTORE SWAP1 PUSH1 0x40 MSTORE DUP1 MLOAD SWAP1 PUSH1 0x20 ADD KECCAK256 SWAP1 POP DUP1 PUSH1 0x1 DUP6 PUSH1 0x40 MLOAD PUSH2 0x2A3 SWAP2 SWAP1 PUSH2 0xF8C JUMP JUMPDEST SWAP1 DUP2 MSTORE PUSH1 0x20 ADD PUSH1 0x40 MLOAD DUP1 SWAP2 SUB SWAP1 KECCAK256 DUP2 SWAP1 SSTORE POP PUSH1 0x3 DUP5 SWAP1 DUP1 PUSH1 0x1 DUP2 SLOAD ADD DUP1 DUP3 SSTORE DUP1 SWAP2 POP POP PUSH1 0x1 SWAP1 SUB SWAP1 PUSH1 0x0 MSTORE PUSH1 0x20 PUSH1 0x0 KECCAK256 ADD PUSH1 0x0 SWAP1 SWAP2 SWAP1 SWAP2 SWAP1 SWAP2 POP SWAP1 DUP1 MLOAD SWAP1 PUSH1 0x20 ADD SWAP1 PUSH2 0x2F0 SWAP3 SWAP2 SWAP1 PUSH2 0xB01 JUMP JUMPDEST POP POP POP POP POP JUMP JUMPDEST PUSH1 0x0 DUP2 PUSH1 0x0 DUP2 PUSH1 0x40 MLOAD PUSH1 0x20 ADD PUSH2 0x30D SWAP2 SWAP1 PUSH2 0xF8C JUMP JUMPDEST PUSH1 0x40 MLOAD PUSH1 0x20 DUP2 DUP4 SUB SUB DUP2 MSTORE SWAP1 PUSH1 0x40 MSTORE DUP1 MLOAD SWAP1 PUSH1 0x20 ADD KECCAK256 SWAP1 POP PUSH1 0x0 DUP1 JUMPDEST PUSH1 0x3 DUP1 SLOAD SWAP1 POP DUP2 LT ISZERO PUSH2 0x399 JUMPI DUP3 PUSH1 0x3 DUP3 DUP2 SLOAD DUP2 LT PUSH2 0x34B JUMPI PUSH2 0x34A PUSH2 0x1499 JUMP JUMPDEST JUMPDEST SWAP1 PUSH1 0x0 MSTORE PUSH1 0x20 PUSH1 0x0 KECCAK256 ADD PUSH1 0x40 MLOAD PUSH1 0x20 ADD PUSH2 0x365 SWAP2 SWAP1 PUSH2 0x101F JUMP JUMPDEST PUSH1 0x40 MLOAD PUSH1 0x20 DUP2 DUP4 SUB SUB DUP2 MSTORE SWAP1 PUSH1 0x40 MSTORE DUP1 MLOAD SWAP1 PUSH1 0x20 ADD KECCAK256 EQ ISZERO PUSH2 0x386 JUMPI PUSH1 0x1 SWAP2 POP JUMPDEST DUP1 DUP1 PUSH2 0x391 SWAP1 PUSH2 0x1395 JUMP JUMPDEST SWAP2 POP POP PUSH2 0x329 JUMP JUMPDEST POP DUP1 PUSH2 0x3DA JUMPI PUSH1 0x40 MLOAD PUSH32 0x8C379A000000000000000000000000000000000000000000000000000000000 DUP2 MSTORE PUSH1 0x4 ADD PUSH2 0x3D1 SWAP1 PUSH2 0x107A JUMP JUMPDEST PUSH1 0x40 MLOAD DUP1 SWAP2 SUB SWAP1 REVERT JUMPDEST PUSH1 0x2 DUP6 PUSH1 0x40 MLOAD PUSH2 0x3EA SWAP2 SWAP1 PUSH2 0xF8C JUMP JUMPDEST SWAP1 DUP2 MSTORE PUSH1 0x20 ADD PUSH1 0x40 MLOAD DUP1 SWAP2 SUB SWAP1 KECCAK256 SLOAD SWAP4 POP POP POP POP SWAP2 SWAP1 POP JUMP JUMPDEST PUSH1 0x60 PUSH1 0x3 DUP1 SLOAD DUP1 PUSH1 0x20 MUL PUSH1 0x20 ADD PUSH1 0x40 MLOAD SWAP1 DUP2 ADD PUSH1 0x40 MSTORE DUP1 SWAP3 SWAP2 SWAP1 DUP2 DUP2 MSTORE PUSH1 0x20 ADD PUSH1 0x0 SWAP1 JUMPDEST DUP3 DUP3 LT ISZERO PUSH2 0x4D3 JUMPI DUP4 DUP3 SWAP1 PUSH1 0x0 MSTORE PUSH1 0x20 PUSH1 0x0 KECCAK256 ADD DUP1 SLOAD PUSH2 0x446 SWAP1 PUSH2 0x1332 JUMP JUMPDEST DUP1 PUSH1 0x1F ADD PUSH1 0x20 DUP1 SWAP2 DIV MUL PUSH1 0x20 ADD PUSH1 0x40 MLOAD SWAP1 DUP2 ADD PUSH1 0x40 MSTORE DUP1 SWAP3 SWAP2 SWAP1 DUP2 DUP2 MSTORE PUSH1 0x20 ADD DUP3 DUP1 SLOAD PUSH2 0x472 SWAP1 PUSH2 0x1332 JUMP JUMPDEST DUP1 ISZERO PUSH2 0x4BF JUMPI DUP1 PUSH1 0x1F LT PUSH2 0x494 JUMPI PUSH2 0x100 DUP1 DUP4 SLOAD DIV MUL DUP4 MSTORE SWAP2 PUSH1 0x20 ADD SWAP2 PUSH2 0x4BF JUMP JUMPDEST DUP3 ADD SWAP2 SWAP1 PUSH1 0x0 MSTORE PUSH1 0x20 PUSH1 0x0 KECCAK256 SWAP1 JUMPDEST DUP2 SLOAD DUP2 MSTORE SWAP1 PUSH1 0x1 ADD SWAP1 PUSH1 0x20 ADD DUP1 DUP4 GT PUSH2 0x4A2 JUMPI DUP3 SWAP1 SUB PUSH1 0x1F AND DUP3 ADD SWAP2 JUMPDEST POP POP POP POP POP DUP2 MSTORE PUSH1 0x20 ADD SWAP1 PUSH1 0x1 ADD SWAP1 PUSH2 0x427 JUMP JUMPDEST POP POP POP POP SWAP1 POP SWAP1 JUMP JUMPDEST PUSH1 0x60 PUSH1 0x0 PUSH1 0x3 PUSH1 0x0 DUP2 SLOAD DUP2 LT PUSH2 0x4F5 JUMPI PUSH2 0x4F4 PUSH2 0x1499 JUMP JUMPDEST JUMPDEST SWAP1 PUSH1 0x0 MSTORE PUSH1 0x20 PUSH1 0x0 KECCAK256 ADD DUP1 SLOAD PUSH2 0x50A SWAP1 PUSH2 0x1332 JUMP JUMPDEST DUP1 PUSH1 0x1F ADD PUSH1 0x20 DUP1 SWAP2 DIV MUL PUSH1 0x20 ADD PUSH1 0x40 MLOAD SWAP1 DUP2 ADD PUSH1 0x40 MSTORE DUP1 SWAP3 SWAP2 SWAP1 DUP2 DUP2 MSTORE PUSH1 0x20 ADD DUP3 DUP1 SLOAD PUSH2 0x536 SWAP1 PUSH2 0x1332 JUMP JUMPDEST DUP1 ISZERO PUSH2 0x583 JUMPI DUP1 PUSH1 0x1F LT PUSH2 0x558 JUMPI PUSH2 0x100 DUP1 DUP4 SLOAD DIV MUL DUP4 MSTORE SWAP2 PUSH1 0x20 ADD SWAP2 PUSH2 0x583 JUMP JUMPDEST DUP3 ADD SWAP2 SWAP1 PUSH1 0x0 MSTORE PUSH1 0x20 PUSH1 0x0 KECCAK256 SWAP1 JUMPDEST DUP2 SLOAD DUP2 MSTORE SWAP1 PUSH1 0x1 ADD SWAP1 PUSH1 0x20 ADD DUP1 DUP4 GT PUSH2 0x566 JUMPI DUP3 SWAP1 SUB PUSH1 0x1F AND DUP3 ADD SWAP2 JUMPDEST POP POP POP POP POP SWAP1 POP PUSH1 0x0 DUP1 PUSH1 0x1 SWAP1 POP JUMPDEST PUSH1 0x3 DUP1 SLOAD SWAP1 POP DUP2 LT ISZERO PUSH2 0x72C JUMPI PUSH1 0x2 PUSH1 0x3 DUP3 DUP2 SLOAD DUP2 LT PUSH2 0x5B5 JUMPI PUSH2 0x5B4 PUSH2 0x1499 JUMP JUMPDEST JUMPDEST SWAP1 PUSH1 0x0 MSTORE PUSH1 0x20 PUSH1 0x0 KECCAK256 ADD PUSH1 0x40 MLOAD PUSH2 0x5CC SWAP2 SWAP1 PUSH2 0x101F JUMP JUMPDEST SWAP1 DUP2 MSTORE PUSH1 0x20 ADD PUSH1 0x40 MLOAD DUP1 SWAP2 SUB SWAP1 KECCAK256 SLOAD PUSH1 0x2 DUP5 PUSH1 0x40 MLOAD PUSH2 0x5EB SWAP2 SWAP1 PUSH2 0xF8C JUMP JUMPDEST SWAP1 DUP2 MSTORE PUSH1 0x20 ADD PUSH1 0x40 MLOAD DUP1 SWAP2 SUB SWAP1 KECCAK256 SLOAD LT ISZERO PUSH2 0x6B2 JUMPI PUSH1 0x3 DUP2 DUP2 SLOAD DUP2 LT PUSH2 0x614 JUMPI PUSH2 0x613 PUSH2 0x1499 JUMP JUMPDEST JUMPDEST SWAP1 PUSH1 0x0 MSTORE PUSH1 0x20 PUSH1 0x0 KECCAK256 ADD DUP1 SLOAD PUSH2 0x629 SWAP1 PUSH2 0x1332 JUMP JUMPDEST DUP1 PUSH1 0x1F ADD PUSH1 0x20 DUP1 SWAP2 DIV MUL PUSH1 0x20 ADD PUSH1 0x40 MLOAD SWAP1 DUP2 ADD PUSH1 0x40 MSTORE DUP1 SWAP3 SWAP2 SWAP1 DUP2 DUP2 MSTORE PUSH1 0x20 ADD DUP3 DUP1 SLOAD PUSH2 0x655 SWAP1 PUSH2 0x1332 JUMP JUMPDEST DUP1 ISZERO PUSH2 0x6A2 JUMPI DUP1 PUSH1 0x1F LT PUSH2 0x677 JUMPI PUSH2 0x100 DUP1 DUP4 SLOAD DIV MUL DUP4 MSTORE SWAP2 PUSH1 0x20 ADD SWAP2 PUSH2 0x6A2 JUMP JUMPDEST DUP3 ADD SWAP2 SWAP1 PUSH1 0x0 MSTORE PUSH1 0x20 PUSH1 0x0 KECCAK256 SWAP1 JUMPDEST DUP2 SLOAD DUP2 MSTORE SWAP1 PUSH1 0x1 ADD SWAP1 PUSH1 0x20 ADD DUP1 DUP4 GT PUSH2 0x685 JUMPI DUP3 SWAP1 SUB PUSH1 0x1F AND DUP3 ADD SWAP2 JUMPDEST POP POP POP POP POP SWAP3 POP PUSH1 0x0 SWAP2 POP PUSH2 0x719 JUMP JUMPDEST PUSH1 0x2 PUSH1 0x3 DUP3 DUP2 SLOAD DUP2 LT PUSH2 0x6C8 JUMPI PUSH2 0x6C7 PUSH2 0x1499 JUMP JUMPDEST JUMPDEST SWAP1 PUSH1 0x0 MSTORE PUSH1 0x20 PUSH1 0x0 KECCAK256 ADD PUSH1 0x40 MLOAD PUSH2 0x6DF SWAP2 SWAP1 PUSH2 0x101F JUMP JUMPDEST SWAP1 DUP2 MSTORE PUSH1 0x20 ADD PUSH1 0x40 MLOAD DUP1 SWAP2 SUB SWAP1 KECCAK256 SLOAD PUSH1 0x2 DUP5 PUSH1 0x40 MLOAD PUSH2 0x6FE SWAP2 SWAP1 PUSH2 0xF8C JUMP JUMPDEST SWAP1 DUP2 MSTORE PUSH1 0x20 ADD PUSH1 0x40 MLOAD DUP1 SWAP2 SUB SWAP1 KECCAK256 SLOAD EQ ISZERO PUSH2 0x718 JUMPI PUSH1 0x1 SWAP2 POP JUMPDEST JUMPDEST DUP1 DUP1 PUSH2 0x724 SWAP1 PUSH2 0x1395 JUMP JUMPDEST SWAP2 POP POP PUSH2 0x592 JUMP JUMPDEST POP DUP1 ISZERO PUSH2 0x74F JUMPI PUSH1 0x40 MLOAD DUP1 PUSH1 0x60 ADD PUSH1 0x40 MSTORE DUP1 PUSH1 0x22 DUP2 MSTORE PUSH1 0x20 ADD PUSH2 0x15E5 PUSH1 0x22 SWAP2 CODECOPY SWAP2 POP JUMPDEST DUP2 SWAP3 POP POP POP SWAP1 JUMP JUMPDEST PUSH1 0x0 CALLER PUSH1 0x40 MLOAD PUSH1 0x20 ADD PUSH2 0x76A SWAP2 SWAP1 PUSH2 0xF71 JUMP JUMPDEST PUSH1 0x40 MLOAD PUSH1 0x20 DUP2 DUP4 SUB SUB DUP2 MSTORE SWAP1 PUSH1 0x40 MSTORE DUP1 MLOAD SWAP1 PUSH1 0x20 ADD KECCAK256 SWAP1 POP PUSH1 0x0 JUMPDEST PUSH1 0x4 DUP1 SLOAD SWAP1 POP DUP2 LT ISZERO PUSH2 0x806 JUMPI DUP2 PUSH1 0x4 DUP3 DUP2 SLOAD DUP2 LT PUSH2 0x7A7 JUMPI PUSH2 0x7A6 PUSH2 0x1499 JUMP JUMPDEST JUMPDEST SWAP1 PUSH1 0x0 MSTORE PUSH1 0x20 PUSH1 0x0 KECCAK256 ADD SLOAD EQ ISZERO PUSH2 0x7F3 JUMPI PUSH1 0x40 MLOAD PUSH32 0x8C379A000000000000000000000000000000000000000000000000000000000 DUP2 MSTORE PUSH1 0x4 ADD PUSH2 0x7EA SWAP1 PUSH2 0x109A JUMP JUMPDEST PUSH1 0x40 MLOAD DUP1 SWAP2 SUB SWAP1 REVERT JUMPDEST DUP1 DUP1 PUSH2 0x7FE SWAP1 PUSH2 0x1395 JUMP JUMPDEST SWAP2 POP POP PUSH2 0x785 JUMP JUMPDEST POP DUP2 PUSH1 0x0 DUP2 PUSH1 0x40 MLOAD PUSH1 0x20 ADD PUSH2 0x81B SWAP2 SWAP1 PUSH2 0xF8C JUMP JUMPDEST PUSH1 0x40 MLOAD PUSH1 0x20 DUP2 DUP4 SUB SUB DUP2 MSTORE SWAP1 PUSH1 0x40 MSTORE DUP1 MLOAD SWAP1 PUSH1 0x20 ADD KECCAK256 SWAP1 POP PUSH1 0x0 DUP1 JUMPDEST PUSH1 0x3 DUP1 SLOAD SWAP1 POP DUP2 LT ISZERO PUSH2 0x8A7 JUMPI DUP3 PUSH1 0x3 DUP3 DUP2 SLOAD DUP2 LT PUSH2 0x859 JUMPI PUSH2 0x858 PUSH2 0x1499 JUMP JUMPDEST JUMPDEST SWAP1 PUSH1 0x0 MSTORE PUSH1 0x20 PUSH1 0x0 KECCAK256 ADD PUSH1 0x40 MLOAD PUSH1 0x20 ADD PUSH2 0x873 SWAP2 SWAP1 PUSH2 0x101F JUMP JUMPDEST PUSH1 0x40 MLOAD PUSH1 0x20 DUP2 DUP4 SUB SUB DUP2 MSTORE SWAP1 PUSH1 0x40 MSTORE DUP1 MLOAD SWAP1 PUSH1 0x20 ADD KECCAK256 EQ ISZERO PUSH2 0x894 JUMPI PUSH1 0x1 SWAP2 POP JUMPDEST DUP1 DUP1 PUSH2 0x89F SWAP1 PUSH2 0x1395 JUMP JUMPDEST SWAP2 POP POP PUSH2 0x837 JUMP JUMPDEST POP DUP1 PUSH2 0x8E8 JUMPI PUSH1 0x40 MLOAD PUSH32 0x8C379A000000000000000000000000000000000000000000000000000000000 DUP2 MSTORE PUSH1 0x4 ADD PUSH2 0x8DF SWAP1 PUSH2 0x107A JUMP JUMPDEST PUSH1 0x40 MLOAD DUP1 SWAP2 SUB SWAP1 REVERT JUMPDEST PUSH1 0x0 CALLER PUSH1 0x40 MLOAD PUSH1 0x20 ADD PUSH2 0x8FB SWAP2 SWAP1 PUSH2 0xF71 JUMP JUMPDEST PUSH1 0x40 MLOAD PUSH1 0x20 DUP2 DUP4 SUB SUB DUP2 MSTORE SWAP1 PUSH1 0x40 MSTORE DUP1 MLOAD SWAP1 PUSH1 0x20 ADD KECCAK256 SWAP1 POP PUSH1 0x2 DUP7 PUSH1 0x40 MLOAD PUSH2 0x923 SWAP2 SWAP1 PUSH2 0xF8C JUMP JUMPDEST SWAP1 DUP2 MSTORE PUSH1 0x20 ADD PUSH1 0x40 MLOAD DUP1 SWAP2 SUB SWAP1 KECCAK256 PUSH1 0x0 DUP2 SLOAD DUP1 SWAP3 SWAP2 SWAP1 PUSH2 0x942 SWAP1 PUSH2 0x1395 JUMP JUMPDEST SWAP2 SWAP1 POP SSTORE POP PUSH1 0x4 DUP2 SWAP1 DUP1 PUSH1 0x1 DUP2 SLOAD ADD DUP1 DUP3 SSTORE DUP1 SWAP2 POP POP PUSH1 0x1 SWAP1 SUB SWAP1 PUSH1 0x0 MSTORE PUSH1 0x20 PUSH1 0x0 KECCAK256 ADD PUSH1 0x0 SWAP1 SWAP2 SWAP1 SWAP2 SWAP1 SWAP2 POP SSTORE POP POP POP POP POP POP JUMP JUMPDEST PUSH1 0x60 PUSH1 0x0 DUP3 EQ ISZERO PUSH2 0x9C0 JUMPI PUSH1 0x40 MLOAD DUP1 PUSH1 0x40 ADD PUSH1 0x40 MSTORE DUP1 PUSH1 0x1 DUP2 MSTORE PUSH1 0x20 ADD PUSH32 0x3000000000000000000000000000000000000000000000000000000000000000 DUP2 MSTORE POP SWAP1 POP PUSH2 0xAFC JUMP JUMPDEST PUSH1 0x0 DUP3 SWAP1 POP PUSH1 0x0 JUMPDEST PUSH1 0x0 DUP3 EQ PUSH2 0x9F2 JUMPI DUP1 DUP1 PUSH2 0x9DB SWAP1 PUSH2 0x1395 JUMP JUMPDEST SWAP2 POP POP PUSH1 0xA DUP3 PUSH2 0x9EB SWAP2 SWAP1 PUSH2 0x11E8 JUMP JUMPDEST SWAP2 POP PUSH2 0x9C8 JUMP JUMPDEST PUSH1 0x0 DUP2 PUSH8 0xFFFFFFFFFFFFFFFF DUP2 GT ISZERO PUSH2 0xA0E JUMPI PUSH2 0xA0D PUSH2 0x14C8 JUMP JUMPDEST JUMPDEST PUSH1 0x40 MLOAD SWAP1 DUP1 DUP3 MSTORE DUP1 PUSH1 0x1F ADD PUSH1 0x1F NOT AND PUSH1 0x20 ADD DUP3 ADD PUSH1 0x40 MSTORE DUP1 ISZERO PUSH2 0xA40 JUMPI DUP2 PUSH1 0x20 ADD PUSH1 0x1 DUP3 MUL DUP1 CALLDATASIZE DUP4 CALLDATACOPY DUP1 DUP3 ADD SWAP2 POP POP SWAP1 POP JUMPDEST POP SWAP1 POP PUSH1 0x0 DUP3 SWAP1 POP JUMPDEST PUSH1 0x0 DUP7 EQ PUSH2 0xAF4 JUMPI PUSH1 0x1 DUP2 PUSH2 0xA5E SWAP2 SWAP1 PUSH2 0x1273 JUMP JUMPDEST SWAP1 POP PUSH1 0x0 PUSH1 0xA DUP1 DUP9 PUSH2 0xA70 SWAP2 SWAP1 PUSH2 0x11E8 JUMP JUMPDEST PUSH2 0xA7A SWAP2 SWAP1 PUSH2 0x1219 JUMP JUMPDEST DUP8 PUSH2 0xA85 SWAP2 SWAP1 PUSH2 0x1273 JUMP JUMPDEST PUSH1 0x30 PUSH2 0xA91 SWAP2 SWAP1 PUSH2 0x11B1 JUMP JUMPDEST SWAP1 POP PUSH1 0x0 DUP2 PUSH1 0xF8 SHL SWAP1 POP DUP1 DUP5 DUP5 DUP2 MLOAD DUP2 LT PUSH2 0xAAF JUMPI PUSH2 0xAAE PUSH2 0x1499 JUMP JUMPDEST JUMPDEST PUSH1 0x20 ADD ADD SWAP1 PUSH31 0xFFFFFFFFFFFFFFFFFFFFFFFFFFFFFFFFFFFFFFFFFFFFFFFFFFFFFFFFFFFFFF NOT AND SWAP1 DUP2 PUSH1 0x0 BYTE SWAP1 MSTORE8 POP PUSH1 0xA DUP9 PUSH2 0xAEB SWAP2 SWAP1 PUSH2 0x11E8 JUMP JUMPDEST SWAP8 POP POP POP PUSH2 0xA49 JUMP JUMPDEST DUP2 SWAP5 POP POP POP POP POP JUMPDEST SWAP2 SWAP1 POP JUMP JUMPDEST DUP3 DUP1 SLOAD PUSH2 0xB0D SWAP1 PUSH2 0x1332 JUMP JUMPDEST SWAP1 PUSH1 0x0 MSTORE PUSH1 0x20 PUSH1 0x0 KECCAK256 SWAP1 PUSH1 0x1F ADD PUSH1 0x20 SWAP1 DIV DUP2 ADD SWAP3 DUP3 PUSH2 0xB2F JUMPI PUSH1 0x0 DUP6 SSTORE PUSH2 0xB76 JUMP JUMPDEST DUP3 PUSH1 0x1F LT PUSH2 0xB48 JUMPI DUP1 MLOAD PUSH1 0xFF NOT AND DUP4 DUP1 ADD OR DUP6 SSTORE PUSH2 0xB76 JUMP JUMPDEST DUP3 DUP1 ADD PUSH1 0x1 ADD DUP6 SSTORE DUP3 ISZERO PUSH2 0xB76 JUMPI SWAP2 DUP3 ADD JUMPDEST DUP3 DUP2 GT ISZERO PUSH2 0xB75 JUMPI DUP3 MLOAD DUP3 SSTORE SWAP2 PUSH1 0x20 ADD SWAP2 SWAP1 PUSH1 0x1 ADD SWAP1 PUSH2 0xB5A JUMP JUMPDEST JUMPDEST POP SWAP1 POP PUSH2 0xB83 SWAP2 SWAP1 PUSH2 0xB87 JUMP JUMPDEST POP SWAP1 JUMP JUMPDEST JUMPDEST DUP1 DUP3 GT ISZERO PUSH2 0xBA0 JUMPI PUSH1 0x0 DUP2 PUSH1 0x0 SWAP1 SSTORE POP PUSH1 0x1 ADD PUSH2 0xB88 JUMP JUMPDEST POP SWAP1 JUMP JUMPDEST PUSH1 0x0 PUSH2 0xBB7 PUSH2 0xBB2 DUP5 PUSH2 0x10FA JUMP JUMPDEST PUSH2 0x10D5 JUMP JUMPDEST SWAP1 POP DUP3 DUP2 MSTORE PUSH1 0x20 DUP2 ADD DUP5 DUP5 DUP5 ADD GT ISZERO PUSH2 0xBD3 JUMPI PUSH2 0xBD2 PUSH2 0x14FC JUMP JUMPDEST JUMPDEST PUSH2 0xBDE DUP5 DUP3 DUP6 PUSH2 0x12F0 JUMP JUMPDEST POP SWAP4 SWAP3 POP POP POP JUMP JUMPDEST PUSH1 0x0 DUP3 PUSH1 0x1F DUP4 ADD SLT PUSH2 0xBFB JUMPI PUSH2 0xBFA PUSH2 0x14F7 JUMP JUMPDEST JUMPDEST DUP2 CALLDATALOAD PUSH2 0xC0B DUP5 DUP3 PUSH1 0x20 DUP7 ADD PUSH2 0xBA4 JUMP JUMPDEST SWAP2 POP POP SWAP3 SWAP2 POP POP JUMP JUMPDEST PUSH1 0x0 DUP2 CALLDATALOAD SWAP1 POP PUSH2 0xC23 DUP2 PUSH2 0x15CD JUMP JUMPDEST SWAP3 SWAP2 POP POP JUMP JUMPDEST PUSH1 0x0 PUSH1 0x20 DUP3 DUP5 SUB SLT ISZERO PUSH2 0xC3F JUMPI PUSH2 0xC3E PUSH2 0x1506 JUMP JUMPDEST JUMPDEST PUSH1 0x0 DUP3 ADD CALLDATALOAD PUSH8 0xFFFFFFFFFFFFFFFF DUP2 GT ISZERO PUSH2 0xC5D JUMPI PUSH2 0xC5C PUSH2 0x1501 JUMP JUMPDEST JUMPDEST PUSH2 0xC69 DUP5 DUP3 DUP6 ADD PUSH2 0xBE6 JUMP JUMPDEST SWAP2 POP POP SWAP3 SWAP2 POP POP JUMP JUMPDEST PUSH1 0x0 DUP1 PUSH1 0x0 PUSH1 0x60 DUP5 DUP7 SUB SLT ISZERO PUSH2 0xC8B JUMPI PUSH2 0xC8A PUSH2 0x1506 JUMP JUMPDEST JUMPDEST PUSH1 0x0 DUP5 ADD CALLDATALOAD PUSH8 0xFFFFFFFFFFFFFFFF DUP2 GT ISZERO PUSH2 0xCA9 JUMPI PUSH2 0xCA8 PUSH2 0x1501 JUMP JUMPDEST JUMPDEST PUSH2 0xCB5 DUP7 DUP3 DUP8 ADD PUSH2 0xBE6 JUMP JUMPDEST SWAP4 POP POP PUSH1 0x20 PUSH2 0xCC6 DUP7 DUP3 DUP8 ADD PUSH2 0xC14 JUMP JUMPDEST SWAP3 POP POP PUSH1 0x40 DUP5 ADD CALLDATALOAD PUSH8 0xFFFFFFFFFFFFFFFF DUP2 GT ISZERO PUSH2 0xCE7 JUMPI PUSH2 0xCE6 PUSH2 0x1501 JUMP JUMPDEST JUMPDEST PUSH2 0xCF3 DUP7 DUP3 DUP8 ADD PUSH2 0xBE6 JUMP JUMPDEST SWAP2 POP POP SWAP3 POP SWAP3 POP SWAP3 JUMP JUMPDEST PUSH1 0x0 PUSH2 0xD09 DUP4 DUP4 PUSH2 0xD9D JUMP JUMPDEST SWAP1 POP SWAP3 SWAP2 POP POP JUMP JUMPDEST PUSH2 0xD22 PUSH2 0xD1D DUP3 PUSH2 0x12A7 JUMP JUMPDEST PUSH2 0x13DE JUMP JUMPDEST DUP3 MSTORE POP POP JUMP JUMPDEST PUSH1 0x0 PUSH2 0xD33 DUP3 PUSH2 0x1150 JUMP JUMPDEST PUSH2 0xD3D DUP2 DUP6 PUSH2 0x1173 JUMP JUMPDEST SWAP4 POP DUP4 PUSH1 0x20 DUP3 MUL DUP6 ADD PUSH2 0xD4F DUP6 PUSH2 0x112B JUMP JUMPDEST DUP1 PUSH1 0x0 JUMPDEST DUP6 DUP2 LT ISZERO PUSH2 0xD8B JUMPI DUP5 DUP5 SUB DUP10 MSTORE DUP2 MLOAD PUSH2 0xD6C DUP6 DUP3 PUSH2 0xCFD JUMP JUMPDEST SWAP5 POP PUSH2 0xD77 DUP4 PUSH2 0x1166 JUMP JUMPDEST SWAP3 POP PUSH1 0x20 DUP11 ADD SWAP10 POP POP PUSH1 0x1 DUP2 ADD SWAP1 POP PUSH2 0xD53 JUMP JUMPDEST POP DUP3 SWAP8 POP DUP8 SWAP6 POP POP POP POP POP POP SWAP3 SWAP2 POP POP JUMP JUMPDEST PUSH1 0x0 PUSH2 0xDA8 DUP3 PUSH2 0x115B JUMP JUMPDEST PUSH2 0xDB2 DUP2 DUP6 PUSH2 0x1184 JUMP JUMPDEST SWAP4 POP PUSH2 0xDC2 DUP2 DUP6 PUSH1 0x20 DUP7 ADD PUSH2 0x12FF JUMP JUMPDEST PUSH2 0xDCB DUP2 PUSH2 0x150B JUMP JUMPDEST DUP5 ADD SWAP2 POP POP SWAP3 SWAP2 POP POP JUMP JUMPDEST PUSH1 0x0 PUSH2 0xDE1 DUP3 PUSH2 0x115B JUMP JUMPDEST PUSH2 0xDEB DUP2 DUP6 PUSH2 0x1195 JUMP JUMPDEST SWAP4 POP PUSH2 0xDFB DUP2 DUP6 PUSH1 0x20 DUP7 ADD PUSH2 0x12FF JUMP JUMPDEST PUSH2 0xE04 DUP2 PUSH2 0x150B JUMP JUMPDEST DUP5 ADD SWAP2 POP POP SWAP3 SWAP2 POP POP JUMP JUMPDEST PUSH1 0x0 PUSH2 0xE1A DUP3 PUSH2 0x115B JUMP JUMPDEST PUSH2 0xE24 DUP2 DUP6 PUSH2 0x11A6 JUMP JUMPDEST SWAP4 POP PUSH2 0xE34 DUP2 DUP6 PUSH1 0x20 DUP7 ADD PUSH2 0x12FF JUMP JUMPDEST DUP1 DUP5 ADD SWAP2 POP POP SWAP3 SWAP2 POP POP JUMP JUMPDEST PUSH1 0x0 DUP2 SLOAD PUSH2 0xE4D DUP2 PUSH2 0x1332 JUMP JUMPDEST PUSH2 0xE57 DUP2 DUP7 PUSH2 0x11A6 JUMP JUMPDEST SWAP5 POP PUSH1 0x1 DUP3 AND PUSH1 0x0 DUP2 EQ PUSH2 0xE72 JUMPI PUSH1 0x1 DUP2 EQ PUSH2 0xE83 JUMPI PUSH2 0xEB6 JUMP JUMPDEST PUSH1 0xFF NOT DUP4 AND DUP7 MSTORE DUP2 DUP7 ADD SWAP4 POP PUSH2 0xEB6 JUMP JUMPDEST PUSH2 0xE8C DUP6 PUSH2 0x113B JUMP JUMPDEST PUSH1 0x0 JUMPDEST DUP4 DUP2 LT ISZERO PUSH2 0xEAE JUMPI DUP2 SLOAD DUP2 DUP10 ADD MSTORE PUSH1 0x1 DUP3 ADD SWAP2 POP PUSH1 0x20 DUP2 ADD SWAP1 POP PUSH2 0xE8F JUMP JUMPDEST DUP4 DUP9 ADD SWAP6 POP POP POP JUMPDEST POP POP POP SWAP3 SWAP2 POP POP JUMP JUMPDEST PUSH1 0x0 PUSH2 0xECC PUSH1 0x1C DUP4 PUSH2 0x1195 JUMP JUMPDEST SWAP2 POP PUSH2 0xED7 DUP3 PUSH2 0x1529 JUMP JUMPDEST PUSH1 0x20 DUP3 ADD SWAP1 POP SWAP2 SWAP1 POP JUMP JUMPDEST PUSH1 0x0 PUSH2 0xEEF PUSH1 0x3 DUP4 PUSH2 0x11A6 JUMP JUMPDEST SWAP2 POP PUSH2 0xEFA DUP3 PUSH2 0x1552 JUMP JUMPDEST PUSH1 0x3 DUP3 ADD SWAP1 POP SWAP2 SWAP1 POP JUMP JUMPDEST PUSH1 0x0 PUSH2 0xF12 PUSH1 0x1B DUP4 PUSH2 0x1195 JUMP JUMPDEST SWAP2 POP PUSH2 0xF1D DUP3 PUSH2 0x157B JUMP JUMPDEST PUSH1 0x20 DUP3 ADD SWAP1 POP SWAP2 SWAP1 POP JUMP JUMPDEST PUSH1 0x0 PUSH2 0xF35 PUSH1 0x3 DUP4 PUSH2 0x11A6 JUMP JUMPDEST SWAP2 POP PUSH2 0xF40 DUP3 PUSH2 0x15A4 JUMP JUMPDEST PUSH1 0x3 DUP3 ADD SWAP1 POP SWAP2 SWAP1 POP JUMP JUMPDEST PUSH2 0xF54 DUP2 PUSH2 0x12D9 JUMP JUMPDEST DUP3 MSTORE POP POP JUMP JUMPDEST PUSH2 0xF6B PUSH2 0xF66 DUP3 PUSH2 0x12D9 JUMP JUMPDEST PUSH2 0x1402 JUMP JUMPDEST DUP3 MSTORE POP POP JUMP JUMPDEST PUSH1 0x0 PUSH2 0xF7D DUP3 DUP5 PUSH2 0xD11 JUMP JUMPDEST PUSH1 0x14 DUP3 ADD SWAP2 POP DUP2 SWAP1 POP SWAP3 SWAP2 POP POP JUMP JUMPDEST PUSH1 0x0 PUSH2 0xF98 DUP3 DUP5 PUSH2 0xE0F JUMP JUMPDEST SWAP2 POP DUP2 SWAP1 POP SWAP3 SWAP2 POP POP JUMP JUMPDEST PUSH1 0x0 PUSH2 0xFAF DUP3 DUP7 PUSH2 0xE0F JUMP JUMPDEST SWAP2 POP PUSH2 0xFBB DUP3 DUP6 PUSH2 0xE40 JUMP JUMPDEST SWAP2 POP PUSH2 0xFC6 DUP3 PUSH2 0xF28 JUMP JUMPDEST SWAP2 POP PUSH2 0xFD2 DUP3 DUP5 PUSH2 0xE0F JUMP JUMPDEST SWAP2 POP PUSH2 0xFDD DUP3 PUSH2 0xEE2 JUMP JUMPDEST SWAP2 POP DUP2 SWAP1 POP SWAP5 SWAP4 POP POP POP POP JUMP JUMPDEST PUSH1 0x0 PUSH2 0xFF6 DUP3 DUP7 PUSH2 0xE0F JUMP JUMPDEST SWAP2 POP PUSH2 0x1002 DUP3 DUP6 PUSH2 0xF5A JUMP JUMPDEST PUSH1 0x20 DUP3 ADD SWAP2 POP PUSH2 0x1012 DUP3 DUP5 PUSH2 0xE0F JUMP JUMPDEST SWAP2 POP DUP2 SWAP1 POP SWAP5 SWAP4 POP POP POP POP JUMP JUMPDEST PUSH1 0x0 PUSH2 0x102B DUP3 DUP5 PUSH2 0xE40 JUMP JUMPDEST SWAP2 POP DUP2 SWAP1 POP SWAP3 SWAP2 POP POP JUMP JUMPDEST PUSH1 0x0 PUSH1 0x20 DUP3 ADD SWAP1 POP DUP2 DUP2 SUB PUSH1 0x0 DUP4 ADD MSTORE PUSH2 0x1050 DUP2 DUP5 PUSH2 0xD28 JUMP JUMPDEST SWAP1 POP SWAP3 SWAP2 POP POP JUMP JUMPDEST PUSH1 0x0 PUSH1 0x20 DUP3 ADD SWAP1 POP DUP2 DUP2 SUB PUSH1 0x0 DUP4 ADD MSTORE PUSH2 0x1072 DUP2 DUP5 PUSH2 0xDD6 JUMP JUMPDEST SWAP1 POP SWAP3 SWAP2 POP POP JUMP JUMPDEST PUSH1 0x0 PUSH1 0x20 DUP3 ADD SWAP1 POP DUP2 DUP2 SUB PUSH1 0x0 DUP4 ADD MSTORE PUSH2 0x1093 DUP2 PUSH2 0xEBF JUMP JUMPDEST SWAP1 POP SWAP2 SWAP1 POP JUMP JUMPDEST PUSH1 0x0 PUSH1 0x20 DUP3 ADD SWAP1 POP DUP2 DUP2 SUB PUSH1 0x0 DUP4 ADD MSTORE PUSH2 0x10B3 DUP2 PUSH2 0xF05 JUMP JUMPDEST SWAP1 POP SWAP2 SWAP1 POP JUMP JUMPDEST PUSH1 0x0 PUSH1 0x20 DUP3 ADD SWAP1 POP PUSH2 0x10CF PUSH1 0x0 DUP4 ADD DUP5 PUSH2 0xF4B JUMP JUMPDEST SWAP3 SWAP2 POP POP JUMP JUMPDEST PUSH1 0x0 PUSH2 0x10DF PUSH2 0x10F0 JUMP JUMPDEST SWAP1 POP PUSH2 0x10EB DUP3 DUP3 PUSH2 0x1364 JUMP JUMPDEST SWAP2 SWAP1 POP JUMP JUMPDEST PUSH1 0x0 PUSH1 0x40 MLOAD SWAP1 POP SWAP1 JUMP JUMPDEST PUSH1 0x0 PUSH8 0xFFFFFFFFFFFFFFFF DUP3 GT ISZERO PUSH2 0x1115 JUMPI PUSH2 0x1114 PUSH2 0x14C8 JUMP JUMPDEST JUMPDEST PUSH2 0x111E DUP3 PUSH2 0x150B JUMP JUMPDEST SWAP1 POP PUSH1 0x20 DUP2 ADD SWAP1 POP SWAP2 SWAP1 POP JUMP JUMPDEST PUSH1 0x0 DUP2 SWAP1 POP PUSH1 0x20 DUP3 ADD SWAP1 POP SWAP2 SWAP1 POP JUMP JUMPDEST PUSH1 0x0 DUP2 SWAP1 POP DUP2 PUSH1 0x0 MSTORE PUSH1 0x20 PUSH1 0x0 KECCAK256 SWAP1 POP SWAP2 SWAP1 POP JUMP JUMPDEST PUSH1 0x0 DUP2 MLOAD SWAP1 POP SWAP2 SWAP1 POP JUMP JUMPDEST PUSH1 0x0 DUP2 MLOAD SWAP1 POP SWAP2 SWAP1 POP JUMP JUMPDEST PUSH1 0x0 PUSH1 0x20 DUP3 ADD SWAP1 POP SWAP2 SWAP1 POP JUMP JUMPDEST PUSH1 0x0 DUP3 DUP3 MSTORE PUSH1 0x20 DUP3 ADD SWAP1 POP SWAP3 SWAP2 POP POP JUMP JUMPDEST PUSH1 0x0 DUP3 DUP3 MSTORE PUSH1 0x20 DUP3 ADD SWAP1 POP SWAP3 SWAP2 POP POP JUMP JUMPDEST PUSH1 0x0 DUP3 DUP3 MSTORE PUSH1 0x20 DUP3 ADD SWAP1 POP SWAP3 SWAP2 POP POP JUMP JUMPDEST PUSH1 0x0 DUP2 SWAP1 POP SWAP3 SWAP2 POP POP JUMP JUMPDEST PUSH1 0x0 PUSH2 0x11BC DUP3 PUSH2 0x12E3 JUMP JUMPDEST SWAP2 POP PUSH2 0x11C7 DUP4 PUSH2 0x12E3 JUMP JUMPDEST SWAP3 POP DUP3 PUSH1 0xFF SUB DUP3 GT ISZERO PUSH2 0x11DD JUMPI PUSH2 0x11DC PUSH2 0x140C JUMP JUMPDEST JUMPDEST DUP3 DUP3 ADD SWAP1 POP SWAP3 SWAP2 POP POP JUMP JUMPDEST PUSH1 0x0 PUSH2 0x11F3 DUP3 PUSH2 0x12D9 JUMP JUMPDEST SWAP2 POP PUSH2 0x11FE DUP4 PUSH2 0x12D9 JUMP JUMPDEST SWAP3 POP DUP3 PUSH2 0x120E JUMPI PUSH2 0x120D PUSH2 0x143B JUMP JUMPDEST JUMPDEST DUP3 DUP3 DIV SWAP1 POP SWAP3 SWAP2 POP POP JUMP JUMPDEST PUSH1 0x0 PUSH2 0x1224 DUP3 PUSH2 0x12D9 JUMP JUMPDEST SWAP2 POP PUSH2 0x122F DUP4 PUSH2 0x12D9 JUMP JUMPDEST SWAP3 POP DUP2 PUSH32 0xFFFFFFFFFFFFFFFFFFFFFFFFFFFFFFFFFFFFFFFFFFFFFFFFFFFFFFFFFFFFFFFF DIV DUP4 GT DUP3 ISZERO ISZERO AND ISZERO PUSH2 0x1268 JUMPI PUSH2 0x1267 PUSH2 0x140C JUMP JUMPDEST JUMPDEST DUP3 DUP3 MUL SWAP1 POP SWAP3 SWAP2 POP POP JUMP JUMPDEST PUSH1 0x0 PUSH2 0x127E DUP3 PUSH2 0x12D9 JUMP JUMPDEST SWAP2 POP PUSH2 0x1289 DUP4 PUSH2 0x12D9 JUMP JUMPDEST SWAP3 POP DUP3 DUP3 LT ISZERO PUSH2 0x129C JUMPI PUSH2 0x129B PUSH2 0x140C JUMP JUMPDEST JUMPDEST DUP3 DUP3 SUB SWAP1 POP SWAP3 SWAP2 POP POP JUMP JUMPDEST PUSH1 0x0 PUSH2 0x12B2 DUP3 PUSH2 0x12B9 JUMP JUMPDEST SWAP1 POP SWAP2 SWAP1 POP JUMP JUMPDEST PUSH1 0x0 PUSH20 0xFFFFFFFFFFFFFFFFFFFFFFFFFFFFFFFFFFFFFFFF DUP3 AND SWAP1 POP SWAP2 SWAP1 POP JUMP JUMPDEST PUSH1 0x0 DUP2 SWAP1 POP SWAP2 SWAP1 POP JUMP JUMPDEST PUSH1 0x0 PUSH1 0xFF DUP3 AND SWAP1 POP SWAP2 SWAP1 POP JUMP JUMPDEST DUP3 DUP2 DUP4 CALLDATACOPY PUSH1 0x0 DUP4 DUP4 ADD MSTORE POP POP POP JUMP JUMPDEST PUSH1 0x0 JUMPDEST DUP4 DUP2 LT ISZERO PUSH2 0x131D JUMPI DUP1 DUP3 ADD MLOAD DUP2 DUP5 ADD MSTORE PUSH1 0x20 DUP2 ADD SWAP1 POP PUSH2 0x1302 JUMP JUMPDEST DUP4 DUP2 GT ISZERO PUSH2 0x132C JUMPI PUSH1 0x0 DUP5 DUP5 ADD MSTORE JUMPDEST POP POP POP POP JUMP JUMPDEST PUSH1 0x0 PUSH1 0x2 DUP3 DIV SWAP1 POP PUSH1 0x1 DUP3 AND DUP1 PUSH2 0x134A JUMPI PUSH1 0x7F DUP3 AND SWAP2 POP JUMPDEST PUSH1 0x20 DUP3 LT DUP2 EQ ISZERO PUSH2 0x135E JUMPI PUSH2 0x135D PUSH2 0x146A JUMP JUMPDEST JUMPDEST POP SWAP2 SWAP1 POP JUMP JUMPDEST PUSH2 0x136D DUP3 PUSH2 0x150B JUMP JUMPDEST DUP2 ADD DUP2 DUP2 LT PUSH8 0xFFFFFFFFFFFFFFFF DUP3 GT OR ISZERO PUSH2 0x138C JUMPI PUSH2 0x138B PUSH2 0x14C8 JUMP JUMPDEST JUMPDEST DUP1 PUSH1 0x40 MSTORE POP POP POP JUMP JUMPDEST PUSH1 0x0 PUSH2 0x13A0 DUP3 PUSH2 0x12D9 JUMP JUMPDEST SWAP2 POP PUSH32 0xFFFFFFFFFFFFFFFFFFFFFFFFFFFFFFFFFFFFFFFFFFFFFFFFFFFFFFFFFFFFFFFF DUP3 EQ ISZERO PUSH2 0x13D3 JUMPI PUSH2 0x13D2 PUSH2 0x140C JUMP JUMPDEST JUMPDEST PUSH1 0x1 DUP3 ADD SWAP1 POP SWAP2 SWAP1 POP JUMP JUMPDEST PUSH1 0x0 PUSH2 0x13E9 DUP3 PUSH2 0x13F0 JUMP JUMPDEST SWAP1 POP SWAP2 SWAP1 POP JUMP JUMPDEST PUSH1 0x0 PUSH2 0x13FB DUP3 PUSH2 0x151C JUMP JUMPDEST SWAP1 POP SWAP2 SWAP1 POP JUMP JUMPDEST PUSH1 0x0 DUP2 SWAP1 POP SWAP2 SWAP1 POP JUMP JUMPDEST PUSH32 0x4E487B7100000000000000000000000000000000000000000000000000000000 PUSH1 0x0 MSTORE PUSH1 0x11 PUSH1 0x4 MSTORE PUSH1 0x24 PUSH1 0x0 REVERT JUMPDEST PUSH32 0x4E487B7100000000000000000000000000000000000000000000000000000000 PUSH1 0x0 MSTORE PUSH1 0x12 PUSH1 0x4 MSTORE PUSH1 0x24 PUSH1 0x0 REVERT JUMPDEST PUSH32 0x4E487B7100000000000000000000000000000000000000000000000000000000 PUSH1 0x0 MSTORE PUSH1 0x22 PUSH1 0x4 MSTORE PUSH1 0x24 PUSH1 0x0 REVERT JUMPDEST PUSH32 0x4E487B7100000000000000000000000000000000000000000000000000000000 PUSH1 0x0 MSTORE PUSH1 0x32 PUSH1 0x4 MSTORE PUSH1 0x24 PUSH1 0x0 REVERT JUMPDEST PUSH32 0x4E487B7100000000000000000000000000000000000000000000000000000000 PUSH1 0x0 MSTORE PUSH1 0x41 PUSH1 0x4 MSTORE PUSH1 0x24 PUSH1 0x0 REVERT JUMPDEST PUSH1 0x0 DUP1 REVERT JUMPDEST PUSH1 0x0 DUP1 REVERT JUMPDEST PUSH1 0x0 DUP1 REVERT JUMPDEST PUSH1 0x0 DUP1 REVERT JUMPDEST PUSH1 0x0 PUSH1 0x1F NOT PUSH1 0x1F DUP4 ADD AND SWAP1 POP SWAP2 SWAP1 POP JUMP JUMPDEST PUSH1 0x0 DUP2 PUSH1 0x60 SHL SWAP1 POP SWAP2 SWAP1 POP JUMP JUMPDEST PUSH32 0x4E6F20736520656E6375656E74726120616C2063616E64696461746F00000000 PUSH1 0x0 DUP3 ADD MSTORE POP JUMP JUMPDEST PUSH32 0x207C200000000000000000000000000000000000000000000000000000000000 PUSH1 0x0 DUP3 ADD MSTORE POP JUMP JUMPDEST PUSH32 0x536F6C6F20736520707565646520766F74617220756E612076657A0000000000 PUSH1 0x0 DUP3 ADD MSTORE POP JUMP JUMPDEST PUSH32 0x203D200000000000000000000000000000000000000000000000000000000000 PUSH1 0x0 DUP3 ADD MSTORE POP JUMP JUMPDEST PUSH2 0x15D6 DUP2 PUSH2 0x12D9 JUMP JUMPDEST DUP2 EQ PUSH2 0x15E1 JUMPI PUSH1 0x0 DUP1 REVERT JUMPDEST POP JUMP INVALID BASEFEE PUSH2 0x7920 PUSH22 0x6E20656D7061746520656E747265206C6F732063616E PUSH5 0x696461746F PUSH20 0xA2646970667358221220AD7152707C0B3AFB5B94 GASLIMIT 0xE2 0xBF PUSH32 0x5FC57C5327DEB8758705993D4BDDA85C8F2D64736F6C63430008070033000000 "
				},
				"gasEstimates": {
					"creation": {
						"codeDepositCost": "1138400",
						"executionCost": "25446",
						"totalCost": "1163846"
					},
					"external": {
						"ganador()": "infinite",
						"representar(string,uint256,string)": "infinite",
						"varCandidatos()": "infinite",
						"verResultado()": "infinite",
						"verVotos(string)": "infinite",
						"votar(string)": "infinite"
					},
					"internal": {
						"uint2str(uint256)": "infinite"
					}
				},
				"methodIdentifiers": {
					"ganador()": "9114bde8",
					"representar(string,uint256,string)": "2e9452bc",
					"varCandidatos()": "7e4a58e6",
					"verResultado()": "25277cc0",
					"verVotos(string)": "60df75d4",
					"votar(string)": "ce3fe641"
				}
			},
			"storageLayout": {
				"storage": [
					{
						"astId": 6,
						"contract": "VOTACIONES/votaciones.sol:votacion",
						"label": "owner",
						"offset": 0,
						"slot": "0",
						"type": "t_address"
					},
					{
						"astId": 10,
						"contract": "VOTACIONES/votaciones.sol:votacion",
						"label": "ID_Candidato",
						"offset": 0,
						"slot": "1",
						"type": "t_mapping(t_string_memory_ptr,t_bytes32)"
					},
					{
						"astId": 14,
						"contract": "VOTACIONES/votaciones.sol:votacion",
						"label": "Votos_Candidato",
						"offset": 0,
						"slot": "2",
						"type": "t_mapping(t_string_memory_ptr,t_uint256)"
					},
					{
						"astId": 17,
						"contract": "VOTACIONES/votaciones.sol:votacion",
						"label": "listaCandidatos",
						"offset": 0,
						"slot": "3",
						"type": "t_array(t_string_storage)dyn_storage"
					},
					{
						"astId": 20,
						"contract": "VOTACIONES/votaciones.sol:votacion",
						"label": "listaVotantes",
						"offset": 0,
						"slot": "4",
						"type": "t_array(t_bytes32)dyn_storage"
					}
				],
				"types": {
					"t_address": {
						"encoding": "inplace",
						"label": "address",
						"numberOfBytes": "20"
					},
					"t_array(t_bytes32)dyn_storage": {
						"base": "t_bytes32",
						"encoding": "dynamic_array",
						"label": "bytes32[]",
						"numberOfBytes": "32"
					},
					"t_array(t_string_storage)dyn_storage": {
						"base": "t_string_storage",
						"encoding": "dynamic_array",
						"label": "string[]",
						"numberOfBytes": "32"
					},
					"t_bytes32": {
						"encoding": "inplace",
						"label": "bytes32",
						"numberOfBytes": "32"
					},
					"t_mapping(t_string_memory_ptr,t_bytes32)": {
						"encoding": "mapping",
						"key": "t_string_memory_ptr",
						"label": "mapping(string => bytes32)",
						"numberOfBytes": "32",
						"value": "t_bytes32"
					},
					"t_mapping(t_string_memory_ptr,t_uint256)": {
						"encoding": "mapping",
						"key": "t_string_memory_ptr",
						"label": "mapping(string => uint256)",
						"numberOfBytes": "32",
						"value": "t_uint256"
					},
					"t_string_memory_ptr": {
						"encoding": "bytes",
						"label": "string",
						"numberOfBytes": "32"
					},
					"t_string_storage": {
						"encoding": "bytes",
						"label": "string",
						"numberOfBytes": "32"
					},
					"t_uint256": {
						"encoding": "inplace",
						"label": "uint256",
						"numberOfBytes": "32"
					}
				}
			},
			"userdoc": {
				"kind": "user",
				"methods": {},
				"version": 1
			}
		}
	}
}